:020000040800F2
:10000000900B00200D0200088F460008FB2E000810
:10001000A5430008630500084D5C000800000000CF
:100020000000000000000000000000005D4A000821
:100030004109000800000000D74900085F4A000895
:1000400027020008270200082702000827020008EC
:1000500027020008270200082702000827020008DC
:1000600027020008270200082702000827020008CC
:1000700027020008270200082702000827020008BC
:1000800027020008270200082702000827020008AC
:10009000270200082702000827020008270200089C
:1000A000270200082702000827020008270200088C
:1000B000270200082702000827020008270200087C
:1000C000270200082702000827020008270200086C
:1000D00027020008E15B0008270200082702000849
:1000E000270200082702000827020008270200084C
:1000F000270200082702000827020008270200083C
:10010000270200082702000827020008270200082B
:10011000270200082702000827020008270200081B
:10012000B908000827020008270200082702000873
:1001300027020008270200082702000827020008FB
:1001400027020008270200082702000827020008EB
:1001500027020008270200082702000827020008DB
:1001600027020008270200082702000827020008CB
:1001700027020008270200082702000800000000EC
:1001800027020008270200082702000827020008AB
:10019000270200082702000827020008270200089B
:1001A000270200082702000827020008270200088B
:1001B000270200082702000827020008270200087B
:1001C000270200082702000800000000270200089C
:1001D000270200082702000827020008270200085B
:1001E000270200082702000827020008270200084B
:1001F0002702000827020008DFF80CD000F09AF868
:1002000000480047E9600008900B0020064880473E
:1002100006480047FEE7FEE7FEE7FEE7FEE7FEE7EB
:10022000FEE7FEE7FEE7FEE7154B0008F9010008D0
:100230002DE9F05F0546002092469B46884606461B
:10024000814640241BE0284641464746224600F0AE
:1002500061F853465A46C01A914110D311461846C8
:10026000224600F048F82D1A67EB01084F46224657
:100270000120002100F03FF817EB00094E41201E3D
:10028000A4F10104DFDC484631462A464346BDE876
:10029000F09F40EA01039B0703D009E008C9121F41
:1002A00008C0042AFAD203E011F8013B00F8013B30
:1002B000521EF9D27047D2B201E000F8012B491E5C
:1002C000FBD270470022F6E710B513460A460446F3
:1002D0001946FFF7F0FF204610BD10B5002200E0E0
:1002E000521C835C8C5CA34201D1002BF8D1D8B2A4
:1002F000E1B2401A10BD202A04DB203A00FA02F1D4
:10030000002070479140C2F1200320FA03F3194303
:1003100090407047202A04DB203A21FA02F00021A5
:10032000704721FA02F3D040C2F120029140084305
:1003300019467047064C074D06E0E06840F001039F
:1003400094E8070098471034AC42F6D3FFF758FF03
:1003500058AA000878AA00084A496FF0706210B5E0
:10036000D1F8043323F44033C1F80433D1F8043313
:1003700044682343C1F8043301684B6823F4807355
:100380004B60016803694C6844EA03234B600168D1
:100390004B6823F040734B60016884684B682343CB
:1003A0004B6001688B6823F400638B600168C4684C
:1003B0008B6823438B60816AD14201688A6822F08E
:1003C00070628A6001680DD0836A8A681A438A6005
:1003D00001688A6822F040528A600168C36A8A68AC
:1003E0001A4302E08A6822F040528A6001688A68F3
:1003F00022F002028A60016882698B6843EA420245
:100400008A6090F820100029016811D01E4A4B68BC
:1004100043F400634B6001684B6823F460434B6016
:100420000168446A4B6802EB443213434B6003E0BB
:100430004A6822F400624A600168144BCA6A22F4D6
:100440007002CA620168848BCA6A03EB04531A43C0
:10045000CA6201688A6822F400728A60016890F8B2
:1004600030208B6843EA42228A6001688A6822F45D
:1004700080628A60016840698A6842EA80208860F8
:1004800010BD00000020014000E0FFFF0000F0FF71
:100490002DE9F0410D4646190020044608E0070208
:1004A000301B401E80B200F007F8641C3844E4B2F0
:1004B000AC42F4D3BDE8F08110B5044602F0D8FD9B
:1004C000210AA02000EB4100C0B202F09BFD02F027
:1004D0001FFEE0B202F096FD02F01AFE02F0C8FD27
:1004E000A12002F08FFD02F013FE002002F056FD65
:1004F000044602F0E5FD204610BD2DE9F041002440
:1005000016460D46074609E0E0003A1925FA00F0C4
:10051000C1B290B200F006F8641CE4B2B442F3D366
:10052000BDE8F08170B50D46044602F0A1FD210A38
:10053000A02000EB4100C0B202F064FD02F0E8FD33
:10054000E0B202F05FFD02F0E3FD284602F05AFD42
:1005500002F0DEFD02F0B4FDBDE870400A2005F0B7
:1005600091BDFEE701A005F0B9BB0000B0B4CFC259
:10057000C1CBB5DAD2BBB8F6B0B4BCFC0D0A0000F2
:1005800001A005F0ABBB0000B0B4CFC2C1CBB5DA5F
:10059000B6FEB8F6B0B4BCFC0D0A000001A005F030
:1005A0009DBB0000B0B4CFC2C1CBB5DAC8FDB8F670
:1005B000B0B4BCFC0D0A000070B5144D00224021FF
:1005C000284601F05AF9124C206820F0C000206043
:1005D000206840F040002060022005F061FD00220C
:1005E0002046082101F049F9022005F059FD0122B9
:1005F0002846402101F041F9022005F051FD28462E
:10060000BDE870400022402101F037B9001C0240D3
:1006100000200240124800B587B0016841F0800117
:100620000160016801F080010591016841F4807169
:10063000016000680322402100F4807005900120D1
:10064000CDE90202CDE900100648694601F024F820
:10065000082000900448694601F01EF807B000BD6C
:1006600030380240001C02400020024070B5144D9A
:1006700000224021284601F000F9124C206820F0A9
:10068000C0002060206840F040002060022005F09B
:1006900007FD01222046082101F0EFF8022005F0B5
:1006A000FFFC01222846402101F0E7F8022005F076
:1006B000F7FC2846BDE870400022402101F0DDB87B
:1006C000001C0240002002402DE9F041184D064672
:1006D0000024286820F0C0002860286828601E20B8
:1006E00005F0DEFC134FA8460025002238464021C5
:1006F00001F0C3F8022005F0D3FC01223846402166
:1007000001F0BBF860060821040E404601F0B0F885
:1007100008B1641CE4B26D1CEDB2082DE5D326B11E
:10072000FFF74AFF2046BDE8F081FFF79FFFF9E79A
:1007300000200240001C02402DE9F0411A4C064600
:10074000206820F0C0002060206840F04000206059
:10075000164F00224021384601F08FF8022005F0A4
:100760009FFC0025300601D5012200E00022204632
:10077000082101F082F870060122060E3846402159
:1007800001F07BF8022005F08BFC00223846402166
:1007900001F073F8022005F083FC6D1CEDB2082D0A
:1007A000E0D3BDE8F081000000200240001C0240C0
:1007B00070B5134C206820F0C0002060206840F025
:1007C0004000206001222046082101F056F80D4D1E
:1007D00001224021284601F050F81E2005F060FC5F
:1007E00000222046082101F048F8022005F058FCBC
:1007F0002846BDE870400022402101F03EB80000CC
:1008000000200240001C024010B5104C206820F06F
:10081000C0002060206840F0400020600C480122A9
:10082000402101F02AF81E2005F03AFC0022204663
:10083000082101F022F8022005F032FC01222046B6
:10084000BDE81040082101F018B800000020024067
:10085000001C024070B5164D00242846296821F07E
:10086000C0012960296829600122082101F005F8EA
:10087000104E01224021304600F0FFFF07E0641CCB
:10088000E4B2FA2C03D9FFF7BFFF012070BD0220AC
:1008900005F006FC0821284600F0EAFF0028EED10A
:1008A00000223046402100F0E8FF002070BD00002B
:1008B00000200240001C0240014800F049BD000039
:1008C0002C01002001681823CAB2103AB2FBF3F2DF
:1008D000054B6FF30901032A9B5CC36500D9091D11
:1008E0008165084670470000B461000810B583694F
:1008F0004FF0C074826A0146002053B1B3F5005F27
:1009000015D072B1012A0CD0022A0AD0032A09D1CB
:1009100004E01AB1012A06D0022A03D1C96AC9012A
:1009200000D5012010BDC96AA142FAD010BD002A2D
:10093000F7D0012AF2D0022AF3D0032AF3D010BD57
:1009400070477047F0B5D1E90125D1E90343D1E9FA
:1009500005762A43D1F800C044EA0304D1E90735FB
:1009600042EA0402496A42EA0702BCF1010F42EA84
:10097000060208D004681A432A430A43E30BDB0348
:100980001A4302600BE0066844682B4326F4F845DE
:1009900029430B4303606FF30E042243426000209F
:1009A000F0BD426942EA410141610020704770B5E3
:1009B00091E81C00C9686FF01F0506691A4305EB32
:1009C000441444EA41210A4306EA45431A430261BA
:1009D000002070BD2DE9F043914691E81C006FF0B6
:1009E0000F05521E2E0105EB03131A430B7E06EB77
:1009F00004268C8A2F034FEA054C0D8A32434FF0B0
:100A00007F4808EB0366CB68B9F1010F07EB05459A
:100A10000CEB04540CD081683F1107EB03331A43ED
:100A20002A432243324301F070410A43826011E0BD
:100A30008168DFF828C0C7681B03A3F580532343F0
:100A40002A4301EA0C0132430B43836007F07044F0
:100A50002243C2600020BDE8F0830000FF0F0FFFBB
:100A60002DE9F043414889B0016841F080010160FF
:100A7000016801F080010791016841F48071016013
:100A8000006801AADFF8E890002400F48070079065
:100A900080250095012669460327484682E8D00054
:100AA00000F0FAFD4FF480786946CDE90086314EBA
:100AB000304600F0F1FDFFF7ADFD00224146304623
:100AC00000F0DBFE0A2005F0DDFA01224146304647
:100AD00000F0D3FE0A2005F0D5FACDE90054CDE9A7
:100AE00002476946484600F0D7FD642005F0CAFA7F
:100AF000042248F2401005A900F054F805A98DF829
:100B000018401DA005F0EAF81EA105A8FFF7E5FBB7
:100B100040BB022048F2400501228DF8140005A9CF
:100B2000284600F09DF90122E81D05A900F03AF8D9
:100B30009DF8141060290BD214A005F0CFF81848C6
:100B40008088A0F5AA41103902D1012000F060F997
:100B50000A2005F097FA0122284605A98DF81440CD
:100B600000F07EF909B00020BDE8F0833038024083
:100B7000001C0240002002404354502049443A25C2
:100B8000730D0A0039313437000000004465666196
:100B9000756C74205665723A25640D0A00000000D9
:100BA000800500202DE9F04115460F460446FFF769
:100BB000FFFD2820FFF7C0FDFFF74CFE200AFFF7DE
:100BC000BBFDFFF747FEE0B2FFF7B6FDFFF742FEC1
:100BD000FFF7EEFD2920FFF7AFFDFFF73BFE6E1E8E
:100BE000002409E0B44201D0012000E00020FFF71A
:100BF0006BFD611C3855CCB2AC42F3D3BDE8F0417B
:100C0000FFF702BE2DE9F14F7D4E00244FF00A0B95
:100C1000DFF8F0A182B0A0463078401CC0B230703E
:100C2000B0FBFBF20BFB120109B10A287CD248F29F
:100C30004E150122284602A9FFF7B4FF9DF80800CF
:100C4000002701060AD500F00F00062806D201226F
:100C5000284601A98DF8047000F002F99DF80800FB
:100C6000010761D000F00F0006285DD2FF21DFF8F8
:100C7000988155468140C8B28DF80400C14341F0C7
:100C8000C0009AF83410AAF83400BAF80C0001F049
:100C9000FF09AAF81400BAF82000AAF828000120D9
:100CA000A98EA040014267D058480422694630F816
:100CB0001400FFF777FFB8F80400A0F5AA41103937
:100CC00006D0A0F58641423918D042392DD053E0E4
:100CD00095F84400C0072CD09DF801109DF8000045
:100CE00000EB012105EB440001849DF803209DF8F1
:100CF000021001EB0221C1F548713CE095F8440077
:100D0000C00716D19DF801109DF8000000EB0121ED
:100D100005EB440001849DF803209DF8021001EBCF
:100D20000221C1F5887126E040E095F84400C00733
:100D300010D09DF801109DF8000000EB012105EB9B
:100D4000440081819DF803209DF8021001EB0221EF
:100D5000018411E09DF801109DF8000000EB0121D5
:100D600005EB440001849DF803209DF8021001EB7F
:100D70000221C1F5F0718181641CE4B2052C8ED38F
:100D80004046A9894FF001080288914203D8298C76
:100D90004088814209D99DF8080000F00F00012821
:100DA0000BD9E889A881688C288437709DF80800E1
:100DB00000F08F0080280AD019E0A98A8020A9813C
:100DC000298D29848DF80800A5F83490EEE7BAF84B
:100DD000341050460A0602D521F0800105E04FF696
:100DE000FF72828101F0E0010284AAF834103078A9
:100DF000F02801D986F800B04046BDE8FE8F00001B
:100E0000880000209000002080050020C4A9000870
:100E100008B5124900228DF800208DF80100104617
:100E20009DF800200B5C401CC0B2B8281A448DF815
:100E30000020F5D3D0B20949C043401C8DF8000012
:100E4000B82248F2470000F00BF80222694648F247
:100E5000FF0000F005F8002008BD00000CA9000804
:100E60002DE9F041002516460F460446FFF7A0FC89
:100E70002820FFF761FCFFF7EDFC200AFFF75CFC80
:100E8000FFF7E8FCE0B2FFF757FCFFF7E3FC0024B4
:100E900008E0385DFFF750FCFFF7DCFC050003D1EC
:100EA000641CE4B2B442F4D3FFF7AEFC2846BDE8BC
:100EB000F0810000F8B50025009590F83C20012A4B
:100EC0001DD0012280F83C20604C0723D6070A6819
:100ED000092A22D9B24220D007680A3A02EB420C12
:100EE000FA6803FA0CF39A43FA600A68A24208D13E
:100EF00002680B7AD76847EA0363D36022E00220D6
:100F0000F8BD07680A3A8B6802EB4202D7F80CC0BA
:100F1000934043EA0C03FB6014E0076802EB4202D3
:100F2000D7F810C093402CEA030CC7F810C0036830
:100F30000F788A68D3F810C007EB4707BA4042EA37
:100F40000C021A614A681F23072A16D20768521E2C
:100F500002EB820C7A6B03FA0CF39A437A63026811
:100F60000F790B887F1ED2F834C09BB207EB87073E
:100F7000BB4043EA0C0353632DE007680D2A15D2EA
:100F8000D21F02EB820C3A6B03FA0CF39A433A63DA
:100F900002680F790B88FF1FD2F830C09BB207EBB5
:100FA0008707BB4043EA0C03136314E00D3A02EBDE
:100FB000820CFA6A03FA0CF39A43FA6202680F7918
:100FC0000B880D3FD2F82CC09BB207EB8707BB40C4
:100FD00043EA0C03D3621E4A0368934208D10B68AC
:100FE000B34205D1D2F8043323F44003C2F80433EA
:100FF0000368934208D10B68122B05D1D2F8043351
:1010000043F48003C2F80433036893421AD10B6897
:10101000A34201D0112B15D1D2F8043343F40003BD
:10102000C2F804330968A1420CD10A490A4A096886
:10103000B1FBF2F101EB8101490000E0491E009192
:101040000029FBD180F83C500020F8BD12000010B0
:10105000002001401C00002040420F0070B5040039
:101060004FF0000503D0206C002610B107E00120EE
:1010700070BD204600F01CF8666484F83C60206C6B
:10108000C00610D4206C20F4885040F00200206488
:101090002046FFF761F96664206C20F0020040F002
:1010A0000100206400E0012584F83C60284670BD02
:1010B000F0B587B0064614216846FFF703F91D49CD
:1010C0003068884233D11C48016841F48071016066
:1010D000006800F48070059017481438016841F0EA
:1010E0000101016000680025032100F00100059066
:1010F00002208DE823001148694600F0CDFA104C1B
:1011000010480115C4E900058715A560CB00C4E9A6
:101110000351C2142046C4E907756562C4E905237A
:1011200000F0E6F908B1FFF70CFCB463A66307B062
:10113000F0BD0000002001404438024000000240A1
:101140002C01002010640240F0B590F85020012AD4
:101150002ED001EB4102012580F85050022380F887
:10116000513000EBC202254C178E168DB2F834C0F8
:10117000536A3F05203243EA064647EA4C570A2B9A
:1011800046EA070616D0092B14D0137B46EA036300
:101190000029016813D0CE69A6431E43CE610168C1
:1011A00013680B6151680A291BD0092919D01DE069
:1011B0000220F0BDD36803F07F433343E8E74E6A73
:1011C000A6431E434E62016813688B6151680A2969
:1011D00001D009290AD1D168026821F07F419162CA
:1011E00004E0D168026821F07F411162002180F89B
:1011F000515080F850100846F0BD00000F0033FF3A
:1012000070B5040004D094F85100002510B106E038
:10121000012070BD204684F8505000F029F80220CB
:1012200084F85100D4E900030121026822F440321D
:101230001A4302602068A368426B22F007021A4337
:1012400042632068E368026C6FF30D021A43026484
:101250002068228AA38A466B120542EA435226F48A
:1012600040131A434263656584F85110002070BD35
:1012700008B500680649884208D10648016841F46B
:1012800000010160006800F40000009008BD00004B
:1012900000B00240303802402DE9F041876D04462D
:1012A00000F0F0FA064694F835000025022806D032
:1012B00080206065012084F83450BDE8F08120680A
:1012C000016821F0160101602068416921F0800168
:1012D0004161206C08B9A06C20B12068016821F040
:1012E000080101602068016821F0010101600CE043
:1012F00000F0C8FA801B052807D92021616503206A
:1013000084F8345084F83500D7E720680068C007B7
:10131000EED194F85C203F2001219040B86084F821
:10132000345084F835100020C7E790F835100229B2
:1013300003D08021416501207047052180F83510D8
:101340000068016821F00101016000207047000081
:101350002DE9F84304464FF00009644B0820CDF80E
:1013600000904FF41652A56D94F85C101B682E681F
:10137000B3FBF2F700FA01F131420FD021680A689D
:1013800052070BD50A6822F004020A6094F85C1038
:101390008840A860606D40F00100606594F85C10C2
:1013A0004FF0010808FA01F0304208D0216849697D
:1013B000090604D5A860606D40F00200606594F8ED
:1013C0005C1004208840304208D0216809688907F1
:1013D00004D5A860606D40F00400606594F85C106E
:1013E00010208840304218D021680968090714D5B8
:1013F000A86020680168490304D50068000308D587
:10140000A16C07E00168C90503D4016821F0080157
:101410000160216C09B12046884794F85C102020B7
:101420008840304231D021680968C9062DD5A860AE
:1014300094F8350005282068016806D0490347D58F
:10144000006800031DD4616C1CE021F016010160EE
:101450002068416921F080014161206C08B9A06CCD
:1014600020B12068016821F00801016094F85C3027
:101470003F229A40AA6084F8349084F83580216D28
:101480001FE0E16B09B120468847606D00282BD032
:10149000606DC00714D0052084F83500206801680D
:1014A00021F0010101600098401C0090B84203D86F
:1014B00020680068C007F6D184F8349084F835803D
:1014C000E16C002910D001B02046BDE8F043084788
:1014D0000168C905D5D4036823F01003036084F8BC
:1014E000349084F83580CCE7BDE8F8831C000020F8
:1014F0002DE9F047044600F0C5F9054664B14FF008
:10150000000984F83490022184F8351020680168BD
:1015100021F0010101600EE00120BDE8F08700BF6D
:1015200000F0B0F9401B052805D920216165032092
:1015300084F83500F1E720680068C007F0D1D4E9ED
:101540000020D4E90251D4E9043C284304F11805F1
:1015500019430843116895E8E00140EA0C001C4B70
:101560002843194040EA060040EA0700B8F1040F9A
:1015700040EA010003D1D4E90B131943084310607A
:1015800020680126656A4069042D20F0070045EABD
:1015900000050CD1D4E90A01054341B12046FFF70B
:1015A000A5F920B14020606584F83560B4E7206873
:1015B00045612046FFF786F994F85C303F229A4057
:1015C0008260C4F8549084F835600020A5E70000DC
:1015D0003F8010E070B5044600F054F90546601CE9
:1015E00002D004480078044400F04CF9401BA042AB
:1015F000FAD370BD10000020F0B587B01421684602
:10160000FEF760FE1D480168002935D10121016007
:101610001B48016841F001010160006802240025B7
:10162000694600F00100059003264FF63F000C27A5
:101630008DE8F100134800F02FF80D2069468DE881
:10164000F100114800F028F848F2371069468DE89B
:10165000F1000E4800F020F84FF6837069468DE8DF
:10166000F1000B4800F018F84CF2037069468DE861
:10167000F100084800F010F807B0F0BD00000020AD
:1016800038380240001402400008024000180240AE
:1016900000100240000C02402DE9F84F00224FF0EC
:1016A00001094FF0030A4FF00F0E00BF0B6809FA53
:1016B00002F42340A34270D14D68012D05D0022DC4
:1016C00003D0112D01D0122D11D185685700CE689D
:1016D0000AFA07FC25EA0C05BE402E4386604568E1
:1016E0000E79A543C6F3001696402E434660C568A2
:1016F00056008F680AFA06F4A543B7402F43C76027
:101700004D68022D01D0122D12D1D5080F694FEA74
:10171000427C00EB8505AB462D6A4FEADC6C0EFA85
:101720000CF807FA0CF725EA08052F43CBF82070D0
:101730000D79076805F00305A743B5403D430560F3
:101740004C68E40074D53D4C256845F4804525601F
:10175000246822F00307960704F480440094384C70
:10176000360F2744D7F80848DFF8D8C00EFA06F538
:10177000604524EA050401D100252EE0324DA8423F
:1017800001D1012529E0314DA84201D1022524E0F3
:101790002F4DA84202D103251FE049E02D4DA8425C
:1017A00001D1042519E02C4DA84201D1052514E0F2
:1017B0002A4DA84201D106250FE0294DA84201D1AA
:1017C00007250AE0274DA84201D1082505E0264D4E
:1017D000A84201D1092500E00A25B540234E254342
:1017E000C7F808584D683468ED0324EA030400D5AF
:1017F0001C431E4D34602D1D4E682C68B60324EA30
:10180000030400D51C43194E2C6008364D6834681B
:10181000ED0224EA030400D51C43144D34600C355A
:101820004E682C68B60224EA030400D51C432C60E1
:10183000521C102AFFF43AAFBDE8F88F443802403A
:101840000030014000000240000402400008024055
:10185000000C024000100240001402400018024038
:10186000001C02400020024000240240003C0140D5
:101870000069084000D0012070470AB181617047BB
:101880000904FBE701488068704700001000002051
:10189000024881680278114481607047100000207E
:1018A000032010B500F0DAF9002000F005F800F090
:1018B0008FF9002010BD000070B50D4D04464FF4A7
:1018C0007A700C4A29781268B0FBF1F0B2FBF0F0A4
:1018D00000F0A0FF48B9102C07D200222146501E6C
:1018E00000F09CF900206C6070BD012070BD00000C
:1018F000100000201C0000202DE9F041044690F863
:10190000A00016460F4601281DD0012584F8A050DE
:10191000022084F8A10006EB860000EBC60034220A
:1019200004EB80003830FEF7B4FC324639462046DE
:1019300002F068FA216800204D6284F8A15084F812
:10194000A000BDE8F0810220FBE700002DE9F04196
:10195000040004D094F8A100002518B107E001208C
:10196000BDE8F081204684F8A05000F06BF83448C0
:10197000022184F8A110012202CC8B6923F070436C
:101980008B6194E84A001943E3681E4354F8043D10
:1019900031439E693143996121688B6803408B60B4
:1019A0002168A68AA7698B683B4343EA06438B609C
:1019B0002168CB680340CB602168A38B276ACE687F
:1019C0003E4346EA0346CE6021680B6903400B6143
:1019D0002368A68CA76A1969394341EA064119614F
:1019E00021684B6903404B612068A38D266B4169D8
:1019F000314341EA03414161236894F8351094F87A
:101A00003600DE6A000406F07F46DE62236840EAA4
:101A1000012094F83460D96A31430143D9622068C7
:101A2000416B41F0060141632068816941F0010189
:101A30008161C4F8A45084F8A120002090E7000040
:101A400000F800F070B586B0044614216846FEF731
:101A500039FC2F492068884258D12E48016841F04E
:101A600080610160006800F08060059029481438AA
:101A7000016841F480710160016801F48071059191
:101A8000016841F020010160016801F02001059129
:101A9000016841F080010160016801F08001059159
:101AA000016841F040010160006800240E2669468B
:101AB00000F04000059040F2F760009002251648C3
:101AC000CDE90154CDE90346FFF7E6FD6802009039
:101AD000CDE9015411486946CDE90346FFF7DCFD25
:101AE0004FF47E400090CDE901540D486946CDE9A0
:101AF0000346FFF7D1FD4FF40C600090CDE901548F
:101B000008486946CDE90346FFF7C6FD06B070BD3B
:101B100000680140443802400020024000140240A6
:101B2000001C02400018024070B5044690F8A00066
:101B30000E46012820D003EB830000EBC3010125F2
:101B400084F8A050022084F8A10004EB81018E6388
:101B5000086E3044C1E90F02486E104448643831C1
:101B60001A46204602F04EF9216800204D6284F8A2
:101B7000A15084F8A00070BD022070BD70B504466D
:101B800090F8A0000E46012820D003EB830000EB64
:101B9000C301012584F8A050022084F8A10004EBC1
:101BA0008101886B3044C863086C10444864C1E903
:101BB000186238311A46204602F024F921680020C4
:101BC0004D6284F8A15084F8A00070BD022070BD61
:101BD0000A4808B5016841F080510160006800F0D2
:101BE000805000900548001D016841F4804101606B
:101BF000006800F48040009008BD000040380240BA
:101C0000002809DB410900F01F028900012001F1D1
:101C1000E0219040C1F80001704700000E4BF0B485
:101C20001B680D46C3F30223C3F10706042E00D937
:101C30000426191D072901D2002300E0DB1E012420
:101C400004FA06F19C40491E2940641E9940144044
:101C50002143F0BC04F052B80CED00E0064900F05E
:101C6000070210B54FF6FF040868044B204040EA15
:101C700002201843086010BD0CED00E00000FA05DA
:101C80001848F8B5016841F0805101600068164CB1
:101C900000F080500090206840F480302060FFF712
:101CA000F1FD4FF47A76054605E000BFFFF7EAFD47
:101CB000401BB0420FD86068C003F7D5206840F4DD
:101CC00000302060FFF7DEFD054606E0FFF7DAFD95
:101CD000401BB04201D90320F8BD60688003F5D5F0
:101CE0000020F8BD40380240007000400248016802
:101CF00041F4807101607047007000402DE9F84F99
:101D000004460078DFF824944FF000063746C007F9
:101D10000ED0D9F8001021F40001C9F80010D9F84C
:101D20000010626B1143C9F80010606B00B9012606
:101D3000FE4D2068843500030ED5E16B286820F441
:101D4000401008432860E06BB0F5801F01D010B14F
:101D500002E0012600E0012720684FF4800BC0025A
:101D60000CD5216C286820F4400008432860206CC2
:101D7000584501D1012601E000B901272068C101C1
:101D800000D50126800666D5E8483830016841F064
:101D9000805101600068DFF898A300F08050009047
:101DA000DAF8001041F48071CAF80010FFF76AFDFC
:101DB000804605E0FFF766FDA0EB080064287DD8AB
:101DC000DAF80000C005F5D5DFF8608308F168088F
:101DD000D8F8000010F440702AD0218E01F4407130
:101DE000814225D0D8F80010D8F8002021F44071A5
:101DF00042F48032C8F80020D8F8002022F4803263
:101E0000C8F80020C8F80010D8F80000C0070FD0AC
:101E1000FFF738FD824607E0FFF734FDA0EB0A012B
:101E200041F288308142CAD8D8F800008007F3D543
:101E3000206BC0F3012103297ED0D9F8001021F4D2
:101E4000F811C9F80010228ED8F80010C2F30B0266
:101E50001143C8F800102078C00607D5286820F084
:101E6000807028602868A16B084328602188AF48EB
:101E70008830490405D5626E016821F44031114370
:101E800001602188090405D5A26E016821F4402172
:101E9000114301602168C90305D5E26E016821F490
:101EA0004011114301602168890305D5226F016843
:101EB00021F4400111430160217800E034E149063A
:101EC00005D5626C016821F003011143016021789E
:101ED000090605D5A26C016821F00C0111430160CF
:101EE0002188C90505D5E26C016821F03001114354
:101EF00001602188890505D5226D016821F0C001A6
:101F0000114301602188490505D5626D016821F4FE
:101F10004071114301602188090505D5A26D016852
:101F200021F44061114301602188C90407D5E26DA5
:101F3000016821F4405100E068E01143016021880C
:101F4000890405D5226E016821F4404111430160E6
:101F50002168490205D5A26F016821F08061114313
:101F6000016021684FF0006A890209D5E26F0168BB
:101F700021F0006111430160E16F514500D101275B
:101F800021680A0700D50127490305D5626F01685A
:101F900021F04071114301602168090206D5D4F88F
:101FA0008020016821F080511143016021684901BE
:101FB00006D5D4F88420016821F000511143016056
:101FC0002068000106D5D4F88810286820F0007039
:101FD000084328602068C00006D5D4F88C10286813
:101FE00020F0806008432860DFF84891012E02D07D
:101FF000206880017ED5D9F800004E4620F0806030
:10200000C9F80000FFF73EFC80460FE04A4AD9F8C5
:102010000030104023F4F8120243C9F8002012E700
:10202000FFF730FCA0EB080064287DD83068000181
:10203000F6D421783D487C30C90712D0616B81B954
:10204000237A62680168D0F800C09201C1F30141AF
:1020500042EA0142CCF3036142EA016141EA0371C1
:10206000016021680A0303D5E26BB2F5801F04D03A
:10207000C9021AD5216C594517D16368016894F8D3
:102080000CC002689B01C1F3014143EA0141C2F364
:10209000027241EA0C6141EA027101602968626AD8
:1020A00021F01F01521E114329602168C90110D57A
:1020B000238A62680168D0F800C09201C1F303610D
:1020C00042EA034242EA0162CCF3027142EA017140
:1020D0000160216889010CD56168228A237B94F80C
:1020E00008C0890141EA024141EA036141EA0C71F9
:1020F000016000E011E03168B04641F0806131607C
:10210000FFF7C0FB064604E0FFF7BCFB801B64281A
:102110000AD8D8F800000001F6D5E7B3D9F80000D6
:102120004E4620F0805009E07BE000000838024075
:102130000070004000380240FFFCFF0FC9F80000AB
:10214000FFF7A0FB074604E0FFF79CFBC01B6428D9
:1021500067D83068C0438000F6D5216835480A0347
:1021600001D5E26B1AB1C9021DD5216CD9B96369D9
:102170000168277E02689B01C1F3014143EA0143E4
:10218000C2F3027143EA076242EA01710160296801
:102190006FF0FF0300E04BE0A26A21F4F85103EB7B
:1021A0000222114329602168890212D5E16F51454D
:1021B0000FD1238C6269016807689201C1F3036142
:1021C00042EA034242EA0162C7F3027142EA017144
:1021D00001602178090716D561690268D0F800C04E
:1021E0008B01277FC2F30362CCF3014143EA014133
:1021F00041EA026141EA077101602868E16A20F45E
:10220000403008432860306840F080503060FFF76D
:1022100039FB044608E000BFFFF734FB001B6428CD
:1022200002D90320BDE8F88F3068C0438000F3D4A2
:102230000020F7E7883802402DE9F04705000F46F7
:1022400063D0444E306800F00F00B84209D23068C5
:1022500020F00F0038433060306800F00F00B842C3
:1022600053D128683C4C810712D5400703D520681C
:1022700040F4E05020602878000703D5206840F43F
:1022800060402060A968206820F0F00008432060CA
:102290002878C0072AD0304968680839012810D04A
:1022A0000968022810D0890700292EDA216821F058
:1022B000030101432160FFF7E5FA804641F28839C6
:1022C0000DE009688903EFE78901EDE7FFF7DAFA26
:1022D000A0EB0801494502D90320BDE8F0876868F2
:1022E000216801F00C01B1EB800FEFD1306800F0F4
:1022F0000F00B8420BD9306820F00F00384330602F
:10230000306800F00F00B84201D00120E5E72878DE
:10231000400705D5E968206820F4E05008432060B4
:102320002878000706D52869216821F4604141EA30
:10233000C000206000F018F82168084AC1F30311BA
:10234000515CC8400649086006480068FFF7B4FAC7
:102350000020C2E7003C024008380240BC6100088F
:102360001C00002014000020154910B5154809680C
:1023700011F00C0213D01449042A0FD0082A0ED1F0
:102380000F4C241F2268236802F03F025B0207D52E
:102390002068C0F38810A0FB010106E0084610BDCC
:1023A0002168C1F38811A1FB00010023FDF740FF64
:1023B0002168C1F30141491C4900B0FBF1F010BD97
:1023C000083802400024F40040787D012DE9F84FE0
:1023D00004004FF000076ED02078DFF87CA3AAF14C
:1023E0000408C007A8F104054CD0DAF800105046E4
:1023F000C1F38101012908D00068C0F381000228DF
:102400000AD1D8F80000400206D52868800339D5E3
:1024100060680028DFD035E06068B0F5803F0BD001
:1024200010B1B0F5A02F11D0286820F480302860BA
:10243000286820F4802002E0286840F4803028607A
:10244000606890B1FFF71EFA06460AE0286840F47B
:1024500080202860F0E700BFFFF714FA801B642893
:1024600072D828688003F7D50CE0FFF70BFA064610
:1024700005E000BFFFF706FA801B6428F0D8286843
:102480008003F7D42078800742D5DAF80010504650
:1024900011F00C0F08D00068C0F3810002280BD1A6
:1024A000D8F80000400207D42868800718D5E068F3
:1024B000012800D114E04AE1E0680028286817D01C
:1024C00040F001002860FFF7DDF9064605E000BF97
:1024D000FFF7D8F9801B0228C2D828688007F7D5F3
:1024E0002069296821F0F80141EAC00028600FE066
:1024F00020F001002860FFF7C5F9064605E000BF9F
:10250000FFF7C0F9801B02281ED828688007F7D47F
:102510002078000729D5904861696C3000298146F0
:10252000016812D041F001010160FFF7ABF90646E6
:1025300005E000BFFFF7A6F9801B022804D8D9F8F0
:1025400000008007F6D510E089E021F0010101606C
:10255000FFF798F9064604E0FFF794F9801B02287C
:102560007DD8D9F800008007F6D4207840076BD5D5
:10257000DFF8E49109F13809D9F80000C0000BD464
:10258000D9F8001041F08051C9F80010D9F80000C6
:10259000012700F08050009070480168C90512D4EE
:1025A0000168834641F480710160FFF76BF90646CC
:1025B00005E000BFFFF766F9801B64284FD8DBF801
:1025C0000000C005F6D5644EA068683601280AD020
:1025D00008B1052811D0306820F001003060306863
:1025E00020F0040002E0306840F001003060A06894
:1025F000A0B1FFF747F983460CE0306840F00400D3
:102600003060F0E7FFF73EF9A0EB0B0141F28830B4
:10261000814268D830688007F4D50EE0FFF732F9C0
:10262000834607E0FFF72EF9A0EB0B0141F288305B
:10263000814258D830688007F4D42FB1D9F80010FF
:1026400021F08051C9F80010A069E0B3DAF8001059
:10265000C1F3810102294DD00228286800E042E040
:1026600020F08070286003D0FFF70CF904463DE0AD
:10267000FFF708F9064604E0FFF704F9801B02287B
:1026800031D828688001F7D4D4E90921DFF8D0C017
:10269000D4E9070694F830304F0894F82C103043F2
:1026A0000CEB074444EA8212104340EA016040EA1E
:1026B0000370C8F80000286840F080702860FFF7B9
:1026C000E1F8044605E044E0FFF7DCF8001B0228CF
:1026D00009D828688001F7D53BE000BFFFF7D2F8A2
:1026E000001B022802D90320BDE8F88F286880016A
:1026F000F4D42EE00128D8F8000028D0E16900F4D5
:1027000080028A4223D1216A00F03F028A421ED110
:10271000626A47F6C0710140B1EB821F17D1A16A0E
:102720004FF0FF3200F4403302EB5101B3EB014FA5
:102730000DD194F82C1000F07062B2EB016F06D14D
:1027400094F8301000F0E040B0EB017F01D00120A0
:10275000CAE70020C8E700000838024000700040C7
:102760000000FFFF70B504000D4603D094F82C0064
:1027700010B107E0012070BD002084F82D00204634
:1027800000F011F8022084F82C002068211DFEF7CB
:10279000D9F8D4E900022946FEF71CF9012084F893
:1027A0002C00002070BDFEF727BF10B5044690F83E
:1027B0002C00022809D0022084F82C002068FEF7A3
:1027C000F0F8012084F82C00002010BD70B50446FC
:1027D00090F82C000D4602280DD0022084F82C0021
:1027E0002068FEF7E4F82868022805D05FF00100B1
:1027F00084F82C00002070BD0520F9E704284FF074
:10280000E020016903D021F004010161704741F02B
:102810000401FAE7401EB0F1807F10B501D301201A
:1028200010BD4FF0E02460610F21601703F066FADD
:102830000020A0610721216110BD0000F0B590F8D3
:102840003C20012A3BD01F4E012480F83C4002224C
:1028500080F83D2002681C4D5368B242D2F808C08F
:1028600001D0AA4203D14F6823F470033B430F68A1
:1028700023F070031F4357600268B24213D0B2F1D5
:10288000804F10D0114B9A420DD0114B9A420AD072
:10289000104B9A4207D0AA4205D00F4B9A4202D061
:1028A0000E4B9A4204D189682CF080031943916041
:1028B000002180F83D4080F83C100846F0BD022021
:1028C000F0BD000000000140000401400004004091
:1028D00000080040000C004000400140001800408B
:1028E00010B5040003D094F83D0010B107E00120BA
:1028F00010BD002084F83C00204600F023F80220A0
:1029000084F83D002068211D02F02EF9012084F892
:10291000480084F83E0084F83F0084F8400084F8C2
:10292000410084F8420084F8430084F8440084F8AD
:10293000450084F8460084F8470084F83D000020F4
:1029400010BD000008B50068B0F1804F08D10548FF
:10295000016841F001010160006800F00100009091
:1029600008BD00004038024070B5044690F83C00B5
:10297000012817D0324B012584F83C50022084F8FE
:102980003D0022689068184020F47F4090600868FD
:10299000502830D00DDC20284DD005DC98B310280D
:1029A0003BD148E0022070BD302844D0402834D1CB
:1029B00039E0602828D0702806D0B0F5805F2CD090
:1029C000B0F5005F29D10AE04A682068D1E9021316
:1029D00002F030F92068816841F0770109E04A6827
:1029E0002068D1E9021302F025F92068816841F4DA
:1029F0008041816011E0CA684968206802F062FA8B
:102A00002068502107E016E0CA684968206802F093
:102A10006AFA2068602102F016F9002084F83D501F
:102A200084F83C0070BDCA684968206802F04AFA20
:102A300020684021EFE7226801461046EBE70000DE
:102A400088FFFEFF70B5044690F83C000D46012853
:102A50000BD0012084F83C000C2A45D007DC5AB189
:102A6000042A1BD0082A78D12CE0022070BD102A3D
:102A70004ED0142A71D15DE0206802F0EDF8206894
:102A8000816941F0080181612068816921F00401B8
:102A9000816120682A698169114311E0206802F090
:102AA00015F92068816941F40061816120688169BC
:102AB00021F48061816120682969826942EA0121EB
:102AC00081614AE0206802F03DF92068C16941F067
:102AD0000801C1612068C16921F00401C161206859
:102AE0002A69C169114311E0206802F067F9206882
:102AF000C16941F40061C1612068C16921F480614C
:102B0000C16120682969C26942EA0121C16124E0EA
:102B1000206802F07FF92068416D41F008014165AD
:102B20002068416D21F00401416520682A69416DEA
:102B3000114311E0206802F099F92068416D41F4D9
:102B4000006141652068416D21F480614165206824
:102B50002969426D42EA01214165002084F83C0068
:102B600070BD10B5040003D094F83D0010B107E02B
:102B7000012010BD002084F83C00204600F022F81F
:102B8000022084F83D002068211D01F0EDFF0120A6
:102B900084F8480084F83E0084F83F0084F8400040
:102BA00084F8410084F8420084F8430084F844002B
:102BB00084F8450084F8460084F8470084F83D0016
:102BC000002010BD70477047704770472DE9F041F5
:102BD00002680446002540F60F06D0691168936824
:102BE000304205D1860678D58E0676D5616EF2E044
:102BF000814F03F001060F4037437ED0C70709D04D
:102C0000CF0507D501271762D4F8802042F00102D2
:102C1000C4F8802082070AD5DA0708D02768022284
:102C20003A62D4F8802042F00402C4F880204207BF
:102C30000AD5DA0708D0236804221A62D4F8802063
:102C400042F00202C4F8802002070CD501F02002F5
:102C5000324308D0236808221A62D4F8802042F058
:102C60000802C4F8802002050BD54A0109D5236863
:102C70004FF400621A62D4F8802042F02002C4F8B7
:102C80008020D4F88020002A2FD0800605D5880621
:102C900003D5616E09B1204688472168D4F88000C9
:102CA0008968490602D410F0280F20D0204602F08F
:102CB0002DFF20688168490614D5816821F0400104
:102CC0008160206F70B14D490165206FFEF72DFBCB
:102CD00000280AD0206F016D01E00EE02046BDE81B
:102CE000F04108472046FFF770FFBDE8F08120461D
:102CF000FFF76BFFC4F88050F7E7276E2026012FFF
:102D000059D1C70657D5CF0655D510201062206877
:102D1000816849062ED5226F116849680904090C9B
:102D2000E3D0B4F858308B42DFD9A4F85A10D169F7
:102D3000B1F5807F17D0016821F4807101602068AF
:102D4000816821F0010181602068816821F04001E3
:102D50008160E66725662068016821F01001016046
:102D6000206FFEF799FAB4F85800B4F85A10401AD8
:102D700081B21CE0B4F85810B4F85A20B4F85A30B4
:102D8000891A89B2002BB0D00029AED0026822F493
:102D9000907202602068826822F001028260E66719
:102DA000256665662068026822F0100202602046EF
:102DB000FFF709FF99E7C70208D55B0206D54FF474
:102DC000801010622046FFF7FFFE8EE7030605D550
:102DD0000B0603D5A16E002980D186E7400684D575
:102DE000480682D51168204621F040011160A6678F
:102DF000A56600F081F878E720010004F95A000880
:102E00002DE9F84F0446C06F9A4616460D46202815
:102E100070D105B3FEB194F8740001286AD0012284
:102E200084F8742022214FF00008C4F88080E16704
:102E3000C4F860805834FEF725FD814654F8500CE4
:102E400026804FF480536680FF21583C984208D179
:102E500022691AB11EE00120BDE8F88F40F2FF118F
:102E600018E04FF07F0298B1B0F1805F15D0A4F860
:102E70005C8000BFB4F85C70984201D1206998B1C1
:102E80002E460025404607F0FF0884F8740024E031
:102E9000266936B9A4F85C10ECE7216909B13F2135
:102EA000F8E7A4F85C20E5E70026EBE700224B46B4
:102EB00020212046CDF800A002F040FE08B10320FA
:102EC000CAE72068406A86B100EA080006F8010BEC
:102ED000B4F85A00401EA4F85A00B4F85A0000286A
:102EE000E4D12020E0670020B6E7384025F8020B47
:102EF000EEE7FFE70220AFE77047FEE710B5124CA0
:102F0000002210212046FEF7B8FC206820F4406023
:102F10002060206840F4806020600022204620214C
:102F2000FEF7ABFC022003F0BBF801222046102183
:102F3000FEF7A3FC022003F0B3F800222046BDE810
:102F400010401021FEF799BC001C024010B5124C35
:102F5000002210212046FEF790FC206820F44060FB
:102F60002060206840F480602060012220462021FB
:102F7000FEF783FC022003F093F801222046102183
:102F8000FEF77BFC022003F08BF800222046BDE810
:102F900010401021FEF771BC001C02402DE9F041E9
:102FA000174C0746002520682E4620F4406020601C
:102FB00020682060002210212046FEF75EFC0220DF
:102FC00003F06EF8012220461021FEF756FC680639
:102FD0002021050E2046FEF74BFC08B16D1CEDB21A
:102FE000012003F05DF8761CF6B2082EE2D327B17B
:102FF000FFF784FF2846BDE8F081FFF7A7FFF9E758
:10300000001C024070B5194E05463046316821F467
:1030100040613160316841F48061316000221021EB
:10302000FEF72BFC0024280601D5012200E0002237
:1030300030462021FEF721FC6806050E022003F031
:103040002FF8012230461021FEF717FC022003F072
:1030500027F8002230461021FEF70FFC022003F073
:103060001FF8641CE4B2082CDDD370BD001C0240C4
:1030700010B5124C206820F440602060206840F4B5
:1030800080602060012220462021FEF7F6FB01220D
:1030900020461021FEF7F1FB042003F001F8002286
:1030A00020462021FEF7E9FB042002F0F9FF002270
:1030B0002046BDE810401021FEF7DFBB001C024097
:1030C00010B5124C206820F440602060206840F465
:1030D00080602060002220461021FEF7CEFB0022F7
:1030E00020462021FEF7C9FB042002F0D9FF01226F
:1030F00020461021FEF7C1FB042002F0D1FF01227F
:103100002046BDE810402021FEF7B7BB001C02405E
:1031100070B5174C0025206820F4406020602068BE
:103120002060012220212046FEF7A7FB012002F0AB
:10313000B7FF012220461021FEF79FFB012002F07D
:10314000AFFF07E06D1CEDB2FA2D03D9FFF7B8FF12
:10315000012070BD20212046FEF78AFB0028F1D116
:10316000002220461021FEF788FB002070BD0000E1
:10317000001C024070B506460E480D490024026846
:10318000088822B13046BDE8704000F06BBD4D8824
:1031900000214543084600F0E1FB00F051FDB0B2CC
:1031A000054901E00880641CAC42FBD370BD0000FF
:1031B00080050020C0020020000008602DE9F05FBB
:1031C000394C3A4DA071296839B100F05BFDE88AAD
:1031D0002080288B6080BDE8F09F002832484FF4A3
:1031E000305E4FF0F00C4FF4487649F241384FF41E
:1031F000A0774FF02C0280884FF4F0714FF02A0333
:103200004FF02B0545F2105B45F210390BD02780AB
:103210004045BA46A4F802C001D0484527D12281D2
:103220006381A58135E0A4F800C04045678001D0E6
:10323000484507D1228148456381A5812ED1278049
:1032400061802BE0584508D1A4F808E04FF42853DA
:1032500063814FF42C50A08106E0A0F5C857633F6E
:103260001CD122816581A3812180668016E05845AA
:1032700006D14FF42853A4F808E04FF42C5504E08D
:10328000A0F5C857633F04D122816381A5812680C0
:103290006180484502D12180A4F802A00020BDE849
:1032A000F05F00F07FBA000080050020C00200201F
:1032B0002DE9FE4F161A4FF000085D1A4FF0FF344B
:1032C000002E4746CDE9001002DD4FF0010002E07C
:1032D00003D14FF00000834602E0C6F10006A3468A
:1032E000002D02DD4FF0010002E003D14FF000009D
:1032F000824602E0C5F10005A246AE4201DD344639
:1033000000E02C46601C0290002017E0009881B27B
:10331000019880B200F018F8B044A0452F4404DDB5
:103320000198A8EB040858440190A74203DD0098D7
:103330003F1B5044009009F1010080B20299814680
:103340008842E3DDBDE8FE8F084A10B5084C1268DC
:1033500022B12268BDE8104000F0A6BC00F0FEFAE1
:1033600000F06EFC03492088088010BDC0020020D8
:1033700080000020000008602DE9F0411C46154641
:103380000E4607460B46FFF793FF3A462346314663
:103390001046FFF78DFF23462A4619463846FFF7A9
:1033A00087FF2A46234631461046BDE8F041FFF725
:1033B0007FBF2DE9FC5F8046144603200F460025A1
:1033C000A0EB440649E0391B019108EB050A89B2DC
:1033D0001FFA8AF0FFF7B8FF791B009108EB040988
:1033E0001FFA89F089B2FFF7AFFF07EB050B1FFA51
:1033F0008BF11FFA89F0FFF7A7FF07EB04091FFA0B
:1034000089F11FFA8AF0FFF79FFFA8EB050A1FFA60
:103410008AF01FFA89F1FFF797FFA8EB04091FFA5A
:103420008BF11FFA89F0FFF78FFF01991FFA8AF0DD
:1034300089B2FFF789FF00991FFA89F089B2FFF777
:1034400083FF6D1C002E03DA06EB8506B61D04E033
:10345000281B641E06EB80060A36A542B3DDBDE8D4
:10346000FC9F00002DE9F041044638480E460068F4
:1034700020B12046BDE8F04100F016BC344D270ACB
:103480004FEA16282846A9884089A1F51343413BF5
:103490000BD0A1F5A643103B07D0B3F5007310D0B5
:1034A000A1F5C853633B25D048E000F0BDFB38468A
:1034B00000F0AEFBE0B200F0ABFBA88900F0B4FB7B
:1034C00036E000F0B1FB384600F0A2FB6889401CF2
:1034D00080B200F0A9FBE0B200F09AFBA88900F0EE
:1034E000A3FB404600F094FBA889401C80B200F08A
:1034F0009BFB20E0A97919B92988091B491E8CB2C8
:1035000000F092FB270A384600F082FBE0B200F0A0
:103510007FFB384600F07CFBE0B200F079FBA88925
:1035200000F082FB404600F073FBF0B200F070FB4D
:10353000404600F06DFBF0B200F06AFB05492889B7
:103540008B1C08801A80BDE8F0810000C0020020BA
:1035500080050020FEFF07602DE9F8431E46144B4E
:10356000804608981B6833B133460090404600F00F
:10357000B9FBBDE8F883A2EB0802DFF83890521CD3
:103580000C4687B295B20FE02146404600F0E6F9BE
:1035900000F056FB0020494602E0401C0F8080B23C
:1035A000A842FAD3641CA4B2B442EDD9E1E700000A
:1035B000C0020020000008602DE9FF41354C4FF4A7
:1035C00088734FF4F070344E01254FF00208282222
:1035D000DFF8BCC0C4E90003258108216581052509
:1035E000A2814FF48C77E181258200256182C4F8A5
:1035F0001C80DFF8A880308073804FF40273284865
:10360000284EC8F8006000F1200E5E1DC0E900C51C
:1036100085604FF4907CC560056145618EE88A0045
:10362000C0E90652C0E90B6C80F8365080F835507E
:1036300080F83450FEF78AF906200721CDE90215FB
:10364000CDE90050D8F80010FF230222002000F03E
:10365000A3FB002312481A461946FEF765FA1048E4
:103660000023D4E90012FEF789FA0020FFF7A6FD37
:10367000002000F0C1FB0C4801222021FEF7FDF8DC
:1036800004B04FF6FF70BDE8F041FFF773BD0000D6
:1036900000680140C00200208005002008000020D2
:1036A00018020020000000C00004024070B515465A
:1036B0000E460446102002F047FD0346236000201A
:1036C0004FF6FF7101225860236818812368186043
:1036D00023685881C4E9010120730B486273E063D9
:1036E0000A48A0620A48A0630A4860610A48E0618B
:1036F0000A482062A6610A482561606209A0BDE807
:10370000704002F0EBBA0000154400087544000850
:1037100059450008894400088545000815460008F9
:10372000E5440008B3C9B9A6B4B4BDA8D2BBB8F685
:1037300050616765210D0A000246012000E05043F8
:103740004B1ED9B2FBD2704710B50446082002F0D8
:10375000FBFC206000214160206801600748A060F8
:103760000748E06007486061074820610748A0619A
:1037700007A0BDE8104002F0B1BA000005440008FF
:10378000A9430008894600083D460008374600085E
:10379000B3C9B9A6B4B4BDA8D2BBB8F64C43442152
:1037A0000D0A0000F0B56C4C002541F66317214668
:1037B000A2798988012A01D01AB11BE0B94202D14D
:1037C00018E0B94216D1082814D2DFE800F0040648
:1037D000080A0C0E101206200CE007200AE0042054
:1037E00008E0052006E0012004E0002002E00320BC
:1037F00000E0022045F21032A1F5134345F21056C5
:10380000413B05D0914203D0B14201D0B94277D1BA
:10381000082812D2DFE800F0110406080A0C0E1086
:1038200080250AE0402508E0C02506E0202504E0C8
:10383000602502E0A02500E0E025B14202D14FF46E
:10384000585000E03620914205D0B14203D0B94231
:1038500001D045F00805294600F0FCF9A188B942DD
:103860000AD06288A806208802D5904202D303E0DD
:10387000904201D922806080B142608941D100F03C
:10388000D3F9002000F0C4F96089401C80B200F038
:10389000CBF9002000F0BCF96089801C80B200F0F8
:1038A000C3F92088401EC0F30F2000F0B1F96089F1
:1038B000C01C80B200F0B8F92078401EC0B200F001
:1038C000A7F9A08900F0B0F9002000F0A1F9A089C3
:1038D000401C80B200F0A8F9002000F099F9A089FE
:1038E000801C80B200F0A0F96088401EC0F30F2059
:1038F00000F08EF9A089C01C80B200F095F922E09A
:1039000028E000F091F9002000F082F9002000F09A
:103910007FF92088401EC0F30F2000F079F920784D
:10392000401EC0B200F074F9A08900F07DF90020BB
:1039300000F06EF9002000F06BF96088401EC0F3C3
:103940000F2000F065F9A078BDE8F040401EC0B23D
:1039500000F05EB9F0BD000080050020F0B53F4AE0
:10396000060A04460D4610460F0A91884089A1F5C3
:103970001343413B28D0A1F5A643103B24D0A1F529
:10398000C853633B2FD0A1F5AA43103B64D100F08C
:103990004BF9304600F03CF95089401C80B200F0F1
:1039A00043F9E0B200F034F9908900F03DF938466F
:1039B00000F02EF99089401C80B200F035F9E8B291
:1039C000BDE8F04000F024B900F02EF9304600F0D8
:1039D0001FF9E0B200F01CF9908900F025F9384693
:1039E00000F016F9EBE7917929B300F01DF93046A4
:1039F00000F00EF9E0B200F00BF91088401EC0F3A1
:103A00000F2000F005F91078401EC0B200F000F958
:103A1000908900F009F9384600F0FAF8E8B200F0B1
:103A2000F7F85088401EC0F30F2000F0F1F89078AE
:103A3000401EC0B2C4E71188091B491E8CB200F0B9
:103A4000F3F8002000F0E4F8002000F0E1F8200A8C
:103A500000F0DEF8E0B2D9E7F0BD000080050020FC
:103A60002DE9FF5F58071D460C468A4600D001200D
:103A7000DFF8B8B0690800EBD500002610FB01F1B3
:103A8000203A01F0FF09D0B202904BE00C2D11D08A
:103A9000102D14D0182D17D0202D45D1029824496F
:103AA00001EBC0104FF00008875D380613D52148A0
:103AB000026814E00298204900EB400008E00298F8
:103AC0001E4901EB0010EDE702981D4900EBC00014
:103AD00001EB8000E6E70E9828B9164842682146B7
:103AE0000098FFF7BFFC7906BBF80200641CA4B283
:103AF0000F0EA04218D9A4EB0A00A84209D10098E1
:103B00005446BBF80010401C80B2009081420BD993
:103B100006E008F1010000F0FF08B8F1080FC4D377
:103B2000761CF6B24E45B1D3BDE8FF9F800500205C
:103B30008C79000880000020CC61000840660008F5
:103B4000306C00082DE9FF4F81B04FF000081D4692
:103B5000934681464646DDF838A044464FEA5A0768
:103B600027E0281B401EC1B20A20FFF7E5FDBBFB82
:103B7000F0F00A21B0FBF1F201FB120026B9691E38
:103B80008C4201DA48B10126534607FB04913030DC
:103B9000CDF80080C2B288B206E007FB0490202274
:103BA000534680B2CDF800800299FFF759FF641C9C
:103BB000E4B2AC42D5D305B0BDE8F08F2DE9F84FA3
:103BC0000D46044658194FF0000A111987B21FFA22
:103BD00081F8DDE90AB604F0FF0912E0444503D399
:103BE00005EB0B004C4685B2BD420FD25B46294621
:103BF0002046CDF800A0FFF733FF04EB5B0084B252
:103C0000761C3278A2F120005E28E7D9BDE8F88F53
:103C100001B5BDF800100348ADF80010BDF8001064
:103C2000018008BD0000086001B5BDF80010034820
:103C3000ADF80010BDF80010018008BDFEFF076060
:103C40000248034900890880704700008005002071
:103C5000FEFF0760024B9A1C18801180704700001D
:103C6000FEFF076008B500900548018BC08A491E19
:103C70008BB2401E82B20021084600F033F808BD26
:103C8000C002002007490A464875938812889BB2F3
:103C900092B220B1012801D1CA820B837047CB8236
:103CA0000A837047C0020020F0B50C4C95B2DFF8D3
:103CB00030C02346677D1E7DDA691B685CF826608C
:103CC00027B103FB01004243B552F0BD6468201ADE
:103CD000401E03FB001050433552F0BDC0020020CF
:103CE000080000202DE9F047274D0027DDF820A02F
:103CF0006C7D14B10446164606E01E466B680C4601
:103D0000991A1B1A491E5B1E2868DFF88090321B27
:103D1000861A95F814C000FB0144591AD9F80030EE
:103D2000DFF87080761EED69194858F82C8043F44E
:103D3000000C05FB0484B3B2C9F800C04FF4403650
:103D40000660022545630364ED030368491C05EB27
:103D50000242114323F001020260C4634164C0F8CF
:103D600038A00268690142F00102026002E07F1C93
:103D70008F4202D242689207F9D5816841F0020170
:103D80008160BDE8F0870000C002002030380240AA
:103D900000B00240080000202DE9F0438DB0144D22
:103DA00014460022DDE916C7DDE91498009202925C
:103DB0004FEA0C2C2E6801964FEA08286D68CDE971
:103DC000044303954B460B95CDE9091606AE6946AB
:103DD00086E808118DF832208DF83120024605481A
:103DE0008DF83070FDF788FD0DB0BDE8F083000060
:103DF000C002002018020020014908757047000029
:103E0000C00200202DE9FE4F8146006888249346B9
:103E10008D888C2204EBCB178A46C3689421BE465A
:103E2000C459C3F30B432B4404F470441F0401979B
:103E300002EBCB1240F80E4001EBCB13DAF8007026
:103E40009C214FF0AC0C01EBCB1440F207710291B6
:103E50000CEBCB11D9F800C098250020CDF800C09C
:103E6000A02605EBCB15DCF80CC006EBCB16CCF38B
:103E70000B4C0CF1010C07EB0C08DDF800C0019FA6
:103E800048EA07084CF80E80D9F80070BAF80CC060
:103E9000B846FF68C7F30A0767444FEA074E58F869
:103EA000027007F4704C48F802C0D9F800C0DAF884
:103EB0000870DCF80C80C8F30A0808F10108B8445F
:103EC00048EA0E084CF80280D9F80020D75827F0AD
:103ED0000707D750D9F80070DAF81020FA509AF88E
:103EE00031209AF818304FEA022C9AF83220120446
:103EF00042EA0362D9F800301F5918519AF830305D
:103F000043EA0C031343D9F800201351D9F80020D9
:103F1000535923F0FF035351D9F80020DAF8143035
:103F20005351D9F800209359029CA3439351D9F8D7
:103F30000030DAE9072422439A51D9F80020535877
:103F40005050D9F80020DAF824005050DAF8100068
:103F5000C8B301283AD004283AD0022838D0032820
:103F600036D0072834D00120D9F80030B02505EB31
:103F7000CB11B42284245D5802EBCB1205F0E0256E
:103F80005D50DAE9003504EBCB14EB1ABAF828508F
:103F900043434543D9F80000DB1C43EA0543435043
:103FA000D9F8000081586FF30A018150D9F8000058
:103FB000DAF82C108150D9F80000015941F00101C4
:103FC0000151BDE8FE8FFFE70420CDE70320CBE7DA
:103FD0000220C9E77FB51648002501241349009542
:103FE0000195220402950395130301604FF040717F
:103FF000C0E901250561846180F82050C560C46175
:10400000C0E90A1380F830404461FDF727F808B191
:10401000FCF797FC009469460548CDE90145FCF79B
:1040200049FF002801D0FCF78CFC7FBD0020014037
:10403000E4000020104802220E4B002110B503605E
:10404000C0E90112C160C0E90E12016441648164DB
:10405000C164FDF7D5F808B1FCF773FC06480121EF
:10406000FDF772F8002803D0BDE81040FCF769BCEA
:1040700010BD000000B002408C010020094808B5C6
:10408000016841F48001016000680022114600F4DB
:10409000800000903820FDF7C1FDBDE808403820C1
:1040A000FDF7AEBD30380240F0B587B01C21684640
:1040B000FCF708F9164800250822144F01264FF096
:1040C000400E0221C0E90075C0E9026210240461BB
:1040D0000C03C0F814E04FF4C07CC0E906C58F02A1
:1040E0000762CE020623C0E909648DE80E000425AC
:1040F0000393CDE9045106916946FEF733FB00288E
:1041000001D0FCF71EFC07B0F0BD0000400100A08C
:10411000E401002070B586B014216846FCF7D2F89F
:104120003D48016841F004010160016801F00401AB
:104130000591016841F480710160016801F48071AA
:104140000591016841F020010160016801F0200142
:104150000591016841F080010160016801F0800172
:104160000591016841F001010160016801F0010160
:104170000591016841F002010160016801F002014E
:104180000591016841F040010160016801F04001C2
:104190000591016841F010010160016801F0100112
:1041A0000591016841F008010160006800221B4E82
:1041B000232100F0080005903046FDF75EFB012545
:1041C0006946002468038DE831001548FDF764FA5C
:1041D000022000956946CDE901401248FDF75CFADE
:1041E0000C2069468DE831000F48FDF755FA032091
:1041F0006946CDE90005CDE902543046FDF74CFA99
:1042000020200090CDE90154694630460394FDF723
:1042100043FA06B070BD000030380240000402408E
:104220000008024000000240001C0240F0B59BB0B4
:1042300034216846FCF746F834210DA8FCF742F813
:10424000314800242F4A4FF4027300F11C0C28213E
:104250000260082244605E1D84604FF48C75C46067
:104260004FF490770461446184618CE8EE0080F83B
:10427000344080F8354080F83640FDF767FB08B1E0
:10428000FCF75FFB4FF4F0704FF488714306CDE903
:104290000040CDE90A010225049505A809936E02A4
:1042A0000527FF22CDE9024180E8D4008DF8304097
:1042B00000228DF83140694613488DF83240FDF7F1
:1042C0001BFB08B1FCF73DFB13A80D94CDE910458D
:1042D0000E9401220F940DA9129480E8D0008DF85D
:1042E00064408DF8654008481694179418948DF82A
:1042F0006640FDF701FB002801D0FCF722FB1BB054
:10430000F0BD000000680140E002002010B58EB052
:1043100000241C21009407A801940294039404949F
:1043200005940694FBF7CEFF1D4841F270710822F8
:104330004FF08043C0E9024104618461C0E900326A
:10434000FEF7CEFA08B1FCF7FCFA4FF4805000906B
:1043500013486946FEF708FB08B1FCF7F2FA10486B
:10436000FEF7FFFB08B1FCF7ECFA0D4804A9049432
:104370000694FEF763FA08B1FCF7E3FA07AA40F6E1
:10438000B831602082E813000548042207A90B9485
:10439000FEF758FB002801D0FCF7D3FA0EB010BD91
:1043A00088030020FEE7000070B50D460446082093
:1043B00001F0CAFE0021C0E9005121684A6842B1FB
:1043C0000B68012101E05268491C8B42FBDC506004
:1043D00000E0486020680168491C0160606800B91D
:1043E000656002A0BDE8704001F078BC4C4344B366
:1043F000C9B9A6CCEDBCD3D2BBB8F6506167652174
:104400000D0A000010B5FFF7D7F8BDE8104001F025
:10441000A7B9000070B516460D460446082001F005
:1044200093FE0021AE61C0E900512268516841B19C
:104430001368012201E04968521C9342FBDC48608A
:1044400000E0506020680168491C0160BDE87040D0
:1044500001A001F043BC000050616765B3C9B9A673
:10446000CCEDBCD3D2BBB8F6427574746F6E210D1F
:104470000A00000030B41C46154608462246029B3E
:10448000294630BCFEF714BFF8B5064600684468FC
:10449000002C25D001251FE020684188C288838830
:1044A00000880A44C71893B2BAB2FEF765FF2168C4
:1044B000886800908A880F88CB8848883A44521EC2
:1044C000C118491E8BB2401C81B27F1C92B2B8B297
:1044D000FFF742F864686D1C30680068A842DBDAB8
:1044E000F8BD00002DE9F0411A4C05460020616836
:1044F0008847A08EC0F3811101290BD000202968C4
:1045000008732A68506800281AD0A5890121248CD4
:10451000166819E020F04001A1860120EFE703684A
:104520001F88BD420ED3B3F804C06744AF4209D31D
:104530005F88BC4206D3DB883B44A34202D311818F
:10454000BDE8F0814068491C8E42E8DA0020108105
:10455000F6E700009000002010B5C9B201730846CC
:10456000FEF72CFE064905488A7990F8441002F0BF
:104570000102114380F8441010BD0000900000209B
:1045800080050020F8B5054600684468002C3DD041
:104590000089C8B1012101E06468491C8842FBDC44
:1045A00042F61230009021688A880E884888CB88AD
:1045B0003244411C1844401E83B2521E761C89B2FC
:1045C00092B2B0B2FEF7C8FF28684189D9B100891C
:1045D000884218D0012001E06468401C8142FBDC65
:1045E000206881680091C3884188828800880B44D4
:1045F0005B1E0244521E491C401C9BB292B289B2FF
:1046000080B2FEF7A9FF024900200860F8BD000053
:10461000800000200168486800280BD00A89002A21
:1046200008D0012101E04068491C8A42FBDC006897
:104630008069004770474068C169084770B5044603
:1046400040680025417B012906D1457360680169F6
:104650008847606841698847606881698847606801
:10466000416A88476068C169884760680068018955
:10467000418160680168097B002904D0016A88478C
:1046800060680068057370BD40680169084770473D
:1046900030B5284887B000218DF80010026842F03C
:1046A00080020260026802F080020692026842F410
:1046B00080720260006801AB012400F480700690F3
:1046C00080200322049283E813001B4801A9FCF711
:1046D000E3FF2502CDE90154184C01A92046FCF75F
:1046E000DBFFFBF797FF002229462046FDF7C5F8C0
:1046F000642001F0C7FC012229462046FDF7BDF8E1
:10470000642001F0BFFC012000F012F9012269468B
:104710004FF4506000F01AF89DF8001008A001F066
:10472000DDFA9DF80000802802D0012007B030BDDE
:104730000020FBE730380240001C0240002002400D
:104740004354502049443A25780D0A002DE9F041A0
:1047500015460F460446FCF72BF8B220FBF7ECFF9A
:10476000FCF778F8200AFBF7E7FFFCF773F8E0B2F4
:10477000FBF7E2FFFCF76EF8FCF71AF8B320FBF743
:10478000DBFFFCF767F86E1E002409E0B44201D09D
:10479000012000E00020FBF797FF611C3855CCB2E8
:1047A000AC42F3D3BDE8F041FCF72EB82DE9F1435C
:1047B000564E00244FF00A09DFF8548127462DEDAC
:1047C000048B82B03078401CC0B23070B0FBF9F27C
:1047D00009FB120109B10A2878D20122002006A99A
:1047E000FFF7B4FF9DF81800C10673D000F01F005A
:1047F0004546012740F0C0009FED468B9FED479B4B
:10480000A8F83400A88E07FA04F1084251D04548B0
:104810000422694630F81400FFF798FF95F8440029
:104820009DF80210C0079DF8030022D000EB012183
:1048300000EE101A05EB44009FED3B1BB8EE400B59
:1048400020EE080BBCEEC00B10EE101A01849DF890
:1048500000209DF8011001EB022100EE101AB8EEC5
:10486000400B00EE491BBCEEC10B10EE101A81810B
:104870001FE000EB012100EE101A05EB4400B8EE3A
:10488000400B20EE080BBCEEC00B10EE101A81811D
:104890009DF800209DF8011001EB022100EE101A96
:1048A000B8EE400B20EE090BBCEEC00B10EE101A58
:1048B0000184641CE4B2052CA4D3A989012700203B
:1048C00019B9298C09B98DF8180030709DF81800B5
:1048D000C00610D1B8F83400010602D520F08000DF
:1048E00007E04FF6FF71A8F80C1000F0E000A8F800
:1048F0002010A8F834003078F02801D986F800900C
:1049000002B03846BDEC048BBDE8F8838900002076
:10491000900000207B14AE47E17AD43FD8817346E3
:1049200094F6D23FCEA900080000000000008940A4
:1049300008B500218DF8001010B180208DF800001E
:10494000012269464FF4506000F001F808BD2DE9DE
:10495000F041002516460F460446FBF729FFB2201A
:10496000FBF7EAFEFBF776FF200AFBF7E5FEFBF715
:1049700071FFE0B2FBF7E0FEFBF76CFF002408E0FC
:10498000385DFBF7D9FEFBF765FF050003D1641C1A
:10499000E4B2B442F4D3FBF737FF2846BDE8F08118
:1049A0000A4938B50446406808600949A0680860AB
:1049B0000121A26B20469047C8200090A56A0122E1
:1049C000034611462046A84738BD0000800000205D
:1049D00084000020704770470023012218461146CA
:1049E00010B500F01FF80120FCF7F4FD00230122B0
:1049F0001846022100F016F8002308221846032169
:104A000000F010F80122042100204FF40C7300F094
:104A100009F8BDE81040024840F23731FDF7C5BE45
:104A2000E40100201FB54FF0000410B1012802D0AE
:104A300002E0102400E008240748CDE902234FF4E7
:104A40008052CDE900146946FDF7C0FE002800D071
:104A5000012004B010BD0000E40100207047FCF705
:104A600017BF0000F0B5B7B0342124A8FBF72AFC2B
:104A7000142131A8FBF726FC90216846FBF722FCA5
:104A8000FDF734F92148016841F080510160006868
:104A900000F0805036901E48016841F440410160AA
:104AA00000680224012500F4404036906005192179
:104AB0004FF4D872CDE92A402CA82E0480E81600C5
:104AC0002F9424A8CDE92456FDF780FCFDF7D8F8F3
:104AD000E2024FF4A0510027CDE9341231AA0F2091
:104AE000072182E8910031A8FDF7A6FB082000907D
:104AF000C02168460322CDE90514CDE90727CDE999
:104B00000A56FDF7FBF837B0F0BD00004038024010
:104B100000700040104A30B51048146800210F4B57
:104B200044F470041460083305680D4A0D4C45F0D8
:104B30000105056019600368051D1340074A0360FD
:104B40000C322C600568E305034C25F480250560D4
:104B5000803C1160236030BD88ED00E000380240E9
:104B6000FFFFF6FE10300024F0B5274B4FF0804ECB
:104B7000264D02689842264E264F274C09D0704594
:104B800007D0A84205D0B04203D0B84201D0A0421D
:104B900005D1D1F804C022F070024CEA020298421A
:104BA0001BD0704519D0A84217D0B04215D0B842DA
:104BB00013D0A04211D0194DA8420ED0184DA842D2
:104BC0000BD0184DA84208D0174DA84205D0174D5C
:104BD000A84202D0164DA84203D1CD6822F44072FB
:104BE0002A434D6922F080022A43026098428A6873
:104BF000C2620A68826201D0A04201D109690163E0
:104C000001214161F0BD00000000014000040040AE
:104C100000080040000C004000040140004001403A
:104C2000004401400048014000180040001C0040C2
:104C30000020004042EA032283680A4323F47F41B4
:104C40000A4382607047826822F070020A4342F091
:104C50000701816070470000F0B5026ADFF860C0AC
:104C6000184F22F00102DFF860E00262066A426833
:104C7000836926F002060D68B8428C6803EA0C03CB
:104C800023F0030344EA060445EA030501D0704516
:104C900005D1CB6824F00804234323F00404B84270
:104CA00001D0704505D122F44076D1E90532334375
:104CB0001A4342608561496841630462F0BD0000A7
:104CC0008FFFFEFF0000014000040140F0B5026AC2
:104CD000194E1A4C22F01002DFF864E00262056AF5
:104CE0004368826925F02005D1F808C0A0420F680A
:104CF00002EA060222F4407245EA0C1542EA072253
:104D000001D0704506D1CE6825F0800545EA06152C
:104D100025F04005A04201D0704507D1D1E90546F4
:104D200023F4406343EA840343EA860343608261D9
:104D3000496881630562F0BDFF8FFFFE00000140FE
:104D400000040140F0B5026A194F1A4E22F4807235
:104D5000DFF864E00262056A4368C26925F4007501
:104D6000D1F808C0B0420C6802EA070222F0030240
:104D700045EA0C2544EA020401D0704506D1CF680B
:104D800025F4006242EA072222F48065B04201D095
:104D9000704507D123F44052D1E9053642EA0312A7
:104DA00042EA06134360C4614968C1630562F0BD0D
:104DB0008FFFFEFF0000014000040140F0B5026AD1
:104DC000124B114F22F4805298420262046A4268E8
:104DD000C36924F400548E680D6803EA070323F4C2
:104DE000407344EA063443EA052302D0084DA84242
:104DF00004D14D6922F4804242EA85124260C361C7
:104E0000496801640462F0BDFF8FFFFE00000140AD
:104E100000040140F0B5026ADFF844C022F4803299
:104E20000262056A4268446D25F400350E896045CA
:104E30000C4F0B6804EA070445EA064543EA0403FD
:104E400002D0094CA04204D14C6922F4803242EADB
:104E5000042242604365496881650562F0BD000037
:104E6000000001408FFFFEFF00040140F0B5026A20
:104E7000DFF844C022F480120262046A4268436D83
:104E800024F400140E8960450C4F0D6803EA0703F3
:104E900044EA065443EA052302D0094DA84204D14E
:104EA0004D6922F4802242EA8522426043654968C6
:104EB000C1650462F0BD000000000140FF8FFFFEED
:104EC0000004014010B5036A046A23F00A0324F0C9
:104ED0000104046284690B4324F0F00141EA0211E9
:104EE0008161036210BD10B5036A23F010030362F1
:104EF0008369046A23F4704324F0A00443EA023275
:104F0000826144EA0111016210BD00002DE9FF4FEA
:104F100083B00E464F4907464FF478404F4DDDF8B9
:104F200050801024DDE910A908604BA0A021934611
:104F3000CDE900406B8828202A88FEF73FFE48A074
:104F4000A021CDE900406B8878202A88FEF736FE44
:104F500044A0B421CDE900406B8828202A88FEF7C0
:104F60002DFE41A0B421CDE900406B8878202A882D
:104F7000FEF724FE3DA0C821CDE900406B88282023
:104F80002A88FEF71BFE3AA0C821CDE900406B88B5
:104F900078202A88FEF712FE36A0DC21CDE90040F9
:104FA0006B8828202A88FEF709FE33A0DC21CDE992
:104FB00000406B8878202A88FEF700FE2FA0F021A1
:104FC000CDE900406B8828202A88FEF7F7FD0423EE
:104FD0003A46A02100944020FEF7B4FD0423324657
:104FE000A02100949020FEF7ADFD04235A46B42181
:104FF00000944020FEF7A6FD069A0423B4210094F5
:105000009020FEF79FFD04235246C82100944020C3
:10501000FEF798FD04234A46C82100949020FEF72D
:1050200091FD129A0423DC2100944020FEF78AFDB2
:10503000139A0423DC2100949020FEF783FD0323C0
:105040004246F02100946020FEF77CFD07B0BDE8E9
:10505000F08F00008000002078313A0080050020A9
:1050600079313A0078323A0079323A0078333A00AE
:1050700079333A0078343A0079343A006661632033
:1050800069733A002DE9F04FDFF80CB41F200024BB
:105090004FF6FF775E4625462DED0C8B89B0CBF899
:1050A0000000FE4807603846FEF764F84FF4784881
:1050B0003846C6F80080FEF75DF8F948A246C6F803
:1050C00000A04FF01009282164230068A022CDE938
:1050D00000900846FEF772FD14214246084600F093
:1050E000BBFAF04E9FEDF00A9FEDF08B9FEDF19B28
:1050F0009FEDF2ABDFF8CC83A6F834A04FF47A7AB8
:1051000086ED0E0A716801208847B08EC0F38111C8
:10511000012947D120F04002B28605A8B28900EBF0
:105120008403611C20F82420308C0025CCB25880E8
:10513000012C06D0022C11D0032C1FD0042C31D10D
:105140003EE014213A46084600F086FAB8F800001E
:105150004FF47842143880B2142121E0B8F80000EE
:1051600014213A46143880B200F076FAB8F80200FA
:105170004FF47842143881B2142011E0B8F80200DC
:105180003A46143881B2142000F066FAB8F80210DA
:105190004FF47842B8F800001439143889B280B25C
:1051A00000F05AFA0A2000F06DFF6D1CADB25545B3
:1051B000A8D900F08BFA09B0BDEC0C8BBDE8F08FDC
:1051C000BDF81400BDF81810411A00D54942BDF8C9
:1051D0001600BDF81A20801A00D5404249434043CA
:1051E000084400EE100AB8EE400B00F098FDBCEE4B
:1051F000C00BBDF8201010EE100A84B2BDF81C00E0
:10520000411A00D54942BDF81E00BDF82220801A7F
:1052100000D5404249434043084400EE100AB8EE2E
:10522000400B00F07CFDFCEEC00B00EE104A10EECF
:10523000900AF8EE400A80B200EE100AB8EE400A7A
:1052400080EE801AB7EEC1BAB4EEC8BBF1EE10FA28
:1052500046D3B4EEC9BBF1EE10FA41DC002C3FD0CE
:10526000F0B3BDF81400BDF81C10401A00D5404240
:10527000BDF81610BDF81E20891A00D549424043DA
:1052800001FB010000EE100AB8EE400B00F047FDF4
:10529000BCEEC00BBDF8201010EE100A84B2BDF8B1
:1052A0001800401A00D54042BDF81A10BDF822205F
:1052B000891A00D54942404301FB010000EE100A63
:1052C000B8EE400B00F02BFDFCEEC00B00EE104AD8
:1052D000B0EE48CB10EE900AF8EE400A80B200E043
:1052E00046E000EE100AB8EE400A80EE801AB7EEF3
:1052F000C1BAB4EECCBBF1EE10FA06D3B0EE49DB86
:10530000B4EECDBBF1EE10FA56DDB8F80210002471
:10531000B8F800003A461439143889B280B200F067
:105320009BF914214FF47842084600F095F92BEED2
:105330000A0B0DF1040CBDF82230BDF81E00BDF8BB
:105340002020BCEEC00B10EE101A89B204918CE83C
:105350000D0000BFBDF81C000090BDF81A30BDF86C
:105360001820BDF81610BDF81400FFF7CFFDC9E6F0
:10537000B8F802100024B8F800003A46143914387E
:1053800089B280B200F068F914214FF478420846DF
:1053900000F062F92BEE0A0BBDF82030BDF8222098
:1053A000BDF81E10BCEEC00B10EE100A80B2CDE9A5
:1053B0000320CDE90113CDE7BDF81800BDF81C109E
:1053C000411A00D54942BDF81A00BDF81E20801AC6
:1053D00000D5404249434043084400EE100AB8EE6D
:1053E000400B00F09CFCBCEEC00BBDF8201010EE92
:1053F000100A84B2BDF81400411A00D54942BDF824
:105400001600BDF82220801A00D54042494340438F
:10541000084400EE100AB8EE400B00F080FCFCEEF1
:10542000C00B00EE104A10EE900AF8EE400A80B26F
:1054300000EE100AB8EE400A80EE801AB7EEC1BA4C
:10544000B4EECCBBF1EE10FA04D3B4EECDBBF1EE6A
:1054500010FA3CDDB8F802100024B8F800003A4613
:105460001439143889B280B200F0F6F814214FF4E0
:105470007842084600F0F0F82BEE0A0BBDF8200049
:10548000BDF82230BDF81E10CDE90110BCEEC00BF6
:1054900010EE102A92B217E0800000208400002055
:1054A000D8A900089000002000000000666666662B
:1054B0006666EE3FCDCCCCCCCCCCF03F00000000FB
:1054C0000000594080050020CDE9033242E7BDF8D5
:1054D0001820C446BDF81410B8F80000531A00EEA6
:1054E000103AA0F1280401EE104A114400EE901A7F
:1054F000B8EEC02A00EE100AF8EEC12AF8EE601AE3
:10550000F8EE400AB6EE001A82EE820A86ED0E0A26
:1055100040EE610ABDEEC00A60EE810AFDEEE00ACF
:1055200010EE901AA6F84010BCF80210BDF81E301C
:10553000BDF81620A1F1280C02EE90CA9C1A01EECB
:10554000904A00EE901AF8EEE22AB8EEE13AF8EE50
:10555000601A1A4402EE102AC2EE830AB8EE422AFA
:10556000C6ED0F0A40EEC21A21EE811ABDEEC11A35
:1055700011EE102AA6F8422010EE102A002A00DAB6
:105580005242022A08DCBDEEE00A10EE102A002A80
:1055900000DA5242022A2CDD14393A46143889B214
:1055A00080B2002400F058F814214FF478420846E5
:1055B00000F052F81CA12820CDE90091B8F8023083
:1055C0001A21B8F80020FEF7F9FA96F8440040B125
:1055D0005FF0000086F8440028B190221748D021DF
:1055E00004E00120F6E71548D022902102704170B6
:1055F00088E51F213846CBF80010FDF7BBFD10A150
:105600002320CDE90091B8F802306E21B8F80020CF
:10561000FEF7D4FA504600F035FD00F0ABF93846FD
:10562000FDF7A8FDC7E500005450204E65656420D5
:10563000726561646A757374210000008C0000203B
:10564000546F7563682053637265656E2041646AA8
:10565000757374204F4B21002DE9F04105461A481F
:105660000C46A5F10C012346026005F10D0082B243
:1056700088B21946FDF71CFE04F10D002A4683B2DC
:105680001046A4F10C0189B2FDF712FE671C6E1CD6
:10569000B9B2B0B2FDF758FEA5F10108B9B21FFAD0
:1056A00088F0FDF751FE671EB0B2B9B2FDF74CFEAF
:1056B000B9B21FFA88F0FDF747FE21462846BDE83B
:1056C000F0410622FDF775BE8000002010B53520A0
:1056D0002DED028BFAF7F0FE0A2803D00020BDEC76
:1056E000028B10BD04212820FAF7D2FE00EE100A2A
:1056F0009FED198A194C0421B8EEC00A2C20C0EE87
:10570000080AC4ED0E0A3834FAF7C2FE00EE100A99
:1057100002213020B8EEC00AC0EE080AC4ED010A2A
:10572000FAF7B6FE022120813220FAF7B1FE60813D
:105730003420FAF7C1FE00284FF090014FF0D0025C
:105740002073A4F13C0002D00170427001E00270AD
:1057500041700120C3E7000020BCBE4C9000002037
:1057600070B50C4C44F24230A080FBF779F90A4D39
:1057700070B1FEF78DFF0948686015F8440FA179F4
:1057800040F0800001F0010108432870002070BD46
:105790000348F1E78005002090000020AD47000895
:1057A000050C00082DE9F0472D4E002540218146CB
:1057B0002C462A463046FCF760F8DFF8A880002225
:1057C000082147464046FCF758F84FF4807A38469F
:1057D00000225146FCF751F8484600F065F90620D2
:1057E00000F05EFC002230464021FCF746F8012024
:1057F00000F056FC012230464021FCF73EF8012023
:1058000000F04EFC002230464021FCF736F8DFF86D
:1058100058904FF6FF7700BF00223046402107EA3C
:105820004404FCF72AF8012000F03AFC012230463B
:105830004021FCF722F808214846FCF719F808B186
:10584000641CA4B26D1CEDB2102DE5D324095146A1
:1058500001224046FCF711F82046BDE8F087000021
:10586000001C02400020024000180240FEB5002546
:1058700006466C463046FFF795FF691C24F8150074
:105880008DB2052DF6D30020411C0B460BE000BF66
:1058900034F8102034F81150AA4203D924F81050DB
:1058A00024F81120491C89B20529F1D398B20428A3
:1058B000EAD300215FF0010034F81020401C80B2D0
:1058C000114489B20428F7D30320B1FBF0F0FEBDE8
:1058D0002DE9F041074C0D4606462078FFF7C6FF3C
:1058E00007466078FFF7C2FF378028800120BDE8B7
:1058F000F08100008C0000207FB50C46054602A810
:105900006946FFF7E5FF00282FD001A903A8FFF79C
:10591000DFFF002829D0BDF80C30BDF808209342E5
:1059200003D803F13200824205D39A421FD802F114
:10593000320083421BD2BDF80410BDF80000814242
:1059400003D801F13206B04204D388420FD8323076
:1059500081420CD2D01840082880BDF80000BDF864
:105960000410084440082080012004B070BD0020CD
:10597000FBE7000010B51B4C042228202DED028B04
:105980009FED198A94ED0E0A383420EE080ABDEE18
:10599000C00A10EE101AFAF7B0FD94ED010A0422C5
:1059A0002C2020EE080ABDEEC00A10EE101AFAF7FD
:1059B000A4FDB4F9081002223020FAF79EFDB4F9D4
:1059C0000A1002223220FAF798FD217B3420FAF7E0
:1059D000A9FDBDEC028B0A213520BDE81040FAF785
:1059E000A1BD00009000002020BCBE4C70B58021FD
:1059F00005462B48FBF73CFF2A4C30B1A08E010630
:105A000042D520F08000A08645E0264A02F1200120
:105A100002F10C0015B1FFF76FFF2AE0FFF76CFFF2
:105A200038B3B4F94000A18900EE100A00EE901AD4
:105A300094ED0E1AB8EEC00AF8EE600A01EE200AE4
:105A4000BCEEC00A10EE100AA081B4F94200218C0D
:105A500000EE100A00EE901A94ED0F1AB8EEC00A8C
:105A6000F8EE600A01EE200ABCEEC00A10EE100A41
:105A7000208494F8340000060DD4C020A086A089AC
:105A8000A082208C208506E00021A18221854FF68E
:105A9000FF70A081208494F8340000F0800070BD75
:105AA000001C0240900000202DE9F041104F00241E
:105AB000104E0546280601D5012200E00022384696
:105AC0000821FBF7DAFE68060022050E3046402169
:105AD000FBF7D3FE012000F0E3FA0122304640211B
:105AE000FBF7CBFE641CE4B2082CE3D3BDE8F081E5
:105AF00000200240001C024010B5806B0021A0F87D
:105B00005A10A0F85210FDF760F810BD01680A683D
:105B100022F490720A6001688A6822F001028A60A9
:105B2000016E012904D101680A6822F010020A609E
:105B300000212022C2670166416670472DE9F047C7
:105B40009A4617460E460446089D4FF000094FF04E
:105B5000200839E0681C37D0FBF794FEA0EB0A0060
:105B6000A84222D80DB32068016849072CD5C06926
:105B7000C043000528D423684FF4006119622168EE
:105B80000B6823F4D0730B6021688B6823F001034A
:105B90008B60C4F87880C4F87C80C4F8808000BF33
:105BA000032084F87490BDE8F08721680B6823F423
:105BB000D0730B6021688B6823F001038B60C4F8FD
:105BC0007880C4F87C80EBE72068C06936EA000082
:105BD00004D00020B842BDD00020E4E70120F9E75E
:105BE000184838B50068C069C043800622D41548FB
:105BF00001224FF47A736946FDF702F912480188D1
:105C00000A0417D44A049DF800204FF0000304D57D
:105C10000A2A0ED141F4004112E00D2A0ED0094D9E
:105C2000C1F30D04491CC83D89B2C7292A5501801A
:105C300000D903800348FCF7C9FF38BD41F4804117
:105C40000180F7E7FC04002078000020FEE7000058
:105C50001648FDF779FD154C2046A1688847144A7F
:105C600004F11C001349FDF721FD04F11C05124A43
:105C700012492846EB6B984710492846EB6B1C31BC
:105C80000F4A98470D492846EB6B38310D4A984723
:105C9000E2682946204690476169204688470AA065
:105CA00000F01CF8216901488847FBE7D403002075
:105CB000A1490008D549000865050008200000201A
:105CC000810500089D050008B3F5CABCBBAFB1E46F
:105CD000C1BFCDEAB3C9210D0A0000000FB4054BC6
:105CE00010B503A9044A029800F062F810BC5DF8F0
:105CF00014FB0000D56000087C0000200907002884
:105D00004FEA116104DB00F1E02080F800147047D5
:105D100000F00F0000F1E02080F8141D704700B57E
:105D20002DED028B83B0B1EEC08B18EE100A18EE89
:105D3000901A8DED008B002818BF0120084320F039
:105D40000040C0F17F6000F1E040C00F14D010EEC1
:105D5000101A10EE900A8DED000B002918BF0121DA
:105D6000084320F00040C0F17F6000F1E040C00F28
:105D700004BF012000F016F8B0EE480B03B0BDECF4
:105D8000028B00BD02E008C8121F08C1002AFAD128
:105D900070477047002001E001C1121F002AFBD1AB
:105DA000704700000149086070470000E0000020D3
:105DB0002DE9FF4F8DB09B460F460446002606E0B6
:105DC00025280BD05A460F999047641C761C2078E2
:105DD0000028F5D111B03046BDE8F08F0025A84667
:105DE0000122984900E0054314F8013F203B02FAE4
:105DF00003F00842F7D120782E2817D114F8010FAC
:105E000045F004052A280ED06FF02F022078A0F16B
:105E1000300109290AD808EB880102EB410100EBA7
:105E20000108641CF2E757F8048B641C20786C2886
:105E30000DD004DC4C2812D06A2811D104E074285B
:105E40000DD07A280CD10AE045F4001507E06178FE
:105E500045F48015814202D1641C05F58015641C4F
:105E60002278692A45D008DC002AB3D0582A69D0A4
:105E7000632A10D0642A08D13BE0702A67D0732AC5
:105E800013D0752A5CD0782A5CD010465A460F99F8
:105E90009047761CD3E017F8040B8DF80000002023
:105EA0008DF80100E946012003E057F8049B4FF00C
:105EB000FF3069074FF0000501D40AE06D1C45452D
:105EC0000DDA8542FADB19F805100029F6D106E053
:105ED0006D1C8542FCDB19F805100029F8D12E4411
:105EE00004E019F8010B5A460F9990476D1EF8D23D
:105EF000A5E00A200021CDE90801C5F302500228DF
:105F00000DD001CFC117031E71F100030DDA4FF060
:105F1000000CD0EB0C006CEB01012D2308E0FF1D01
:105F200027F00707F7E80201EDE72B0504D52B233F
:105F30008DF8283001233BE0EB0739D02023F7E729
:105F40000A2000E010200021CDE9080107E0102020
:105F5000002145F00405CDE908014FF00808C5F31C
:105F6000025002280FD001CF00214FF0000A2B076A
:105F70001FD5702A0DD0DDE908C38CF0100C5CEA47
:105F8000030C0CD015E0FF1D27F00707F7E802010E
:105F9000EBE740228DF828204FF0010A0BE050EA91
:105FA000010306D030238DF828308DF829200223F4
:105FB0009A46582A04D024A20DF120090B9209E038
:105FC00026A2F9E7DDE90823FAF732F90B9B9B5C7F
:105FD00009F8013D50EA0102F4D1ADEB090020308F
:105FE0000890680701D44FF001080899884502DD40
:105FF000A8EB010000E000208046002506E00AA88A
:106000005A46405D0F9990476D1C761C5545F6DB4E
:1060100004E030205A460F999047761CB8F10001F1
:10602000A8F10108F5DC05E019F8010B5A460F99B3
:106030009047761C0899481E08900029F4DC641CDF
:10604000C5E60000092801003031323334353637D7
:1060500038396162636465660000000030313233B4
:106060003435363738394142434445460000000054
:1060700010B504460420FCF7C1FB0148046010BDC4
:106080007400002070B5002405464FF47A7603E0D2
:10609000304600F005F8641CAC42F9D370BD000036
:1060A0000B49002270B54FF0E02409686569484348
:1060B000A369A1699942FCD002D2A3EB010302E0DB
:1060C000A5EB010633441A440B468242F1D370BD5E
:1060D000740000200349CA695206FCD5C2B28A6224
:1060E0007047000000100140FBF7DAFBFEF7BAFC36
:1060F000FEF710F8FDF7C2FFFDF79CFFFEF796F8DC
:10610000FDF7D2FFFDF766FFFEF700F9FDF7CCFFC4
:106110000A48FEF761FCFEF789F8FDF74DFAD82032
:10612000FFF7A6FF06480068804706494FF478400D
:10613000C1F80000FFF78CFDFCE70000E40100203F
:106140009000002080000020F0B50B30154D20F0AD
:1061500007010024144A0FE003688B420BD38B42E3
:1061600005D95E1A43184768C3E9006700E0436831
:10617000136002C004E0021D10680028ECD1204624
:10618000002802D1286808B10020F0BD064A07485F
:106190001060074A121A22F00702C0E90024012009
:1061A0002860D7E7DC000020D800002094050020FC
:1061B00090070020000610160006101600000000D0
:1061C00000000000010203040607080900000000A7
:1061D0000000000000000000000000003F40000040
:1061E00000000000000030004000300040000000CF
:1061F00009000BC03D000BC03D00090018C0244041
:106200007FE0224031800000180024C01B000D8078
:106210003240018003801C4027401C800740004022
:1062200010006000000000000000000000000000FE
:1062300000001F80204040200000402020401F80A0
:1062400000000000090006001F8006000900000091
:10625000040004003F8004000400000000100060FF
:10626000000000000000000004000400040004001E
:1062700004000000000000400000000000000000DA
:10628000002001C006003800400000001F802040B0
:10629000204020401F800000000010403FC0004010
:1062A0000000000018C02140224024401840000097
:1062B00010802040244024401B80000002000D007C
:1062C00011003FC0014000003C8024402440244095
:1062D000238000001F8024402440344003800000BD
:1062E0003000200027C03800200000001B80244020
:1062F000244024401B8000001C0022C02240224079
:106300001F800000000000000840000000000000A6
:106310000000000004600000000000000000040015
:106320000A0011002080404009000900090009000E
:106330000900000000004040208011000A00040015
:106340001800200023402400180000001F80204077
:10635000274029401F400000004007C039000F00BF
:1063600001C0004020403FC0244024401B8000006A
:106370001F802040204020403080000020403FC04F
:10638000204020401F80000020403FC024402E407D
:1063900030C0000020403FC024402E0030000000EC
:1063A0000F001080204022403380020020403FC078
:1063B000040004003FC02040204020403FC0204057
:1063C000204000000060202020203FC0200020004E
:1063D00020403FC024400B0030C0204020403FC040
:1063E00020400040004000C03FC03C0003C03C00D3
:1063F0003FC0000020403FC00C4023003FC02000B1
:106400001F802040204020401F80000020403FC0CF
:1064100024402400180000001F802140214020E07B
:106420001FA0000020403FC02440260019C00040AB
:1064300018C0244024402240318000003000204019
:106440003FC020403000000020003F80004000405E
:106450003F80200020003E0001C0070038002000DF
:10646000380007C03C0007C038000000204039C099
:10647000060039C0204000002000384007C03840E6
:1064800020000000304021C02640384020C00000DD
:10649000000000007FE0402040200000000070006D
:1064A0000C000380004000000000402040207FE0FE
:1064B000000000000000200040002000000000005C
:1064C000001000100010001000100010000000006C
:1064D0004000000000000000000002800540054070
:1064E00003C0004020003FC004400440038000007F
:1064F00000000380044004400640000000000380C8
:10650000044024403FC00040000003800540054097
:1065100003400000000004401FC02440244020002D
:10652000000002E0055005500650042020403FC006
:106530000440040003C000400000044027C00040A5
:106540000000000000100010041027E00000000010
:1065500020403FC00140070004C0044020402040CC
:106560003FC000400040000007C0040007C0040016
:1065700003C00000044007C00440040003C0004002
:10658000000003800440044003800000041007F072
:1065900004500440038000000000038004400450C5
:1065A00007F00010044007C002400400040000008F
:1065B000000006400540054004C000000000040043
:1065C0001F80044000400000040007800040044099
:1065D00007C000400400070004C00180060004005A
:1065E000060001C0070001C006000000044006C00C
:1065F000010006C0044000000410071004E0018000
:10660000060004000000044005C0064004400000ED
:106610000000000004007BE04020000000000000BB
:106620000000FFF000000000000040207BE00400BC
:1066300000000000400080004000200020004000DA
:10664000000000000000000000000000000000004A
:106650000000000000001FCC000C00000000000043
:1066600000000800300060000800300060000000FA
:10667000022003FC1E20022003FC1E20022000003A
:1066800000000E1811043FFF10840C780000000079
:106690000F0010840F3800C00778188400780000BD
:1066A00000780F8410C411240E9800E400840008C0
:1066B00008006800700000000000000000000000FA
:1066C00000000000000007E018182004400200004D
:1066D000000040022004181807E00000000000003D
:1066E0000240024001800FF00180024002400000A1
:1066F0000080008000800FF8008000800080000093
:106700000001000D000E000000000000000000006D
:1067100000000080008000800080008000800080F9
:106720000000000C000C0000000000000000000051
:10673000000000060018006001800600180020001C
:10674000000007F0080810041004080807F0000013
:106750000000080408041FFC0004000400000000FE
:1067600000000E0C10141024104411840E0C0000B4
:1067700000000C1810041104110412880C700000A1
:10678000000000E00320042408241FFC0024000073
:1067900000001F981084110411041088107000006C
:1067A000000007F008881104110418880070000028
:1067B00000001C00100010FC13001C001000000062
:1067C00000000E3811441084108411440E3800006B
:1067D00000000700088C10441044088807F00000EF
:1067E000000000000000030C030C0000000000008B
:1067F0000000000000010106000000000000000091
:10680000000000800140022004100808100400006D
:10681000022002200220022002200220022000008A
:10682000000010040808041002200140008000004D
:1068300000000E001200100C106C10800F00000001
:1068400003E00C1813E4142417C4082807D0000030
:106850000004003C03C41C40074000E4001C00048A
:1068600010041FFC1104110411040E8800700000B4
:1068700003E00C1810041004100410081C10000091
:1068800010041FFC100410041004080807F0000096
:1068900010041FFC1104110417C410040818000090
:1068A00010041FFC1104110017C0100008000000A4
:1068B00003E00C181004100410441C780040000081
:1068C00010041FFC10840080008010841FFC100442
:1068D0000000100410041FFC10041004000000004D
:1068E00000030001100110011FFE10001000000045
:1068F00010041FFC110403801464181C1004000011
:1069000010041FFC1004000400040004000C00002C
:1069100010041FFC1F0000FC1F001FFC10040000DF
:1069200010041FFC0C04030000E010181FFC1000F2
:1069300007F00808100410041004080807F000000D
:1069400010041FFC10841080108010800F000000C5
:1069500007F0081810241024101C080A07F2000081
:1069600010041FFC1104110011C011300E0C0004A2
:1069700000000E1C11041084108410441C38000008
:106980001800100010041FFC100410001800000074
:1069900010001FF810040004000410041FF8100079
:1069A00010001E0011E0001C007013801C0010007D
:1069B0001FC0103C00E01F0000E0103C1FC00000A2
:1069C0001004180C163401C001C01634180C100441
:1069D00010001C00130400FC13041C001000000035
:1069E0000804101C1064108413041C041018000008
:1069F0000000000000007FFE400240024002000054
:106A0000000030000C0003800060001C0003000048
:106A100000004002400240027FFE00000000000033
:106A20000000000020004000400040002000000066
:106A3000000100010001000100010001000100014E
:106A400000004000400020000000000000000000A6
:106A500000000098012401440144014400FC0004AA
:106A600010001FFC00880104010400880070000071
:106A70000000007000880104010401040088000087
:106A80000000007000880104010411081FFC0004CC
:106A9000000000F8014401440144014400C8000022
:106AA0000000010401040FFC11041104110018007E
:106AB000000000D601290129012901C901060000B1
:106AC00010041FFC008401000100010400FC00040C
:106AD00000000104190419FC000400040000000077
:106AE0000000000300010101190119FE000000006F
:106AF00010041FFC0024004001B4010C010400003C
:106B00000000100410041FFC00040004000000003A
:106B1000010401FC0104010001FC0104010000FC6E
:106B2000010401FC008401000100010400FC0004D8
:106B3000000000F8010401040104010400F8000051
:106B4000010101FF008501040104008800700000BC
:106B500000000070008801040104010501FF00012C
:106B60000104010401FC0084010401000180000013
:106B7000000000CC0124012401240124019800001C
:106B800000000100010007F80104010400000000FA
:106B9000010001F8000400040004010801FC0004E5
:106BA000010001800170000C0010016001800100F3
:106BB00001F0010C003001C00030010C01F00100B7
:106BC00000000104018C00740170018C01040000BC
:106BD000010101810171000E0018016001800100B6
:106BE00000000184010C013401440184010C000007
:106BF000000000000000000001003EFC40024002D6
:106C00000000000000000000FFFF00000000000086
:106C10000000400240023EFC0100000000000000B5
:106C20000000600080008000400040002000200044
:106C30000000000000000000000000000000000054
:106C40000000000000000000000000000000000044
:106C50000000000000000000000000000000000034
:106C60000000000F80380FFE380F80380000000051
:106C70000000000000000000000000000000010013
:106C8000000600000C000038000031000006000083
:106C90000C00003800003000000000000000000080
:106CA00061800067F807F980006180006180006101
:106CB000800061800067F807F980006180000000B3
:106CC00000000000000001C0E003E0F0063008040E
:106CD00018081FFFFE040E080787F00381E000007C
:106CE0000000000001F000060C00040408060C700F
:106CF00001F9C0000E00003BE000EC180708080492
:106D00000C180003E00000000001E00007F003F8A9
:106D100018041C0804170807E1D003C0E00023B0E2
:106D2000003C0800200800001000000000000001E6
:106D300000003100003200001C00000000000000D4
:106D40000000000000000000000000000000000043
:106D50000000000000000000000000000000000033
:106D60007F0001FFC00780F00C0018100004200015
:106D7000020000000000002000021000040C0018B7
:106D80000780F001FFC0007F00000000000000004D
:106D9000000000000000000000000000420000664B
:106DA00000006600003C0000180003FFC00018004F
:106DB000003C000066000066000042000000000089
:106DC000080000080000080000080000080001FF9B
:106DD000C0000800000800000800000800000800CB
:106DE00000000000000100003100003200001C0023
:106DF0000000000000000000000000000000000093
:106E0000000000000000000008000008000008006A
:106E1000000800000800000800000800000800004A
:106E20000800000800000000000000000000000052
:106E300038000038000038000000000000000000AA
:106E40000000000000000000000000000000000042
:106E5000000600001C000070000180000E000038D9
:106E60000000C0000700001C00003000000000000F
:106E7000000000007F8001FFE0038070060018041E
:106E8000000804000806001803807001FFE0007F7E
:106E90008000000000000000000001000801000860
:106EA00001000803FFF807FFF800000800000800D1
:106EB000000800000000000000000001C03802C00F
:106EC00058040098040118040218040418061C1839
:106ED00003F81801E0F800000000000000000001C5
:106EE000C0E003C0F00400080408080408080618FD
:106EF0000803F41801E7F00001E0000000000000C2
:106F0000000000000300000D0000110000610000FF
:106F1000810803010807FFF80FFFF80001080001CE
:106F2000080000000000000000E007FCD006080890
:106F3000061008061008061008061838060FF00696
:106F400007C0000000000000000000003F8001FFBB
:106F5000E003843002081804100804100804100824
:106F6000071810030FF00007C00000000000000029
:106F7000000003C0000700000600000600F8060736
:106F8000F806180006E000070000060000000000F8
:106F900000000001E1E003F7F006341004180804D3
:106FA0001808040C08040C0806161803F3F001C1B5
:106FB000E000000000000000F80003FC3003063889
:106FC0000402080402080402080404100308F00183
:106FD000FFC0007F00000000000000000000000073
:106FE00000000000000000007038007038007038A9
:106FF0000000000000000000000000000000000091
:10700000000000000000000000000000301A003006
:107010001C00000000000000000000000000000054
:107020000000000000000008000014000022000022
:107030004100008080010040020020040010080090
:1070400008000000000000002100002100002100D5
:10705000002100002100002100002100002100008B
:1070600021000021000000000000000000000800D6
:107070000804001002002001004000808000410050
:1070800000220000140000080000000000000003BF
:10709000C00004C000040000080038080F380808C9
:1070A000380810000C300007E00003C000000000AA
:1070B000000000003F8000FFE0038070020F100618
:1070C000708804C088048308047F8802C09003018C
:1070D0002000FE400000080000180001F8003E08F3
:1070E00001C20007020007E20000FE00001FC80006
:1070F00001F800003800000804000807FFF807FF47
:10710000F804080804080804080804080806180811
:1071100003F41801E7F00001E000000000000000A7
:107120003F8001FFE00380700200180400080400A3
:10713000080400080400100600200780C0000000BA
:1071400004000807FFF807FFF8040008040008041B
:10715000000804001802001003807001FFE0007FA7
:107160008000000004000807FFF807FFF804080883
:10717000040808040808040808043E080400080677
:10718000001801006000000004000807FFF807FF76
:10719000F8040808040800040800040800043E007D
:1071A0000600000600000180000000000000000052
:1071B0003F8001FFE003807006001804000804020D
:1071C000080402080203F00783F000020000020036
:1071D00004000807FFF807FFF8040808000800008B
:1071E000080000080000080004080807FFF807FF6F
:1071F000F804000800000000000004000804000873
:1072000004000807FFF807FFF8040008040008045A
:107210000008000000000000000000000006000060
:107220000700000104000104000104000307FFFE41
:1072300007FFFC040000040000040000040008072D
:10724000FFF807FFF8040C08001800003E0004C710
:10725000800503C80600F804003804001800000880
:1072600004000807FFF807FFF80400080000080002
:1072700000080000080000080000080000180000D6
:107280006000000004000807FFF807800807FC0002
:10729000007FC00003F80007C000780007800807DF
:1072A000FFF807FFF804000804000807FFF80700CC
:1072B0000803C00000E000003800001E00000700C6
:1072C0000001C00400F007FFF80400000000000007
:1072D0007F8001FFE00380700600180400080400AE
:1072E0000806001803003001FFE0007F8000000066
:1072F00004000807FFF807FFF8040408040400046A
:107300000400040400040400060C0003F80001F06B
:1073100000000000000000007F8001FFE00380709B
:107320000600880400880400C806003C03003E01F3
:10733000FFE6007F8400000004000807FFF807FF55
:10734000F8040808040800040C00040F00040BC033
:107350000610F003F03801E008000008000000010A
:10736000E0F803F030063010041808041808040C84
:1073700008040C080206180207F00781E00000006C
:10738000018000060000040000040000040008075B
:10739000FFF807FFF80400080400000400000600DE
:1073A0000001800004000007FFE007FFF004001860
:1073B00000000800000800000800000800000804A1
:1073C000001007FFE004000004000006000007E0D2
:1073D0000007FE00041FE00001F80000380001E093
:1073E000043E0007C000060000040000040000077F
:1073F000E00007FFC0041FF80007C007F80007FF00
:1074000080043FF80007C004F800070000040000F3
:1074100000000004000806001807C07805F1C80045
:107420003E00001F800463E80780F806001804008F
:107430000800000004000006000007800007E008C4
:10744000047C08001FF80007F800180804E008078B
:107450000000060000040000000000010008060013
:10746000380400F80403E8040F08047C0805F00859
:1074700007C00807001804006000000000000000BA
:1074800000000000000000000000003FFFFE2000A0
:107490000220000220000220000220000200000062
:1074A00000000000000008000007000000C000000D
:1074B00038000006000001C000003000000E00008F
:1074C0000100000000000000000020000220000277
:1074D0002000022000022000023FFFFE000000000A
:1074E000000000000000000000000000000000009C
:1074F00000080000100000300000200000300000F4
:107500001000000800000000000000000000010062
:107510000001000001000001000001000001000066
:107520000100000100000100000100000100000155
:1075300000000000000000000020000020000010FB
:10754000000010000000000000000000000000002B
:10755000000000000000000000F00019F8001B18F7
:10756000002208002608002408002410003FF8002C
:107570001FF800000800001800000004000007FFCA
:10758000F80FFFF00018180010080020080020086D
:10759000003018001FF0000FC000000000000000C5
:1075A00007C0001FF000183000200800200800204D
:1075B00008003C08001C10000060000000000000F3
:1075C0000000000007C0001FF0003818002008006D
:1075D000200800200804101007FFF80FFFF000003B
:1075E000100000000000000000000007C0001FF0B5
:1075F0000012300022180022080022080032080081
:107600001E10000E200000000000000020000020DE
:107610000800200801FFF803FFF8062008042008EE
:107620000420080720000300000000000000000004
:10763000000E000E6E001FF30031B10020B10020DB
:10764000B1003191001F13002E1E00200E003000EB
:1076500000000004000807FFF80FFFF80010080002
:107660002000002000002008003FF8001FF8000064
:1076700008000000000000000000002008002008B2
:10768000002008063FF8063FF80000080000080048
:1076900000080000000000000000000000000000E2
:1076A00003000003002001002001002003063FFE2C
:1076B000063FFC0000000000000000000000000485
:1076C000000807FFF80FFFF8000188000300002FF3
:1076D000C00038F800203800200800000800000032
:1076E000000000000000040008040008040008076F
:1076F000FFF80FFFF8000008000008000008000075
:1077000000000000002008003FF8003FF8001008CB
:10771000002000003FF8003FF800100800200000A3
:107720003FF8003FF8000008000000002008003F7C
:10773000F8003FF8001008001000002000002008AA
:10774000003FF8001FF800000800000000000000E3
:1077500007C0000FF000183000300800200800209B
:1077600008003008001830000FF00007C0000000CB
:10777000000000002001003FFF003FFF001011004B
:107780002009002008002008003038001FF0000FFA
:10779000C00000000000000007C0001FF000381803
:1077A000002008002008002009001011001FFF0021
:1077B0003FFF00000100000000200800200800201A
:1077C00008003FF8003FF8000808001008002008F3
:1077D0000020000030000030000000000000000029
:1077E0000000000C78001E18003308002308002158
:1077F000080021880021980030F000386000000067
:1078000000000000200000200000200000FFF00326
:10781000FFF80020080020080020080000300000C9
:1078200000000000000000002000003FF0007FF892
:10783000000018000008000008002010003FF800B9
:107840007FF0000010000000000000002000003069
:1078500000003C00003F800023F000007800007032
:10786000002380003C0000300000200000200000C9
:107870003C00003FE00023F80000E0002700003E4D
:1078800000003FE00021F80001E0003E0000200081
:10789000000000002008002008003838003E680082
:1078A00027800003C8002CF800383800201800207A
:1078B00008000000000000002000003003003C0130
:1078C000003F830023EC000070002380003C000098
:1078D0002000002000000000000000000000003830
:1078E000080020380020F80023E8002F88003E0818
:1078F00000380800201800007000000000000000A0
:10790000000000000000000000000000080000145B
:10791000001FF7FC300006200002000000000000FD
:107920000000000000000000000000000000000057
:107930000000FFFFFF00000000000000000000004A
:1079400000000000000000000000200002300006DF
:107950001FF7FC00140000080000000000000000F9
:10796000000000000000000000000018000060009F
:10797000004000004000002000001000000800004F
:107980000400000400000C000010000000000000D3
:1079900000000000000000000000000000000000E7
:1079A00000000000000000000000000000000000D7
:1079B00000000000000000000000000000000000C7
:1079C00000000000000000000000000000000000B7
:1079D00000000000000000000000000000000000A7
:1079E0000000000000000000000000000000000097
:1079F0000000000000000000000000000000000087
:107A00000000000000000000000000000000000076
:107A10000000000000000000000000000000000066
:107A20000000000007F000C007FFE1E007F001E000
:107A3000000000C000000000000000000000000086
:107A40000000000000000000000000000000000036
:107A50000000000000000000000000000000000026
:107A60000000000000000000000000000000000016
:107A70000000000000000000000000000000000006
:107A800000000000000000000000000000000000F6
:107A9000000000000020000001C00000078000007E
:107AA0001F0000001E0000001C20000001C000009C
:107AB000078000001F0000001E0000001C000000E6
:107AC00000000000000000000000000000000000B6
:107AD00000000000000000000000000000000000A6
:107AE0000000000000000000000000000000000096
:107AF0000000000000000000000000000000000086
:107B00000000000000000000000000000000000075
:107B100000180C0000180C0000180FE0001FFC00FB
:107B200003F80C0000180C0000180C0000180C00E2
:107B300000180C0000180FE0001FFC0003F80C00F8
:107B400000180C0000180C000000000000000000ED
:107B50000000000000000000000000000000000025
:107B60000000000000000000000000000000000015
:107B70000000000000000000000000000000000005
:107B800000000000000000000000000000000000F5
:107B90000000000000000780007807C000FC0640DD
:107BA000010E002003070020020380200FFFFFFCCE
:107BB0000201C0200200E0600130704001F03F800F
:107BC00000F01F00000000000000000000000000A6
:107BD00000000000000000000000000000000000A5
:107BE0000000000000000000000000000000000095
:107BF0000000000000000000000000000000000085
:107C000000000000000000000000000000FE000076
:107C100001FF00000301800002008060030181C0B9
:107C200001FF070000FE18000000E0000003BF0095
:107C3000000CFFC00071806001C100200301806062
:107C40000000FFC000003F00000000000000000036
:107C50000000000000000000000000000000000024
:107C60000000000000000000000000000000000014
:107C70000000000000000000000000000000000004
:107C800000000000000000000000000000001F00D5
:107C900000007FC000FCC0C001FF80600303E02043
:107CA0000202782002061E2003FC074001F0038038
:107CB000000103C000011C600001E0200001002061
:107CC00000010040000001800000000000000000F2
:107CD00000000000000000000000000000000000A4
:107CE0000000000000000000000000000000000094
:107CF0000000000000000000000000000000000084
:107D00000000000000000000000000000000000073
:107D1000002000001C6000001C4000001F800000CC
:107D20000F00000000000000000000000000000044
:107D30000000000000000000000000000000000043
:107D40000000000000000000000000000000000033
:107D50000000000000000000000000000000000023
:107D60000000000000000000000000000000000013
:107D70000000000000000000000000000000000003
:107D800000000000000000000000000000000000F3
:107D900000000000000000000000000000000000E3
:107DA00000000000000000000007F800003FFF0096
:107DB000007807C001C000E00300003004000008A4
:107DC0000800000410000002000000000000000095
:107DD00000000000000000000000000000000000A3
:107DE0000000000000000000000000000000000093
:107DF0000000000000000000000000000000000083
:107E00000000000000000000000000000000000072
:107E10001000000208000004040000080300003005
:107E200001C000E0007807C0003FFF000007F80035
:107E30000000000000000000000000000000000042
:107E40000000000000000000000000000000000032
:107E50000000000000000000000000000000000022
:107E60000000000000000000000000000000000012
:107E70000000000000000000000000000000000002
:107E800000000000000000000000000000000000F2
:107E900000000000000C1800000E3800000E380032
:107EA00000063000000360000061438000FFFF8097
:107EB000006143000003600000063000000E38003F
:107EC000000E3800000C1800000000000000000048
:107ED00000000000000000000000000000000000A2
:107EE0000000000000000000000000000000000092
:107EF0000000000000000000000000000000000082
:107F00000000000000000000000000000000000071
:107F100000000000000080000000800000008000E1
:107F2000000080000000800000008000007FFF0053
:107F30000000800000008000000080000000800041
:107F40000000800000008000000000000000000031
:107F50000000000000000000000000000000000021
:107F60000000000000000000000000000000000011
:107F70000000000000000000000000000000000001
:107F800000000000000000000000000000000000F1
:107F900000000001000000E3000000E2000000FC1F
:107FA0000000007800000000000000000000000059
:107FB00000000000000000000000000000000000C1
:107FC00000000000000000000000000000000000B1
:107FD00000000000000000000000000000000000A1
:107FE0000000000000000000000000000000000091
:107FF0000000000000000000000000000000000081
:108000000000000000000000000000000000000070
:108010000000800000008000000080000000800060
:108020000000800000008000000080000000800050
:108030000000800000008000000080000000800040
:108040000000800000008000000000000000000030
:108050000000000000000000000000000000000020
:108060000000000000000000000000000000000010
:108070000000000000000000000000000000000000
:1080800000000000000000000000000000000000F0
:1080900000000000000000C0000001E0000001E05E
:1080A000000000C000000000000000000000000010
:1080B00000000000000000000000000000000000C0
:1080C00000000000000000000000000000000000B0
:1080D00000000000000000000000000000000000A0
:1080E0000000000000000000000000000000000090
:1080F0000000000000000000000000000000000080
:10810000000000000000000000000000000000006F
:108110000000000C00000038000000E000000380B8
:1081200000000E00000038000000E00000038000A6
:10813000000E00000038000000E000000380000096
:108140000E00000018000000000000000000000009
:10815000000000000000000000000000000000001F
:10816000000000000000000000000000000000000F
:1081700000000000000000000000000000000000FF
:1081800000000000000000000000000000000000EF
:1081900000000000000FF800007FFF0000F00780E3
:1081A000018000C0030000600200002002000020E7
:1081B0000200002003000060018000C000E0038096
:1081C000007FFF00000FF80000000000000000002A
:1081D000000000000000000000000000000000009F
:1081E000000000000000000000000000000000008F
:1081F000000000000000000000000000000000007F
:10820000000000000000000000000000000000006E
:10821000000000000000000000800020008000201E
:10822000008000200080006001FFFFE003FFFFE00E
:10823000000000600000002000000020000000207E
:10824000000000000000000000000000000000002E
:10825000000000000000000000000000000000001E
:10826000000000000000000000000000000000000E
:1082700000000000000000000000000000000000FE
:1082800000000000000000000000000000000000EE
:1082900000000000007800E000980160010002602A
:1082A000020004600200086002001060020020600A
:1082B00002004060030080600183006001FE00E076
:1082C000007C0780000000000000000000000000AB
:1082D000000000000000000000000000000000009E
:1082E000000000000000000000000000000000008E
:1082F000000000000000000000000000000000007E
:10830000000000000000000000000000000000006D
:108310000000000000F0078001F007C001000040ED
:1083200002000020020100200201002002010020C2
:10833000030380200186804001FCC0C000787F805C
:1083400000001E000000000000000000000000000F
:10835000000000000000000000000000000000001D
:10836000000000000000000000000000000000000D
:1083700000000000000000000000000000000000FD
:1083800000000000000000000000000000000000ED
:1083900000000800000038000000480000018800CC
:1083A00000060800000C08100030081000400810FB
:1083B00001FFFFF003FFFFF003FFFFF000000810D4
:1083C000000008100000081000000000000000007D
:1083D000000000000000000000000000000000009D
:1083E000000000000000000000000000000000008D
:1083F000000000000000000000000000000000007D
:10840000000000000000000000000000000000006C
:108410000000000000000780001F864003E10020EC
:1084200003020020030400200304002003040020B2
:108430000304002003060040030301C00301FF8082
:1084400003007E00000000000000000000000000AB
:10845000000000000000000000000000000000001C
:10846000000000000000000000000000000000000C
:1084700000000000000000000000000000000000FC
:1084800000000000000000000000000000000000EC
:10849000000000000007FC00003FFF000070C380E8
:1084A000008180C001010060030200200202002060
:1084B00002020020020200200203004001C180C02D
:1084C00000C0FF8000007E000000000000000000EF
:1084D000000000000000000000000000000000009C
:1084E000000000000000000000000000000000008C
:1084F000000000000000000000000000000000007C
:10850000000000000000000000000000000000006B
:108510000000000000F0000003C000000380000025
:1085200003000000030007E003003FE00301C00078
:108530000306000003180000036000000380000031
:108540000300000000000000000000000000000028
:10855000000000000000000000000000000000001B
:10856000000000000000000000000000000000000B
:1085700000000000000000000000000000000000FB
:1085800000000000000000000000000000000000EB
:1085900000001F0000783F8000FC60C0018EC040DA
:1085A00003078020020300200201802002018020B6
:1085B0000201C0200301E040018670C000FC3F8042
:1085C00000781F0000000000000000000000000014
:1085D000000000000000000000000000000000009B
:1085E000000000000000000000000000000000008B
:1085F000000000000000000000000000000000007B
:10860000000000000000000000000000000000006A
:10861000003F000000FF81C001C0C1C00100602018
:108620000200202002002020020020200200206002
:10863000020040C00100C18000C18F00007FFE0029
:10864000001FF0000000000000000000000000001B
:10865000000000000000000000000000000000001A
:10866000000000000000000000000000000000000A
:1086700000000000000000000000000000000000FA
:1086800000000000000000000000000000000000EA
:1086900000000000000000000000000000000000DA
:1086A00000000000000300C0000781E0000781E037
:1086B000000300C0000000000000000000000000F7
:1086C00000000000000000000000000000000000AA
:1086D000000000000000000000000000000000009A
:1086E000000000000000000000000000000000008A
:1086F000000000000000000000000000000000007A
:108700000000000000000000000000000000000069
:108710000000000000000000000000000000000059
:10872000000000000006006600060078000000005F
:108730000000000000000000000000000000000039
:108740000000000000000000000000000000000029
:108750000000000000000000000000000000000019
:108760000000000000000000000000000000000009
:1087700000000000000000000000000000000000F9
:1087800000000000000000000000000000000000E9
:1087900000000000000080000001C0000003600035
:1087A00000063000000C180000180C000030060015
:1087B0000060030000C001800100004002000020B2
:1087C0000400001000000000000000000000000095
:1087D0000000000000000000000000000000000099
:1087E0000000000000000000000000000000000089
:1087F0000000000000000000000000000000000079
:108800000000000000000000000000000000000068
:108810000004100000041000000410000004100008
:1088200000041000000410000004100000041000F8
:1088300000041000000410000004100000041000E8
:108840000004100000041000000000000000000000
:108850000000000000000000000000000000000018
:108860000000000000000000000000000000000008
:1088700000000000000000000000000000000000F8
:1088800000000000000000000000000000000000E8
:108890000000000004000010020000200100004061
:1088A00000C00180006003000030060000180C00CA
:1088B000000C180000063000000360000001C0003A
:1088C0000000800000000000000000000000000028
:1088D0000000000000000000000000000000000098
:1088E0000000000000000000000000000000000088
:1088F0000000000000000000000000000000000078
:108900000000000000000000000000000000000067
:10891000000000000078000001F8000002380000AC
:1089200002000000040000C0040079E0040081E0BF
:10893000040100C00403000002020000030600005E
:1089400001FC000000F80000000000000000000032
:108950000000000000000000000000000000000017
:108960000000000000000000000000000000000007
:1089700000000000000000000000000000000000F7
:1089800000000000000000000000000000000000E7
:10899000000FF800003FFE000070078000C000C01C
:1089A0000101F8400307FC20021E042002300820C9
:1089B00002203020023FFC20013F044001800CC017
:1089C00000E03180001FC200000000000000000035
:1089D0000000000000000000000000000000000097
:1089E0000000000000000000000000000000000087
:1089F0000000000000000000000000000000000077
:108A00000000000000000000000000000000002046
:108A100000000060000003E000003E200003E020B2
:108A2000003E200003E020000380200007FC20001F
:108A3000003FE0000003FE2000003FE0000001E0F6
:108A400000000020000000200000000000000000E6
:108A50000000000000000000000000000000000016
:108A60000000000000000000000000000000000006
:108A700000000000000000000000000000000000F6
:108A800000000000000000000000000000000000E6
:108A9000020000200200002003FFFFE003FFFFE0D0
:108AA000020100200201002002010020020100203A
:108AB00002010020030300200186806001FCC0C089
:108AC00000F87F8000001F00000000000000000090
:108AD0000000000000000000000000000000000096
:108AE0000000000000000000000000000000000086
:108AF0000000000000000000000000000000000076
:108B00000000000000000000000000000000000065
:108B10000007F800003FFF000070078000C000C0A1
:108B2000010000400300002002000020020000209D
:108B3000020000200200002001000040018000C06F
:108B400003C00180003006000000000000000000AB
:108B50000000000000000000000000000000000015
:108B60000000000000000000000000000000000005
:108B700000000000000000000000000000000000F5
:108B800000000000000000000000000000000000E5
:108B9000020000200200002003FFFFE003FFFFE0CF
:108BA000020000200200002002000020020000203D
:108BB0000300006001000040018000C000F0078059
:108BC000007FFE00000FF800000000000000000021
:108BD0000000000000000000000000000000000095
:108BE0000000000000000000000000000000000085
:108BF0000000000000000000000000000000000075
:108C00000000000000000000000000000000000064
:108C1000020000200200002003FFFFE003FFFFE04E
:108C200002010020020100200201002002010020B8
:108C30000201002002038020020FE02003000060F8
:108C400003C000E00060030000000000000000001E
:108C50000000000000000000000000000000000014
:108C60000000000000000000000000000000000004
:108C700000000000000000000000000000000000F4
:108C800000000000000000000000000000000000E4
:108C9000020000200200002003FFFFE003FFFFE0CE
:108CA0000201002002010020020100000201000078
:108CB000020100000201000002038000030FE00037
:108CC0000300000003C0000000600000000000007E
:108CD0000000000000000000000000000000000094
:108CE0000000000000000000000000000000000084
:108CF0000000000000000000000000000000000074
:108D00000000000000000000000000000000000063
:108D10000007F800003FFE000070078001C001C09E
:108D2000010000400300002002000020020000209B
:108D300002000020010020200100204003C03F80ED
:108D400000303F80000020000000200000000000F4
:108D50000000000000000000000000000000000013
:108D60000000000000000000000000000000000003
:108D700000000000000000000000000000000000F3
:108D800000000000000000000000000002000020C1
:108D90000200002003FFFFE003FFFFE0020080204D
:108DA00002008020000080000000800000008000A1
:108DB000020080200200802003FFFFE003FFFFE0AD
:108DC000020000200200002000000000000000005F
:108DD0000000000000000000000000000000000093
:108DE0000000000000000000000000000000000083
:108DF0000000000000000000000000000000000073
:108E00000000000000000000000000000000000062
:108E1000000000000000000002000020020000200E
:108E2000020000200200002003FFFFE003FFFFE03C
:108E300002000020020000200200002002000020AA
:108E40000000000000000000000000000000000022
:108E50000000000000000000000000000000000012
:108E60000000000000000000000000000000000002
:108E700000000000000000000000000000000000F2
:108E800000000000000000000000000000000000E2
:108E90000000000E0000000F0000000F00000001A5
:108EA00002000001020000010200000302000006AF
:108EB00003FFFFFC03FFFFF80200000002000000B8
:108EC000020000000200000000000000000000009E
:108ED0000000000000000000000000000000000092
:108EE0000000000000000000000000000000000082
:108EF0000000000000000000000000000000000072
:108F00000000000000000000000000000000000061
:108F1000020000200200002003FFFFE003FFFFE04B
:108F20000200C0200201002000078000000FE000C6
:108F30000030F80002603E2003800F20030003E0B1
:108F4000020000E0020000200000002000000000FD
:108F50000000000000000000000000000000000011
:108F60000000000000000000000000000000000001
:108F700000000000000000000000000000000000F1
:108F800000000000000000000000000000000000E1
:108F9000020000200200002003FFFFE003FFFFE0CB
:108FA000020000200200002000000020000000203D
:108FB00000000020000000200000002000000060F1
:108FC000000000E0000003000000000000000000BE
:108FD0000000000000000000000000000000000091
:108FE0000000000000000000000000000000000081
:108FF0000000000000000000000000000000000071
:10900000000000000000000000000000020000203E
:109010000200002003FFFFE003E0002003FF002028
:10902000001FF0000001FF8000000FE000001E00A4
:109030000003E000003E002003E0002003FFFFE00B
:1090400003FFFFE0020000200200002000000000FB
:109050000000000000000000000000000000000010
:109060000000000000000000000000000000000000
:1090700000000000000000000000000000000000F0
:1090800000000000000000000000000002000020BE
:109090000200002003FFFFE00380002003F0002017
:1090A00000FC0000001F00000007C0000001F000ED
:1090B00000007C0002001F80020007E003FFFFE0C9
:1090C000020000000200000000000000000000009C
:1090D0000000000000000000000000000000000090
:1090E0000000000000000000000000000000000080
:1090F0000000000000000000000000000000000070
:10910000000000000000000000000000000000005F
:10911000000FF800003FFE0000F00780018000C053
:109120000100004002000020020000200200002098
:109130000200002001000040018000C000F0038018
:10914000003FFE00000FF8000000000000000000DB
:10915000000000000000000000000000000000000F
:1091600000000000000000000000000000000000FF
:1091700000000000000000000000000000000000EF
:1091800000000000000000000000000000000000DF
:10919000020000200200002003FFFFE003FFFFE0C9
:1091A0000200802002008020020080000200800077
:1091B00002008000020080000301800001830000A3
:1091C00000FE0000007C0000000000000000000025
:1091D000000000000000000000000000000000008F
:1091E000000000000000000000000000000000007F
:1091F000000000000000000000000000000000006F
:10920000000000000000000000000000000000005E
:10921000000FF800007FFF0000F00380018001C014
:109220000100064002000420020004200200062083
:10923000020003E0010000F80180005C00E0038C04
:10924000003FFF0C000FFC180000000000000000B1
:10925000000000000000000000000000000000000E
:1092600000000000000000000000000000000000FE
:1092700000000000000000000000000000000000EE
:1092800000000000000000000000000000000000DE
:10929000020000200200002003FFFFE003FFFFE0C8
:1092A0000201002002010020020180000201E00012
:1092B0000201FC0003033F80018607E001FC00E09F
:1092C00000F8002000000020000000000000000066
:1092D000000000000000000000000000000000008E
:1092E000000000000000000000000000000000007E
:1092F000000000000000000000000000000000006E
:10930000000000000000000000000000000000005D
:10931000000000000078060000FE01E0018600C0A9
:10932000030300400203002002018020020180208C
:109330000201C0200200C0200100E060018070C076
:1093400003E03F8000001F0000000000000000005C
:10935000000000000000000000000000000000000D
:1093600000000000000000000000000000000000FD
:1093700000000000000000000000000000000000ED
:1093800000000000000000000000000000000000DD
:1093900000600000038000000300000002000000E5
:1093A000020000200200002003FFFFE003FFFFE0B7
:1093B0000200002002000020020000000200000065
:1093C0000380000000E0000000000000000000003A
:1093D000000000000000000000000000000000008D
:1093E000000000000000000000000000000000007D
:1093F000000000000000000000000000000000006D
:10940000000000000000000000000000020000005A
:109410000200000003FFFF0003FFFFC00200004046
:10942000020000600000002000000020000000207A
:1094300000000020020000400200008003FFFF0047
:109440000200000002000000000000000000000018
:10945000000000000000000000000000000000000C
:1094600000000000000000000000000000000000FC
:1094700000000000000000000000000000000000EC
:1094800000000000000000000000000000000000DC
:10949000020000000200000003C0000003FC000006
:1094A000023FC0000003F80000007F80000007E0DA
:1094B00000000780000078000203C000023C0000AA
:1094C00003C00000020000000200000000000000D5
:1094D000000000000000000000000000000000008C
:1094E000000000000000000000000000000000007C
:1094F000000000000000000000000000000000006C
:109500000000000000000000000000000200000059
:1095100003C0000003FF8000023FFE0002007FE066
:1095200000000F000200F00003EF000003FF8000C6
:10953000020FFE0000003FE000001F000207E000F5
:1095400003F800000300000002000000000000001B
:10955000000000000000000000000000000000000B
:1095600000000000000000000000000000000000FB
:1095700000000000000000000000000000000000EB
:1095800000000000000000000000000000000000DB
:109590000200002002000020038000E003F003200E
:1095A00002FC0C20021F30000007C0000007F00082
:1095B00002187C0002601F20038003E0020000E02C
:1095C0000200002000000020000000000000000059
:1095D000000000000000000000000000000000008B
:1095E000000000000000000000000000000000007B
:1095F000000000000000000000000000000000006B
:10960000000000000000000000000000000000005A
:10961000020000000300000003C0000003F8000087
:10962000023E0020020FC0200001FFE000007FE0AA
:1096300000038020021C0020027000000380000054
:109640000200000002000000000000000000000016
:10965000000000000000000000000000000000000A
:1096600000000000000000000000000000000000FA
:1096700000000000000000000000000000000000EA
:1096800000000000000000000000000000000000DA
:1096900000000020006000E0038003E003000FA052
:1096A00002003E200200F8200203E020020F80208A
:1096B000023E00200278002003E00060038000E00A
:1096C0000200030000000000000000000000000095
:1096D000000000000000000000000000000000008A
:1096E000000000000000000000000000000000007A
:1096F000000000000000000000000000000000006A
:109700000000000000000000000000000000000059
:109710000000000000000000000000000000000049
:10972000000000001FFFFFFC1000000410000004F8
:1097300010000004100000041000000410000004D9
:109740001000000400000000000000000000000005
:109750000000000000000000000000000000000009
:1097600000000000000000000000000000000000F9
:1097700000000000000000000000000000000000E9
:1097800000000000000000000000000000000000D9
:1097900000000000000000000700000003C00000FF
:1097A00000780000001E00000003C0000000F00070
:1097B00000001E0000000780000000F00000003CD8
:1097C0000000000600000000000000000000000093
:1097D0000000000000000000000000000000000089
:1097E0000000000000000000000000000000000079
:1097F0000000000000000000000000000000000069
:109800000000000000000000000000000000000058
:10981000000000001000000410000004100000040C
:1098200010000004100000041000000410000004E8
:109830001FFFFFFC0000000000000000000000000F
:109840000000000000000000000000000000000018
:109850000000000000000000000000000000000008
:1098600000000000000000000000000000000000F8
:1098700000000000000000000000000000000000E8
:1098800000000000000000000000000000000000D8
:1098900000000000000000000000000002000000C6
:1098A0000400000008000000180000001000000084
:1098B0001800000018000000040000000200000072
:1098C0000000000000000000000000000000000098
:1098D0000000000000000000000000000000000088
:1098E0000000000000000000000000000000000078
:1098F0000000000000000000000000000000000068
:109900000000000000000000000000000000000156
:109910000000000100000001000000010000000143
:109920000000000100000001000000010000000133
:109930000000000100000001000000010000000123
:109940000000000100000001000000010000000014
:109950000000000000000000000000000000000007
:1099600000000000000000000000000000000000F7
:1099700000000000000000000000000000000000E7
:1099800000000000000000000000000000000000D7
:1099900000000000000000001000000010000000A7
:1099A0001000000018000000080000000400000083
:1099B00000000000000000000000000000000000A7
:1099C0000000000000000000000000000000000097
:1099D0000000000000000000000000000000000087
:1099E0000000000000000000000000000000000077
:1099F0000000000000000000000000000000000067
:109A00000000000000000000000000000000000056
:109A10000000038000018FC000038C600006182046
:109A20000004102000041020000420200004204026
:109A3000000620400003FFC00001FFE000000020FE
:109A400000000020000000C0000000000000000036
:109A50000000000000000000000000000000000006
:109A600000000000000000000000000000000000F6
:109A700000000000000000000000000000000000E6
:109A800000000000000000000000000000000000D6
:109A9000020000000200000003FFFFE007FFFFC01C
:109AA000000180C0000200600002002000040020CD
:109AB000000400200004002000060040000300C055
:109AC0000001FF800000FE00000000000000000018
:109AD0000000000000000000000000000000000086
:109AE0000000000000000000000000000000000076
:109AF0000000000000000000000000000000000066
:109B00000000000000000000000000000000000055
:109B10000000000000007E000001FF80000381C003
:109B20000002004000060020000400200004002085
:109B300000040020000600200003C0400001C08097
:109B40000000030000000000000000000000000012
:109B50000000000000000000000000000000000005
:109B600000000000000000000000000000000000F5
:109B700000000000000000000000000000000000E5
:109B800000000000000000000000000000000000D5
:109B90000000000000007E000001FF80000380C084
:109BA00000060060000400200004002000040020E3
:109BB000020400400202008003FFFFE007FFFFC035
:109BC0000000004000000040000000000000000015
:109BD0000000000000000000000000000000000085
:109BE0000000000000000000000000000000000075
:109BF0000000000000000000000000000000000065
:109C00000000000000000000000000000000000054
:109C10000000000000007E000001FF80000311C072
:109C20000002104000041060000410200004102006
:109C30000004102000061020000310400001F0C0B6
:109C400000007100000000000000000000000000A3
:109C50000000000000000000000000000000000004
:109C600000000000000000000000000000000000F4
:109C700000000000000000000000000000000000E4
:109C800000000000000000000000000000000000D4
:109C90000000000000040000000400200004002078
:109CA00000040020007FFFE001FFFFE0010400202E
:109CB000030400200204002002040020020400002B
:109CC0000200000001C0000001C000000000000010
:109CD0000000000000000000000000000000000084
:109CE0000000000000000000000000000000000074
:109CF0000000000000000000000000000000000064
:109D00000000000000000000000000000000000053
:109D1000000000000000001C0000E33E0003FFC242
:109D200000020CC3000404C1000404C1000404C107
:109D3000000404C100060CC10003F8C30005F06272
:109D40000006007E0006003C00000000000000004D
:109D50000000000000000000000000000000000003
:109D600000000000000000000000000000000000F3
:109D700000000000000000000000000000000000E3
:109D800000000000000000000000000000000000D3
:109D9000020000200200002003FFFFE007FFFFE0B9
:109DA0000001002000020020000600000004000066
:109DB0000004000000040020000600200003FFE073
:109DC0000001FFE000000020000000200000000073
:109DD0000000000000000000000000000000000083
:109DE0000000000000000000000000000000000073
:109DF0000000000000000000000000000000000063
:109E00000000000000000000000000000000000052
:109E100000000000000000000004002000040020FA
:109E200000040020000400200387FFE0038FFFE010
:109E3000038000200000002000000020000000201F
:109E40000000000000000000000000000000000012
:109E50000000000000000000000000000000000002
:109E600000000000000000000000000000000000F2
:109E700000000000000000000000000000000000E2
:109E800000000000000000000000000000000000D2
:109E900000000000000000000000000600000007B5
:109EA00000000001000000010004000100040001A6
:109EB00000040003000400060387FFFC038FFFF883
:109EC000038000000000000000000000000000000F
:109ED0000000000000000000000000000000000082
:109EE0000000000000000000000000000000000072
:109EF0000000000000000000000000000000000062
:109F00000000000000000000000000000000000051
:109F1000020000200200002003FFFFE007FFFFE037
:109F20000000082000001020000030000000FC00AD
:109F300000058E00000707A0000601E0000400E015
:109F400000040020000000200000000000000000CD
:109F50000000000000000000000000000000000001
:109F600000000000000000000000000000000000F1
:109F700000000000000000000000000000000000E1
:109F800000000000000000000000000000000000D1
:109F9000000000000000000002000020020000207D
:109FA000020000200200002003FFFFE007FFFFE0A7
:109FB0000000002000000020000000200000002021
:109FC0000000000000000000000000000000000091
:109FD0000000000000000000000000000000000081
:109FE0000000000000000000000000000000000071
:109FF0000000000000000000000000000000000061
:10A000000000000000000000000000000000000050
:10A01000000400200007FFE0000FFFE00002002026
:10A0200000040000000400200007FFE00003FFE040
:10A030000002002000040000000400200007FFE0F0
:10A040000003FFE00000002000000000000000000E
:10A050000000000000000000000000000000000000
:10A0600000000000000000000000000000000000F0
:10A0700000000000000000000000000000000000E0
:10A0800000000000000000000000000000000000D0
:10A0900000040020000400200007FFE0000FFFE0A4
:10A0A0000001002000020020000200000004000067
:10A0B0000004000000040020000600200003FFE070
:10A0C0000001FFE000000020000000200000000070
:10A0D0000000000000000000000000000000000080
:10A0E0000000000000000000000000000000000070
:10A0F0000000000000000000000000000000000060
:10A10000000000000000000000000000000000004F
:10A110000000000000007E000000FF80000381C0FE
:10A12000000200400006002000040020000400207F
:10A13000000400200006002000020040000381C04F
:10A140000001FF8000007E00000000000000000011
:10A1500000000000000000000000000000000000FF
:10A1600000000000000000000000000000000000EF
:10A1700000000000000000000000000000000000DF
:10A1800000000000000000000000000000000000CF
:10A1900000040001000400010007FFFF000FFFFFA3
:10A1A000000100C100020041000400200004002062
:10A1B000000400200004002000060040000301C04D
:10A1C0000001FF8000007E00000000000000000091
:10A1D000000000000000000000000000000000007F
:10A1E000000000000000000000000000000000006F
:10A1F000000000000000000000000000000000005F
:10A20000000000000000000000000000000000004E
:10A210000000000000007E000001FF80000380C0FD
:10A220000002006000040020000400200004002060
:10A230000004002000020041000300C10003FFFFF2
:10A240000007FFFF00000001000000010000000007
:10A2500000000000000000000000000000000000FE
:10A2600000000000000000000000000000000000EE
:10A2700000000000000000000000000000000000DE
:10A2800000000000000000000000000000000000CE
:10A29000000400200004002000040020000400202E
:10A2A000000FFFE0000FFFE00000C02000010020D1
:10A2B000000200200006002000040000000400004E
:10A2C0000007000000030000000000000000000084
:10A2D000000000000000000000000000000000007E
:10A2E000000000000000000000000000000000006E
:10A2F000000000000000000000000000000000005E
:10A30000000000000000000000000000000000004D
:10A3100000000000000003E00001C0E00003E04096
:10A32000000630200004302000041820000418200B
:10A330000004182000040C2000020C60000307C079
:10A340000007838000000000000000000000000003
:10A3500000000000000000000000000000000000FD
:10A3600000000000000000000000000000000000ED
:10A3700000000000000000000000000000000000DD
:10A3800000000000000000000000000000000000CD
:10A3900000000000000400000004000000040000B1
:10A3A000000C0000001FFF8000FFFFC000040060E1
:10A3B00000040020000400200004002000040040ED
:10A3C000000001800000000000000000000000000C
:10A3D000000000000000000000000000000000007D
:10A3E000000000000000000000000000000000006D
:10A3F000000000000000000000000000000000005D
:10A40000000000000000000000000000000000004C
:10A4100000040000000400000007FF80000FFFC0E0
:10A42000000000600000002000000020000000206C
:10A430000000002000040040000400800007FFE04E
:10A44000000FFFC0000000400000004000000000BE
:10A4500000000000000000000000000000000000FC
:10A4600000000000000000000000000000000000EC
:10A4700000000000000000000000000000000000DC
:10A4800000000000000000000000000000000000CC
:10A490000004000000040000000780000007F00036
:10A4A0000004FE0000041FC0000003E00000038061
:10A4B00000001C000004600000078000000600008F
:10A4C0000004000000000000000000000000000088
:10A4D000000000000000000000000000000000007C
:10A4E000000000000000000000000000000000006C
:10A4F000000000000000000000000000000000005C
:10A500000000000000000000000000000004000047
:10A51000000600000007C0000007FC0000043F80A8
:10A52000000003E000040F800006F0000007F000C8
:10A530000007FF8000040FE00000038000043C00DF
:10A540000007C0000006000000040000000000003A
:10A5500000000000000000000000000000000000FB
:10A5600000000000000000000000000000000000EB
:10A5700000000000000000000000000000000000DB
:10A5800000000000000000000000000000000000CB
:10A59000000000200004002000040060000700E02C
:10A5A000000783200007E6000004F80000003C00DC
:10A5B00000045E20000587A0000601E000040060A2
:10A5C0000004002000000020000000000000000047
:10A5D000000000000000000000000000000000007B
:10A5E000000000000000000000000000000000006B
:10A5F000000000000000000000000000000000005B
:10A60000000000000000000000000000000000004A
:10A610000004000000040003000700030007E0013D
:10A620000004F80100041F02000007FC000000E025
:10A6300000000700000438000007C000000600000A
:10A640000004000000040000000000000000000002
:10A6500000000000000000000000000000000000FA
:10A6600000000000000000000000000000000000EA
:10A6700000000000000000000000000000000000DA
:10A6800000000000000000000000000000000000CA
:10A690000000000000078060000600E0000403E006
:10A6A000000407A000040E2000043C2000047020D9
:10A6B0000005E0200007802000070060000400E0A3
:10A6C0000000038000000000000000000000000007
:10A6D000000000000000000000000000000000007A
:10A6E000000000000000000000000000000000006A
:10A6F000000000000000000000000000000000005A
:10A700000000000000000000000000000000000049
:10A710000000000000000000000000000000000039
:10A720000000000000000000000080000000800029
:10A730000001400007FE3FF808000004100000027E
:10A7400010000002000000000000000000000000F7
:10A7500000000000000000000000000000000000F9
:10A7600000000000000000000000000000000000E9
:10A7700000000000000000000000000000000000D9
:10A7800000000000000000000000000000000000C9
:10A7900000000000000000000000000000000000B9
:10A7A000000000000000000000000000FFFFFFFFAD
:10A7B0000000000000000000000000000000000099
:10A7C0000000000000000000000000000000000089
:10A7D0000000000000000000000000000000000079
:10A7E0000000000000000000000000000000000069
:10A7F0000000000000000000000000000000000059
:10A800000000000000000000000000000000000048
:10A810000000000010000002100000020800000408
:10A8200007FE3FF8000140000000800000008000AB
:10A830000000000000000000000000000000000018
:10A840000000000000000000000000000000000008
:10A8500000000000000000000000000000000000F8
:10A8600000000000000000000000000000000000E8
:10A8700000000000000000000000000000000000D8
:10A8800000000000000000000000000000000000C8
:10A8900018000000300000004000000040000000F0
:10A8A0004000000020000000300000000800000010
:10A8B000040000000200000002000000020000008E
:10A8C0000C00000018000000000000000000000064
:10A8D0000000000000000000000000000000000078
:10A8E0000000000000000000000000000000000068
:10A8F0000000000000000000000000000000000058
:10A9000000000000000000000000000060E00120E6
:10A910000305350002081E08503C0F050000FF67C4
:10A92000500000181A1E1489280A302EBB0A030092
:10A930000002331D000000000000003200002A1C4D
:10A940005A94C50207000000B51F00902800773216
:10A9500000623F0052500052000000000000000062
:10A960000000000000000000000000000000000FD8
:10A970000F03061042F80F14000000001A181614F6
:10A9800012100E0C0A080000000000000000000079
:10A990000000000000000000000029282422201FE1
:10A9A0001E1D0E0C0A080605040200FF0000000030
:10A9B00000000000000000FFFFFFFFFFFFFFFFFFA0
:10A9C000FFFFFFFF50815881608168817081000125
:10A9D0000005001000140018DCA90008506C656127
:10A9E00073652075736520746865207374796C7560
:10A9F0007320636C69636B207468652063726F7386
:10AA000073206F6E207468652073637265656E2EA7
:10AA10005468652063726F73732077696C6C206172
:10AA20006C77617973206D6F766520756E74696CD3
:10AA3000207468652073637265656E2061646A7551
:10AA400073746D656E7420697320636F6D706C65CF
:10AA50007465642E0000000078AA00080000002041
:10AA6000E4000000845D00085CAB0008E400002006
:10AA7000AC0A0000945D0008000000000000000027
:10AA800000000000000000000100000010000000B5
:10AA9000000000000024F400C800C8006400640046
:10AAA000E0070000746573740000000000000000FF
:10AAB000000000002C0164006400640000F8000045
:10AAC0007465737432000000000000000000000094
:10AAD00000000000640064001F00000074657374CF
:10AAE0003300000000000000000000000000000033
:10AAF0000000000000000000000000FFFFFFFFFF5B
:10AB000000000000D090000061570008ED590008D7
:10AB10008550000800000000000000000000000058
:10AB20000000000000000000000000000000000025
:10AB30000000000000000000000000000000000015
:10AB40000000000000000000000000000000000005
:0CAB5000000000000000000000000000F9
:04000005080001F9F5
:00000001FF
