Component: ARM Compiler 5.05 update 1 (build 106) Tool: armlink [4d0efa]

==============================================================================

Section Cross References

    startup_stm32f767xx.o(RESET) refers to startup_stm32f767xx.o(STACK) for __initial_sp
    startup_stm32f767xx.o(RESET) refers to startup_stm32f767xx.o(.text) for Reset_Handler
    startup_stm32f767xx.o(RESET) refers to stm32f7xx_it.o(i.NMI_Handler) for NMI_Handler
    startup_stm32f767xx.o(RESET) refers to stm32f7xx_it.o(i.HardFault_Handler) for HardFault_Handler
    startup_stm32f767xx.o(RESET) refers to stm32f7xx_it.o(i.MemManage_Handler) for MemManage_Handler
    startup_stm32f767xx.o(RESET) refers to stm32f7xx_it.o(i.BusFault_Handler) for BusFault_Handler
    startup_stm32f767xx.o(RESET) refers to stm32f7xx_it.o(i.UsageFault_Handler) for UsageFault_Handler
    startup_stm32f767xx.o(RESET) refers to stm32f7xx_it.o(i.SVC_Handler) for SVC_Handler
    startup_stm32f767xx.o(RESET) refers to stm32f7xx_it.o(i.DebugMon_Handler) for DebugMon_Handler
    startup_stm32f767xx.o(RESET) refers to stm32f7xx_it.o(i.PendSV_Handler) for PendSV_Handler
    startup_stm32f767xx.o(RESET) refers to stm32f7xx_it.o(i.SysTick_Handler) for SysTick_Handler
    startup_stm32f767xx.o(RESET) refers to usart.o(i.USART1_IRQHandler) for USART1_IRQHandler
    startup_stm32f767xx.o(RESET) refers to stm32f7xx_it.o(i.DMA2_Stream0_IRQHandler) for DMA2_Stream0_IRQHandler
    startup_stm32f767xx.o(.text) refers to system_stm32f7xx.o(i.SystemInit) for SystemInit
    startup_stm32f767xx.o(.text) refers to entry.o(.ARM.Collect$$$$00000000) for __main
    main.o(i.SystemClock_Config) refers to memseta.o(.text) for __aeabi_memclr4
    main.o(i.SystemClock_Config) refers to stm32f7xx_hal_pwr.o(i.HAL_PWR_EnableBkUpAccess) for HAL_PWR_EnableBkUpAccess
    main.o(i.SystemClock_Config) refers to stm32f7xx_hal_rcc.o(i.HAL_RCC_OscConfig) for HAL_RCC_OscConfig
==============================================================================

Removing Unused input sections from the image.

    Removing main.o(.rev16_text), (4 bytes).
    Removing main.o(.revsh_text), (4 bytes).
    Removing main.o(.rrx_text), (6 bytes).
    Removing gpio.o(.rev16_text), (4 bytes).
    Removing gpio.o(.revsh_text), (4 bytes).
    Removing gpio.o(.rrx_text), (6 bytes).
    Removing adc.o(.rev16_text), (4 bytes).
    Removing adc.o(.revsh_text), (4 bytes).
    Removing adc.o(.rrx_text), (6 bytes).
    Removing adc.o(i.HAL_ADC_MspDeInit), (56 bytes).
    Removing dma.o(.rev16_text), (4 bytes).
    Removing dma.o(.revsh_text), (4 bytes).
    Removing dma.o(.rrx_text), (6 bytes).
    Removing dma2d.o(.rev16_text), (4 bytes).
    Removing dma2d.o(.revsh_text), (4 bytes).
    Removing dma2d.o(.rrx_text), (6 bytes).
    Removing dma2d.o(i.HAL_DMA2D_MspDeInit), (28 bytes).
    Removing fmc.o(.rev16_text), (4 bytes).
==============================================================================

Image Symbol Table

    Local Symbols

    Symbol Name                              Value     Ov Type        Size  Object(Section)

    ../Drivers/STM32F7xx_HAL_Driver/Src/stm32f7xx_hal.c 0x00000000   Number         0  stm32f7xx_hal.o ABSOLUTE
    ../Drivers/STM32F7xx_HAL_Driver/Src/stm32f7xx_hal_adc.c 0x00000000   Number         0  stm32f7xx_hal_adc.o ABSOLUTE
    ../Drivers/STM32F7xx_HAL_Driver/Src/stm32f7xx_hal_adc_ex.c 0x00000000   Number         0  stm32f7xx_hal_adc_ex.o ABSOLUTE
    ../Drivers/STM32F7xx_HAL_Driver/Src/stm32f7xx_hal_cortex.c 0x00000000   Number         0  stm32f7xx_hal_cortex.o ABSOLUTE
    ../Drivers/STM32F7xx_HAL_Driver/Src/stm32f7xx_hal_dma.c 0x00000000   Number         0  stm32f7xx_hal_dma.o ABSOLUTE
    ../Drivers/STM32F7xx_HAL_Driver/Src/stm32f7xx_hal_dma2d.c 0x00000000   Number         0  stm32f7xx_hal_dma2d.o ABSOLUTE
    ../Drivers/STM32F7xx_HAL_Driver/Src/stm32f7xx_hal_dma_ex.c 0x00000000   Number         0  stm32f7xx_hal_dma_ex.o ABSOLUTE
    ../Drivers/STM32F7xx_HAL_Driver/Src/stm32f7xx_hal_dsi.c 0x00000000   Number         0  stm32f7xx_hal_dsi.o ABSOLUTE
    ../Drivers/STM32F7xx_HAL_Driver/Src/stm32f7xx_hal_exti.c 0x00000000   Number         0  stm32f7xx_hal_exti.o ABSOLUTE
    ../Drivers/STM32F7xx_HAL_Driver/Src/stm32f7xx_hal_flash.c 0x00000000   Number         0  stm32f7xx_hal_flash.o ABSOLUTE
    ../Drivers/STM32F7xx_HAL_Driver/Src/stm32f7xx_hal_flash_ex.c 0x00000000   Number         0  stm32f7xx_hal_flash_ex.o ABSOLUTE
    ../Drivers/STM32F7xx_HAL_Driver/Src/stm32f7xx_hal_gpio.c 0x00000000   Number         0  stm32f7xx_hal_gpio.o ABSOLUTE
    ../Drivers/STM32F7xx_HAL_Driver/Src/stm32f7xx_hal_i2c.c 0x00000000   Number         0  stm32f7xx_hal_i2c.o ABSOLUTE
    ../Drivers/STM32F7xx_HAL_Driver/Src/stm32f7xx_hal_i2c_ex.c 0x00000000   Number         0  stm32f7xx_hal_i2c_ex.o ABSOLUTE
    ../Drivers/STM32F7xx_HAL_Driver/Src/stm32f7xx_hal_ltdc.c 0x00000000   Number         0  stm32f7xx_hal_ltdc.o ABSOLUTE
    ../Drivers/STM32F7xx_HAL_Driver/Src/stm32f7xx_hal_ltdc_ex.c 0x00000000   Number         0  stm32f7xx_hal_ltdc_ex.o ABSOLUTE
    ../Drivers/STM32F7xx_HAL_Driver/Src/stm32f7xx_hal_pwr.c 0x00000000   Number         0  stm32f7xx_hal_pwr.o ABSOLUTE
    ../Drivers/STM32F7xx_HAL_Driver/Src/stm32f7xx_hal_pwr_ex.c 0x00000000   Number         0  stm32f7xx_hal_pwr_ex.o ABSOLUTE
    ../Drivers/STM32F7xx_HAL_Driver/Src/stm32f7xx_hal_rcc.c 0x00000000   Number         0  stm32f7xx_hal_rcc.o ABSOLUTE
    ../Drivers/STM32F7xx_HAL_Driver/Src/stm32f7xx_hal_rcc_ex.c 0x00000000   Number         0  stm32f7xx_hal_rcc_ex.o ABSOLUTE
    ../Drivers/STM32F7xx_HAL_Driver/Src/stm32f7xx_hal_sdram.c 0x00000000   Number         0  stm32f7xx_hal_sdram.o ABSOLUTE
    ../Drivers/STM32F7xx_HAL_Driver/Src/stm32f7xx_hal_tim.c 0x00000000   Number         0  stm32f7xx_hal_tim.o ABSOLUTE
    ../Drivers/STM32F7xx_HAL_Driver/Src/stm32f7xx_hal_tim_ex.c 0x00000000   Number         0  stm32f7xx_hal_tim_ex.o ABSOLUTE
    ../Drivers/STM32F7xx_HAL_Driver/Src/stm32f7xx_ll_fmc.c 0x00000000   Number         0  stm32f7xx_ll_fmc.o ABSOLUTE
    ../Src/adc.c                             0x00000000   Number         0  adc.o ABSOLUTE
    ../Src/dma.c                             0x00000000   Number         0  dma.o ABSOLUTE
    ../Src/dma2d.c                           0x00000000   Number         0  dma2d.o ABSOLUTE
    ../Src/fmc.c                             0x00000000   Number         0  fmc.o ABSOLUTE
    ../Src/gpio.c                            0x00000000   Number         0  gpio.o ABSOLUTE
    ../Src/ltdc.c                            0x00000000   Number         0  ltdc.o ABSOLUTE
    ../Src/main.c                            0x00000000   Number         0  main.o ABSOLUTE
    ../Src/stm32f7xx_hal_msp.c               0x00000000   Number         0  stm32f7xx_hal_msp.o ABSOLUTE
    ../Src/stm32f7xx_it.c                    0x00000000   Number         0  stm32f7xx_it.o ABSOLUTE
    ../Src/system_stm32f7xx.c                0x00000000   Number         0  system_stm32f7xx.o ABSOLUTE
    ../Src/tim.c                             0x00000000   Number         0  tim.o ABSOLUTE
    ../clib/microlib/division.c              0x00000000   Number         0  uldiv.o ABSOLUTE
    ../clib/microlib/division.c              0x00000000   Number         0  uidiv.o ABSOLUTE
    ../clib/microlib/errno.c                 0x00000000   Number         0  errno.o ABSOLUTE
    ../clib/microlib/init/entry.s            0x00000000   Number         0  entry9b.o ABSOLUTE
    ../clib/microlib/init/entry.s            0x00000000   Number         0  entry9a.o ABSOLUTE
    ../clib/microlib/init/entry.s            0x00000000   Number         0  entry8b.o ABSOLUTE
    ../clib/microlib/init/entry.s            0x00000000   Number         0  entry8a.o ABSOLUTE
    ../clib/microlib/init/entry.s            0x00000000   Number         0  entry7b.o ABSOLUTE
    ../clib/microlib/init/entry.s            0x00000000   Number         0  entry11b.o ABSOLUTE
    ../clib/microlib/init/entry.s            0x00000000   Number         0  entry5.o ABSOLUTE
    ../clib/microlib/init/entry.s            0x00000000   Number         0  entry7a.o ABSOLUTE
    ../clib/microlib/init/entry.s            0x00000000   Number         0  entry2.o ABSOLUTE
    ../clib/microlib/init/entry.s            0x00000000   Number         0  entry10b.o ABSOLUTE
    ../clib/microlib/init/entry.s            0x00000000   Number         0  entry.o ABSOLUTE
    ../clib/microlib/init/entry.s            0x00000000   Number         0  entry10a.o ABSOLUTE
    ../clib/microlib/init/entry.s            0x00000000   Number         0  entry11a.o ABSOLUTE
    ../clib/microlib/longlong.c              0x00000000   Number         0  llsshr.o ABSOLUTE
    ../clib/microlib/longlong.c              0x00000000   Number         0  llushr.o ABSOLUTE
    ../clib/microlib/longlong.c              0x00000000   Number         0  llshl.o ABSOLUTE
    ../clib/microlib/malloc/malloc.c         0x00000000   Number         0  mallocra.o ABSOLUTE
    ../clib/microlib/malloc/malloc.c         0x00000000   Number         0  malloc.o ABSOLUTE
    ../clib/microlib/malloc/malloc.c         0x00000000   Number         0  mallocr.o ABSOLUTE
    ../clib/microlib/malloc/malloc.c         0x00000000   Number         0  malloca.o ABSOLUTE
    ../clib/microlib/malloc/mvars.c          0x00000000   Number         0  mvars.o ABSOLUTE
    ../clib/microlib/printf/printf.c         0x00000000   Number         0  printf6.o ABSOLUTE
    ../clib/microlib/printf/printf.c         0x00000000   Number         0  printfb.o ABSOLUTE
    ../clib/microlib/printf/printf.c         0x00000000   Number         0  printfa.o ABSOLUTE
    ../clib/microlib/printf/printf.c         0x00000000   Number         0  printf1.o ABSOLUTE
    ../clib/microlib/printf/printf.c         0x00000000   Number         0  printf2.o ABSOLUTE
    ../clib/microlib/printf/printf.c         0x00000000   Number         0  printf3.o ABSOLUTE
    ../clib/microlib/printf/printf.c         0x00000000   Number         0  printf4.o ABSOLUTE
    ../clib/microlib/printf/printf.c         0x00000000   Number         0  printf7.o ABSOLUTE
    ../clib/microlib/printf/printf.c         0x00000000   Number         0  printf0.o ABSOLUTE
    ../clib/microlib/printf/printf.c         0x00000000   Number         0  printf8.o ABSOLUTE
    ../clib/microlib/printf/printf.c         0x00000000   Number         0  printf5.o ABSOLUTE
    ../clib/microlib/printf/stubs.s          0x00000000   Number         0  stubs.o ABSOLUTE
    ../clib/microlib/string/memcpy.c         0x00000000   Number         0  memcpyb.o ABSOLUTE
    ../clib/microlib/string/memcpy.c         0x00000000   Number         0  memcpya.o ABSOLUTE
    ../clib/microlib/string/memset.c         0x00000000   Number         0  memseta.o ABSOLUTE
    ../clib/microlib/string/strcmp.c         0x00000000   Number         0  strcmp.o ABSOLUTE
    ../clib/microlib/stubs.s                 0x00000000   Number         0  useno.o ABSOLUTE
    ../clib/microlib/stubs.s                 0x00000000   Number         0  iusefp.o ABSOLUTE
    ../fplib/microlib/fpadd.c                0x00000000   Number         0  dadd.o ABSOLUTE
    ../fplib/microlib/fpdiv.c                0x00000000   Number         0  ddiv.o ABSOLUTE
    ../fplib/microlib/fpepilogue.c           0x00000000   Number         0  depilogue.o ABSOLUTE
    ../fplib/microlib/fpfix.c                0x00000000   Number         0  dfixul.o ABSOLUTE
    ../fplib/microlib/fpmul.c                0x00000000   Number         0  dmul.o ABSOLUTE
    ../mathlib/sqrt.c                        0x00000000   Number         0  sqrt.o ABSOLUTE
    ../mathlib/sqrt.c                        0x00000000   Number         0  sqrt_x.o ABSOLUTE
    ..\Drivers\STM32F7xx_HAL_Driver\Src\stm32f7xx_hal.c 0x00000000   Number         0  stm32f7xx_hal.o ABSOLUTE
    ..\Drivers\STM32F7xx_HAL_Driver\Src\stm32f7xx_hal_adc.c 0x00000000   Number         0  stm32f7xx_hal_adc.o ABSOLUTE
    ..\Drivers\STM32F7xx_HAL_Driver\Src\stm32f7xx_hal_adc_ex.c 0x00000000   Number         0  stm32f7xx_hal_adc_ex.o ABSOLUTE
    ..\Drivers\STM32F7xx_HAL_Driver\Src\stm32f7xx_hal_cortex.c 0x00000000   Number         0  stm32f7xx_hal_cortex.o ABSOLUTE
    ..\Drivers\STM32F7xx_HAL_Driver\Src\stm32f7xx_hal_dma.c 0x00000000   Number         0  stm32f7xx_hal_dma.o ABSOLUTE
    ..\Drivers\STM32F7xx_HAL_Driver\Src\stm32f7xx_hal_dma2d.c 0x00000000   Number         0  stm32f7xx_hal_dma2d.o ABSOLUTE
    ..\Drivers\STM32F7xx_HAL_Driver\Src\stm32f7xx_hal_dma_ex.c 0x00000000   Number         0  stm32f7xx_hal_dma_ex.o ABSOLUTE
    ..\Drivers\STM32F7xx_HAL_Driver\Src\stm32f7xx_hal_dsi.c 0x00000000   Number         0  stm32f7xx_hal_dsi.o ABSOLUTE
    ..\Drivers\STM32F7xx_HAL_Driver\Src\stm32f7xx_hal_exti.c 0x00000000   Number         0  stm32f7xx_hal_exti.o ABSOLUTE
    ..\Drivers\STM32F7xx_HAL_Driver\Src\stm32f7xx_hal_flash.c 0x00000000   Number         0  stm32f7xx_hal_flash.o ABSOLUTE
    ..\Drivers\STM32F7xx_HAL_Driver\Src\stm32f7xx_hal_flash_ex.c 0x00000000   Number         0  stm32f7xx_hal_flash_ex.o ABSOLUTE
    ..\Drivers\STM32F7xx_HAL_Driver\Src\stm32f7xx_hal_gpio.c 0x00000000   Number         0  stm32f7xx_hal_gpio.o ABSOLUTE
    ..\Drivers\STM32F7xx_HAL_Driver\Src\stm32f7xx_hal_i2c.c 0x00000000   Number         0  stm32f7xx_hal_i2c.o ABSOLUTE
    ..\Drivers\STM32F7xx_HAL_Driver\Src\stm32f7xx_hal_i2c_ex.c 0x00000000   Number         0  stm32f7xx_hal_i2c_ex.o ABSOLUTE
    ..\Drivers\STM32F7xx_HAL_Driver\Src\stm32f7xx_hal_ltdc.c 0x00000000   Number         0  stm32f7xx_hal_ltdc.o ABSOLUTE
    ..\Drivers\STM32F7xx_HAL_Driver\Src\stm32f7xx_hal_ltdc_ex.c 0x00000000   Number         0  stm32f7xx_hal_ltdc_ex.o ABSOLUTE
    ..\Drivers\STM32F7xx_HAL_Driver\Src\stm32f7xx_hal_pwr.c 0x00000000   Number         0  stm32f7xx_hal_pwr.o ABSOLUTE
    ..\Drivers\STM32F7xx_HAL_Driver\Src\stm32f7xx_hal_pwr_ex.c 0x00000000   Number         0  stm32f7xx_hal_pwr_ex.o ABSOLUTE
    ..\Drivers\STM32F7xx_HAL_Driver\Src\stm32f7xx_hal_qspi.c 0x00000000   Number         0  stm32f7xx_hal_qspi.o ABSOLUTE
    ..\Drivers\STM32F7xx_HAL_Driver\Src\stm32f7xx_hal_rcc.c 0x00000000   Number         0  stm32f7xx_hal_rcc.o ABSOLUTE
    ..\Drivers\STM32F7xx_HAL_Driver\Src\stm32f7xx_hal_rcc_ex.c 0x00000000   Number         0  stm32f7xx_hal_rcc_ex.o ABSOLUTE
    ..\Drivers\STM32F7xx_HAL_Driver\Src\stm32f7xx_hal_sdram.c 0x00000000   Number         0  stm32f7xx_hal_sdram.o ABSOLUTE
    ..\Drivers\STM32F7xx_HAL_Driver\Src\stm32f7xx_hal_tim.c 0x00000000   Number         0  stm32f7xx_hal_tim.o ABSOLUTE
    ..\Drivers\STM32F7xx_HAL_Driver\Src\stm32f7xx_hal_tim_ex.c 0x00000000   Number         0  stm32f7xx_hal_tim_ex.o ABSOLUTE
    ..\Drivers\STM32F7xx_HAL_Driver\Src\stm32f7xx_hal_uart.c 0x00000000   Number         0  stm32f7xx_hal_uart.o ABSOLUTE
    ..\Drivers\STM32F7xx_HAL_Driver\Src\stm32f7xx_hal_uart_ex.c 0x00000000   Number         0  stm32f7xx_hal_uart_ex.o ABSOLUTE
    ..\Drivers\STM32F7xx_HAL_Driver\Src\stm32f7xx_hal_usart.c 0x00000000   Number         0  stm32f7xx_hal_usart.o ABSOLUTE
    ..\Drivers\STM32F7xx_HAL_Driver\Src\stm32f7xx_ll_fmc.c 0x00000000   Number         0  stm32f7xx_ll_fmc.o ABSOLUTE
    ..\GROUP_Lib\Src\Framework.c             0x00000000   Number         0  framework.o ABSOLUTE
    ..\GROUP_Lib\Src\button.c                0x00000000   Number         0  button.o ABSOLUTE
    ..\GROUP_Lib\Src\lcd_page.c              0x00000000   Number         0  lcd_page.o ABSOLUTE
    ..\GROUP_Lib\Src\mlcd.c                  0x00000000   Number         0  mlcd.o ABSOLUTE
    ..\GROUP_Lib\Src\variable.c              0x00000000   Number         0  variable.o ABSOLUTE
    ..\Src\adc.c                             0x00000000   Number         0  adc.o ABSOLUTE
    ..\Src\dma.c                             0x00000000   Number         0  dma.o ABSOLUTE
    ..\Src\dma2d.c                           0x00000000   Number         0  dma2d.o ABSOLUTE
    ..\Src\fmc.c                             0x00000000   Number         0  fmc.o ABSOLUTE
    ..\Src\gpio.c                            0x00000000   Number         0  gpio.o ABSOLUTE
    ..\Src\ltdc.c                            0x00000000   Number         0  ltdc.o ABSOLUTE
    ..\Src\main.c                            0x00000000   Number         0  main.o ABSOLUTE
    ..\Src\stm32f7xx_hal_msp.c               0x00000000   Number         0  stm32f7xx_hal_msp.o ABSOLUTE
    ..\Src\stm32f7xx_it.c                    0x00000000   Number         0  stm32f7xx_it.o ABSOLUTE
    ..\Src\system_stm32f7xx.c                0x00000000   Number         0  system_stm32f7xx.o ABSOLUTE
    ..\Src\tim.c                             0x00000000   Number         0  tim.o ABSOLUTE
    ..\\Drivers\\STM32F7xx_HAL_Driver\\Src\\stm32f7xx_hal_qspi.c 0x00000000   Number         0  stm32f7xx_hal_qspi.o ABSOLUTE
    ..\\Drivers\\STM32F7xx_HAL_Driver\\Src\\stm32f7xx_hal_uart.c 0x00000000   Number         0  stm32f7xx_hal_uart.o ABSOLUTE
    ..\\Drivers\\STM32F7xx_HAL_Driver\\Src\\stm32f7xx_hal_uart_ex.c 0x00000000   Number         0  stm32f7xx_hal_uart_ex.o ABSOLUTE
    ..\\Drivers\\STM32F7xx_HAL_Driver\\Src\\stm32f7xx_hal_usart.c 0x00000000   Number         0  stm32f7xx_hal_usart.o ABSOLUTE
    ..\\GROUP_Lib\\Src\\Framework.c          0x00000000   Number         0  framework.o ABSOLUTE
    ..\\GROUP_Lib\\Src\\lcd_page.c           0x00000000   Number         0  lcd_page.o ABSOLUTE
    ..\\GROUP_Lib\\Src\\mlcd.c               0x00000000   Number         0  mlcd.o ABSOLUTE
    ..\\GROUP_Lib\\Src\\variable.c           0x00000000   Number         0  variable.o ABSOLUTE
    ..\\zhendianyuanzi\\24CXX\\24cxx.c       0x00000000   Number         0  24cxx.o ABSOLUTE
    ..\\zhendianyuanzi\\IIC\\myiic.c         0x00000000   Number         0  myiic.o ABSOLUTE
    ..\\zhendianyuanzi\\KEY\\key.c           0x00000000   Number         0  key.o ABSOLUTE
    ..\\zhendianyuanzi\\LCD\\TOUCH\\ctiic.c  0x00000000   Number         0  ctiic.o ABSOLUTE
    ..\\zhendianyuanzi\\LCD\\TOUCH\\ft5206.c 0x00000000   Number         0  ft5206.o ABSOLUTE
    ..\\zhendianyuanzi\\LCD\\TOUCH\\gt9147.c 0x00000000   Number         0  gt9147.o ABSOLUTE
    ..\\zhendianyuanzi\\LCD\\TOUCH\\gt9271.c 0x00000000   Number         0  gt9271.o ABSOLUTE
    ..\\zhendianyuanzi\\LCD\\TOUCH\\ott2001a.c 0x00000000   Number         0  ott2001a.o ABSOLUTE
    ..\\zhendianyuanzi\\LCD\\TOUCH\\touch.c  0x00000000   Number         0  touch.o ABSOLUTE
    ..\\zhendianyuanzi\\LCD\\lcd.c           0x00000000   Number         0  lcd.o ABSOLUTE
    ..\\zhendianyuanzi\\LED\\led.c           0x00000000   Number         0  led.o ABSOLUTE
    ..\\zhendianyuanzi\\QSPI\\qspi.c         0x00000000   Number         0  qspi.o ABSOLUTE
    ..\\zhendianyuanzi\\W25QXX\\w25qxx.c     0x00000000   Number         0  w25qxx.o ABSOLUTE
    ..\\zhendianyuanzi\\system\\delay.c      0x00000000   Number         0  delay.o ABSOLUTE
    ..\\zhendianyuanzi\\system\\sys.c        0x00000000   Number         0  sys.o ABSOLUTE
    ..\\zhendianyuanzi\\system\\usart.c      0x00000000   Number         0  usart.o ABSOLUTE
    ..\zhendianyuanzi\24CXX\24cxx.c          0x00000000   Number         0  24cxx.o ABSOLUTE
    ..\zhendianyuanzi\IIC\myiic.c            0x00000000   Number         0  myiic.o ABSOLUTE
    ..\zhendianyuanzi\KEY\key.c              0x00000000   Number         0  key.o ABSOLUTE
    ..\zhendianyuanzi\LCD\TOUCH\ctiic.c      0x00000000   Number         0  ctiic.o ABSOLUTE
    ..\zhendianyuanzi\LCD\TOUCH\ft5206.c     0x00000000   Number         0  ft5206.o ABSOLUTE
    ..\zhendianyuanzi\LCD\TOUCH\gt9147.c     0x00000000   Number         0  gt9147.o ABSOLUTE
    ..\zhendianyuanzi\LCD\TOUCH\gt9271.c     0x00000000   Number         0  gt9271.o ABSOLUTE
    ..\zhendianyuanzi\LCD\TOUCH\ott2001a.c   0x00000000   Number         0  ott2001a.o ABSOLUTE
    ..\zhendianyuanzi\LCD\TOUCH\touch.c      0x00000000   Number         0  touch.o ABSOLUTE
    ..\zhendianyuanzi\LCD\lcd.c              0x00000000   Number         0  lcd.o ABSOLUTE
    ..\zhendianyuanzi\LED\led.c              0x00000000   Number         0  led.o ABSOLUTE
    ..\zhendianyuanzi\QSPI\qspi.c            0x00000000   Number         0  qspi.o ABSOLUTE
    ..\zhendianyuanzi\W25QXX\w25qxx.c        0x00000000   Number         0  w25qxx.o ABSOLUTE
    ..\zhendianyuanzi\system\delay.c         0x00000000   Number         0  delay.o ABSOLUTE
    ..\zhendianyuanzi\system\sys.c           0x00000000   Number         0  sys.o ABSOLUTE
    ..\zhendianyuanzi\system\usart.c         0x00000000   Number         0  usart.o ABSOLUTE
    cdrcmple.s                               0x00000000   Number         0  cdrcmple.o ABSOLUTE
    dc.s                                     0x00000000   Number         0  dc.o ABSOLUTE
    handlers.s                               0x00000000   Number         0  handlers.o ABSOLUTE
    init.s                                   0x00000000   Number         0  init.o ABSOLUTE
    startup_stm32f767xx.s                    0x00000000   Number         0  startup_stm32f767xx.o ABSOLUTE
    RESET                                    0x08000000   Section      504  startup_stm32f767xx.o(RESET)
    .ARM.Collect$$$$00000000                 0x080001f8   Section        0  entry.o(.ARM.Collect$$$$00000000)
    .ARM.Collect$$$$00000001                 0x080001f8   Section        4  entry2.o(.ARM.Collect$$$$00000001)
    .ARM.Collect$$$$00000004                 0x080001fc   Section        4  entry5.o(.ARM.Collect$$$$00000004)
    .ARM.Collect$$$$00000008                 0x08000200   Section        0  entry7b.o(.ARM.Collect$$$$00000008)
    .ARM.Collect$$$$0000000A                 0x08000200   Section        0  entry8b.o(.ARM.Collect$$$$0000000A)
    .ARM.Collect$$$$0000000B                 0x08000200   Section        8  entry9a.o(.ARM.Collect$$$$0000000B)
    .ARM.Collect$$$$0000000D                 0x08000208   Section        0  entry10a.o(.ARM.Collect$$$$0000000D)
    .ARM.Collect$$$$0000000F                 0x08000208   Section        0  entry11a.o(.ARM.Collect$$$$0000000F)
    .ARM.Collect$$$$00002712                 0x08000208   Section        4  entry2.o(.ARM.Collect$$$$00002712)
    __lit__00000000                          0x08000208   Data           4  entry2.o(.ARM.Collect$$$$00002712)
    .text                                    0x0800020c   Section       36  startup_stm32f767xx.o(.text)
    $v0                                      0x0800020c   Number         0  startup_stm32f767xx.o(.text)
    .text                                    0x08000230   Section        0  uldiv.o(.text)
    .text                                    0x08000292   Section        0  memcpya.o(.text)
    .text                                    0x080002b6   Section        0  memseta.o(.text)
    .text                                    0x080002da   Section        0  strcmp.o(.text)
    .text                                    0x080002f6   Section        0  llshl.o(.text)
    .text                                    0x08000314   Section        0  llushr.o(.text)
    .text                                    0x08000334   Section        0  iusefp.o(.text)
    .text                                    0x08000334   Section       36  init.o(.text)
    i.ADC_Init                               0x08000358   Section        0  stm32f7xx_hal_adc.o(i.ADC_Init)
    ADC_Init                                 0x08000359   Thumb Code   298  stm32f7xx_hal_adc.o(i.ADC_Init)
    i.AT24CXX_ReadLenByte                    0x08000490   Section        0  24cxx.o(i.AT24CXX_ReadLenByte)
    i.AT24CXX_ReadOneByte                    0x080004b8   Section        0  24cxx.o(i.AT24CXX_ReadOneByte)
    i.AT24CXX_WriteLenByte                   0x080004fa   Section        0  24cxx.o(i.AT24CXX_WriteLenByte)
    i.AT24CXX_WriteOneByte                   0x08000524   Section        0  24cxx.o(i.AT24CXX_WriteOneByte)
    i.BusFault_Handler                       0x08000562   Section        0  stm32f7xx_it.o(i.BusFault_Handler)
    i.Button1_Function                       0x08000564   Section        0  variable.o(i.Button1_Function)
    i.Button2_Function                       0x08000580   Section        0  variable.o(i.Button2_Function)
    i.Button3_Function                       0x0800059c   Section        0  variable.o(i.Button3_Function)
    i.CT_IIC_Ack                             0x080005b8   Section        0  ctiic.o(i.CT_IIC_Ack)
    i.CT_IIC_Init                            0x08000614   Section        0  ctiic.o(i.CT_IIC_Init)
    i.CT_IIC_NAck                            0x0800066c   Section        0  ctiic.o(i.CT_IIC_NAck)
    i.CT_IIC_Read_Byte                       0x080006c8   Section        0  ctiic.o(i.CT_IIC_Read_Byte)
    i.CT_IIC_Send_Byte                       0x08000738   Section        0  ctiic.o(i.CT_IIC_Send_Byte)
    i.CT_IIC_Start                           0x080007b0   Section        0  ctiic.o(i.CT_IIC_Start)
    i.CT_IIC_Stop                            0x08000808   Section        0  ctiic.o(i.CT_IIC_Stop)
    i.CT_IIC_Wait_Ack                        0x08000854   Section        0  ctiic.o(i.CT_IIC_Wait_Ack)
    i.DMA2_Stream0_IRQHandler                0x080008b8   Section        0  stm32f7xx_it.o(i.DMA2_Stream0_IRQHandler)
    i.DMA_CalcBaseAndBitshift                0x080008c4   Section        0  stm32f7xx_hal_dma.o(i.DMA_CalcBaseAndBitshift)
    DMA_CalcBaseAndBitshift                  0x080008c5   Thumb Code    34  stm32f7xx_hal_dma.o(i.DMA_CalcBaseAndBitshift)
    i.DMA_CheckFifoParam                     0x080008ec   Section        0  stm32f7xx_hal_dma.o(i.DMA_CheckFifoParam)
    DMA_CheckFifoParam                       0x080008ed   Thumb Code    84  stm32f7xx_hal_dma.o(i.DMA_CheckFifoParam)
    i.DebugMon_Handler                       0x08000940   Section        0  stm32f7xx_it.o(i.DebugMon_Handler)
    i.Error_Handler                          0x08000942   Section        0  main.o(i.Error_Handler)
    i.FMC_SDRAM_Init                         0x08000944   Section        0  stm32f7xx_ll_fmc.o(i.FMC_SDRAM_Init)
    i.FMC_SDRAM_ProgramRefreshRate           0x080009a2   Section        0  stm32f7xx_ll_fmc.o(i.FMC_SDRAM_ProgramRefreshRate)
    i.FMC_SDRAM_SendCommand                  0x080009ae   Section        0  stm32f7xx_ll_fmc.o(i.FMC_SDRAM_SendCommand)
    i.FMC_SDRAM_Timing_Init                  0x080009d4   Section        0  stm32f7xx_ll_fmc.o(i.FMC_SDRAM_Timing_Init)
    i.GT9147_Init                            0x08000a60   Section        0  gt9147.o(i.GT9147_Init)
    i.GT9147_RD_Reg                          0x08000ba4   Section        0  gt9147.o(i.GT9147_RD_Reg)
    i.GT9147_Scan                            0x08000c04   Section        0  gt9147.o(i.GT9147_Scan)
    i.GT9147_Send_Cfg                        0x08000e10   Section        0  gt9147.o(i.GT9147_Send_Cfg)
    i.GT9147_WR_Reg                          0x08000e60   Section        0  gt9147.o(i.GT9147_WR_Reg)
    i.HAL_ADC_ConfigChannel                  0x08000eb4   Section        0  stm32f7xx_hal_adc.o(i.HAL_ADC_ConfigChannel)
    i.HAL_ADC_Init                           0x0800105c   Section        0  stm32f7xx_hal_adc.o(i.HAL_ADC_Init)
    i.HAL_ADC_MspInit                        0x080010b0   Section        0  adc.o(i.HAL_ADC_MspInit)
    i.HAL_DMA2D_ConfigLayer                  0x08001148   Section        0  stm32f7xx_hal_dma2d.o(i.HAL_DMA2D_ConfigLayer)
    i.HAL_DMA2D_Init                         0x08001200   Section        0  stm32f7xx_hal_dma2d.o(i.HAL_DMA2D_Init)
    i.HAL_DMA2D_MspInit                      0x08001270   Section        0  dma2d.o(i.HAL_DMA2D_MspInit)
    i.HAL_DMA_Abort                          0x08001298   Section        0  stm32f7xx_hal_dma.o(i.HAL_DMA_Abort)
    i.HAL_DMA_Abort_IT                       0x0800132a   Section        0  stm32f7xx_hal_dma.o(i.HAL_DMA_Abort_IT)
    i.HAL_DMA_IRQHandler                     0x08001350   Section        0  stm32f7xx_hal_dma.o(i.HAL_DMA_IRQHandler)
    i.HAL_DMA_Init                           0x080014f0   Section        0  stm32f7xx_hal_dma.o(i.HAL_DMA_Init)
    i.HAL_Delay                              0x080015d4   Section        0  stm32f7xx_hal.o(i.HAL_Delay)
    i.HAL_FMC_MspInit                        0x080015f8   Section        0  fmc.o(i.HAL_FMC_MspInit)
    HAL_FMC_MspInit                          0x080015f9   Thumb Code   132  fmc.o(i.HAL_FMC_MspInit)
    i.HAL_GPIO_Init                          0x08001698   Section        0  stm32f7xx_hal_gpio.o(i.HAL_GPIO_Init)
    i.HAL_GPIO_ReadPin                       0x08001870   Section        0  stm32f7xx_hal_gpio.o(i.HAL_GPIO_ReadPin)
    i.HAL_GPIO_WritePin                      0x0800187a   Section        0  stm32f7xx_hal_gpio.o(i.HAL_GPIO_WritePin)
    i.HAL_GetTick                            0x08001884   Section        0  stm32f7xx_hal.o(i.HAL_GetTick)
    i.HAL_IncTick                            0x08001890   Section        0  stm32f7xx_hal.o(i.HAL_IncTick)
    i.HAL_Init                               0x080018a0   Section        0  stm32f7xx_hal.o(i.HAL_Init)
    i.HAL_InitTick                           0x080018b8   Section        0  stm32f7xx_hal.o(i.HAL_InitTick)
    i.HAL_LTDC_ConfigLayer                   0x080018f8   Section        0  stm32f7xx_hal_ltdc.o(i.HAL_LTDC_ConfigLayer)
    i.HAL_LTDC_Init                          0x0800194c   Section        0  stm32f7xx_hal_ltdc.o(i.HAL_LTDC_Init)
    i.HAL_LTDC_MspInit                       0x08001a44   Section        0  ltdc.o(i.HAL_LTDC_MspInit)
    i.HAL_LTDC_SetWindowPosition             0x08001b28   Section        0  stm32f7xx_hal_ltdc.o(i.HAL_LTDC_SetWindowPosition)
    i.HAL_LTDC_SetWindowSize                 0x08001b7c   Section        0  stm32f7xx_hal_ltdc.o(i.HAL_LTDC_SetWindowSize)
    i.HAL_MspInit                            0x08001bd0   Section        0  stm32f7xx_hal_msp.o(i.HAL_MspInit)
    i.HAL_NVIC_EnableIRQ                     0x08001c00   Section        0  stm32f7xx_hal_cortex.o(i.HAL_NVIC_EnableIRQ)
    i.HAL_NVIC_SetPriority                   0x08001c1c   Section        0  stm32f7xx_hal_cortex.o(i.HAL_NVIC_SetPriority)
    i.HAL_NVIC_SetPriorityGrouping           0x08001c5c   Section        0  stm32f7xx_hal_cortex.o(i.HAL_NVIC_SetPriorityGrouping)
    i.HAL_PWREx_EnableOverDrive              0x08001c80   Section        0  stm32f7xx_hal_pwr_ex.o(i.HAL_PWREx_EnableOverDrive)
    i.HAL_PWR_EnableBkUpAccess               0x08001cec   Section        0  stm32f7xx_hal_pwr.o(i.HAL_PWR_EnableBkUpAccess)
    i.HAL_RCCEx_PeriphCLKConfig              0x08001cfc   Section        0  stm32f7xx_hal_rcc_ex.o(i.HAL_RCCEx_PeriphCLKConfig)
    i.HAL_RCC_ClockConfig                    0x08002238   Section        0  stm32f7xx_hal_rcc.o(i.HAL_RCC_ClockConfig)
    i.HAL_RCC_GetSysClockFreq                0x08002368   Section        0  stm32f7xx_hal_rcc.o(i.HAL_RCC_GetSysClockFreq)
    i.HAL_RCC_OscConfig                      0x080023cc   Section        0  stm32f7xx_hal_rcc.o(i.HAL_RCC_OscConfig)
    i.HAL_SDRAM_Init                         0x08002764   Section        0  stm32f7xx_hal_sdram.o(i.HAL_SDRAM_Init)
    i.HAL_SDRAM_MspInit                      0x080027a6   Section        0  fmc.o(i.HAL_SDRAM_MspInit)
    i.HAL_SDRAM_ProgramRefreshRate           0x080027aa   Section        0  stm32f7xx_hal_sdram.o(i.HAL_SDRAM_ProgramRefreshRate)
    i.HAL_SDRAM_SendCommand                  0x080027cc   Section        0  stm32f7xx_hal_sdram.o(i.HAL_SDRAM_SendCommand)
    i.HAL_SYSTICK_CLKSourceConfig            0x080027fc   Section        0  stm32f7xx_hal_cortex.o(i.HAL_SYSTICK_CLKSourceConfig)
    i.HAL_SYSTICK_Config                     0x08002814   Section        0  stm32f7xx_hal_cortex.o(i.HAL_SYSTICK_Config)
    i.HAL_TIMEx_MasterConfigSynchronization  0x0800283c   Section        0  stm32f7xx_hal_tim_ex.o(i.HAL_TIMEx_MasterConfigSynchronization)
    i.HAL_TIM_Base_Init                      0x080028e0   Section        0  stm32f7xx_hal_tim.o(i.HAL_TIM_Base_Init)
    i.HAL_TIM_Base_MspInit                   0x08002944   Section        0  tim.o(i.HAL_TIM_Base_MspInit)
    i.HAL_TIM_ConfigClockSource              0x08002968   Section        0  stm32f7xx_hal_tim.o(i.HAL_TIM_ConfigClockSource)
    i.HAL_TIM_PWM_ConfigChannel              0x08002a44   Section        0  stm32f7xx_hal_tim.o(i.HAL_TIM_PWM_ConfigChannel)
    i.HAL_TIM_PWM_Init                       0x08002b62   Section        0  stm32f7xx_hal_tim.o(i.HAL_TIM_PWM_Init)
    i.HAL_TIM_PWM_MspInit                    0x08002bc4   Section        0  stm32f7xx_hal_tim.o(i.HAL_TIM_PWM_MspInit)
    i.HAL_UARTEx_RxEventCallback             0x08002bc6   Section        0  stm32f7xx_hal_uart.o(i.HAL_UARTEx_RxEventCallback)
    i.HAL_UARTEx_WakeupCallback              0x08002bc8   Section        0  stm32f7xx_hal_uart.o(i.HAL_UARTEx_WakeupCallback)
    i.HAL_UART_ErrorCallback                 0x08002bca   Section        0  stm32f7xx_hal_uart.o(i.HAL_UART_ErrorCallback)
    i.HAL_UART_IRQHandler                    0x08002bcc   Section        0  stm32f7xx_hal_uart.o(i.HAL_UART_IRQHandler)
    i.HAL_UART_Receive                       0x08002e00   Section        0  stm32f7xx_hal_uart.o(i.HAL_UART_Receive)
    i.HAL_UART_TxCpltCallback                0x08002ef8   Section        0  stm32f7xx_hal_uart.o(i.HAL_UART_TxCpltCallback)
    i.HardFault_Handler                      0x08002efa   Section        0  stm32f7xx_it.o(i.HardFault_Handler)
    i.IIC_Ack                                0x08002efc   Section        0  myiic.o(i.IIC_Ack)
    i.IIC_NAck                               0x08002f4c   Section        0  myiic.o(i.IIC_NAck)
    i.IIC_Read_Byte                          0x08002f9c   Section        0  myiic.o(i.IIC_Read_Byte)
    i.IIC_Send_Byte                          0x08003004   Section        0  myiic.o(i.IIC_Send_Byte)
    i.IIC_Start                              0x08003070   Section        0  myiic.o(i.IIC_Start)
    i.IIC_Stop                               0x080030c0   Section        0  myiic.o(i.IIC_Stop)
    i.IIC_Wait_Ack                           0x08003110   Section        0  myiic.o(i.IIC_Wait_Ack)
    i.LCD_Clear                              0x08003174   Section        0  lcd.o(i.LCD_Clear)
    i.LCD_Display_Dir                        0x080031bc   Section        0  lcd.o(i.LCD_Display_Dir)
    i.LCD_DrawLine                           0x080032b0   Section        0  lcd.o(i.LCD_DrawLine)
    i.LCD_DrawPoint                          0x08003348   Section        0  lcd.o(i.LCD_DrawPoint)
    i.LCD_DrawRectangle                      0x08003378   Section        0  lcd.o(i.LCD_DrawRectangle)
    i.LCD_Draw_Circle                        0x080033b2   Section        0  lcd.o(i.LCD_Draw_Circle)
    i.LCD_Fast_DrawPoint                     0x08003464   Section        0  lcd.o(i.LCD_Fast_DrawPoint)
    i.LCD_Fill                               0x08003558   Section        0  lcd.o(i.LCD_Fill)
    i.LCD_Init                               0x080035b8   Section        0  lcd.o(i.LCD_Init)
    i.LCD_Page_Prepare                       0x080036ac   Section        0  lcd_page.o(i.LCD_Page_Prepare)
    i.LCD_Pow                                0x08003738   Section        0  lcd.o(i.LCD_Pow)
    i.LCD_Prepare                            0x08003748   Section        0  mlcd.o(i.LCD_Prepare)
    i.LCD_Scan_Dir                           0x080037a4   Section        0  lcd.o(i.LCD_Scan_Dir)
    i.LCD_SetCursor                          0x0800395c   Section        0  lcd.o(i.LCD_SetCursor)
    i.LCD_ShowChar                           0x08003a60   Section        0  lcd.o(i.LCD_ShowChar)
    i.LCD_ShowNum                            0x08003b44   Section        0  lcd.o(i.LCD_ShowNum)
    i.LCD_ShowString                         0x08003bbc   Section        0  lcd.o(i.LCD_ShowString)
    i.LCD_WR_DATA                            0x08003c10   Section        0  lcd.o(i.LCD_WR_DATA)
    i.LCD_WR_REG                             0x08003c28   Section        0  lcd.o(i.LCD_WR_REG)
    i.LCD_WriteRAM_Prepare                   0x08003c40   Section        0  lcd.o(i.LCD_WriteRAM_Prepare)
    i.LCD_WriteReg                           0x08003c54   Section        0  lcd.o(i.LCD_WriteReg)
    i.LTDC_Clear                             0x08003c64   Section        0  ltdc.o(i.LTDC_Clear)
    i.LTDC_Display_Dir                       0x08003c84   Section        0  ltdc.o(i.LTDC_Display_Dir)
    i.LTDC_Draw_Point                        0x08003ca8   Section        0  ltdc.o(i.LTDC_Draw_Point)
    i.LTDC_Fill                              0x08003ce4   Section        0  ltdc.o(i.LTDC_Fill)
    i.LTDC_Layer_Parameter_Config            0x08003d98   Section        0  lcd.o(i.LTDC_Layer_Parameter_Config)
    i.LTDC_Select_Layer                      0x08003df8   Section        0  ltdc.o(i.LTDC_Select_Layer)
    i.LTDC_SetConfig                         0x08003e04   Section        0  stm32f7xx_hal_ltdc.o(i.LTDC_SetConfig)
    LTDC_SetConfig                           0x08003e05   Thumb Code   464  stm32f7xx_hal_ltdc.o(i.LTDC_SetConfig)
    i.MX_ADC1_Init                           0x08003fd4   Section        0  adc.o(i.MX_ADC1_Init)
    i.MX_DMA2D_Init                          0x08004034   Section        0  dma2d.o(i.MX_DMA2D_Init)
    i.MX_DMA_Init                            0x0800407c   Section        0  dma.o(i.MX_DMA_Init)
    i.MX_FMC_Init                            0x080040a8   Section        0  fmc.o(i.MX_FMC_Init)
    i.MX_GPIO_Init                           0x08004114   Section        0  gpio.o(i.MX_GPIO_Init)
    i.MX_LTDC_Init                           0x0800422c   Section        0  ltdc.o(i.MX_LTDC_Init)
    i.MX_TIM2_Init                           0x0800430c   Section        0  tim.o(i.MX_TIM2_Init)
    i.MemManage_Handler                      0x080043a4   Section        0  stm32f7xx_it.o(i.MemManage_Handler)
    i.Method_LCD_Add_Page                    0x080043a8   Section        0  mlcd.o(i.Method_LCD_Add_Page)
    i.Method_LCD_Init                        0x08004404   Section        0  mlcd.o(i.Method_LCD_Init)
    i.Method_LCD_Page_Add_Button             0x08004414   Section        0  lcd_page.o(i.Method_LCD_Page_Add_Button)
    i.Method_LCD_Page_Add_Line               0x08004474   Section        0  lcd_page.o(i.Method_LCD_Page_Add_Line)
    i.Method_LCD_Page_Button_Show_Init       0x08004488   Section        0  lcd_page.o(i.Method_LCD_Page_Button_Show_Init)
    i.Method_LCD_Page_Button_Touch_Scan      0x080044e4   Section        0  lcd_page.o(i.Method_LCD_Page_Button_Touch_Scan)
    i.Method_LCD_Page_Change_Display_direction 0x08004558   Section        0  lcd_page.o(i.Method_LCD_Page_Change_Display_direction)
    i.Method_LCD_Page_Refresh_Button         0x08004584   Section        0  lcd_page.o(i.Method_LCD_Page_Refresh_Button)
    i.Method_LCD_Page_Touch_Function         0x08004614   Section        0  lcd_page.o(i.Method_LCD_Page_Touch_Function)
    i.Method_LCD_Refresh_Button              0x08004636   Section        0  mlcd.o(i.Method_LCD_Refresh_Button)
    i.Method_LCD_Run                         0x0800463c   Section        0  mlcd.o(i.Method_LCD_Run)
    i.Method_LCD_Show_Init                   0x08004688   Section        0  mlcd.o(i.Method_LCD_Show_Init)
    i.NMI_Handler                            0x0800468e   Section        0  stm32f7xx_it.o(i.NMI_Handler)
    i.OTT2001A_Init                          0x08004690   Section        0  ott2001a.o(i.OTT2001A_Init)
    i.OTT2001A_RD_Reg                        0x0800474c   Section        0  ott2001a.o(i.OTT2001A_RD_Reg)
    i.OTT2001A_Scan                          0x080047ac   Section        0  ott2001a.o(i.OTT2001A_Scan)
    i.OTT2001A_SensorControl                 0x08004930   Section        0  ott2001a.o(i.OTT2001A_SensorControl)
    i.OTT2001A_WR_Reg                        0x0800494e   Section        0  ott2001a.o(i.OTT2001A_WR_Reg)
    i.Page1_Init_Show                        0x080049a0   Section        0  variable.o(i.Page1_Init_Show)
    i.Page1_Refresh                          0x080049d4   Section        0  variable.o(i.Page1_Refresh)
    i.PendSV_Handler                         0x080049d6   Section        0  stm32f7xx_it.o(i.PendSV_Handler)
    i.SDRAM_Initialization_Sequence          0x080049d8   Section        0  fmc.o(i.SDRAM_Initialization_Sequence)
    i.SDRAM_Send_Cmd                         0x08004a24   Section        0  fmc.o(i.SDRAM_Send_Cmd)
    i.SVC_Handler                            0x08004a5c   Section        0  stm32f7xx_it.o(i.SVC_Handler)
    i.SysTick_Handler                        0x08004a5e   Section        0  stm32f7xx_it.o(i.SysTick_Handler)
    i.SystemClock_Config                     0x08004a64   Section        0  main.o(i.SystemClock_Config)
    i.SystemInit                             0x08004b14   Section        0  system_stm32f7xx.o(i.SystemInit)
    i.TIM_Base_SetConfig                     0x08004b68   Section        0  stm32f7xx_hal_tim.o(i.TIM_Base_SetConfig)
    i.TIM_ETR_SetConfig                      0x08004c34   Section        0  stm32f7xx_hal_tim.o(i.TIM_ETR_SetConfig)
    i.TIM_ITRx_SetConfig                     0x08004c46   Section        0  stm32f7xx_hal_tim.o(i.TIM_ITRx_SetConfig)
    TIM_ITRx_SetConfig                       0x08004c47   Thumb Code    16  stm32f7xx_hal_tim.o(i.TIM_ITRx_SetConfig)
    i.TIM_OC1_SetConfig                      0x08004c58   Section        0  stm32f7xx_hal_tim.o(i.TIM_OC1_SetConfig)
    TIM_OC1_SetConfig                        0x08004c59   Thumb Code   102  stm32f7xx_hal_tim.o(i.TIM_OC1_SetConfig)
    i.TIM_OC2_SetConfig                      0x08004ccc   Section        0  stm32f7xx_hal_tim.o(i.TIM_OC2_SetConfig)
    i.TIM_OC3_SetConfig                      0x08004d44   Section        0  stm32f7xx_hal_tim.o(i.TIM_OC3_SetConfig)
    TIM_OC3_SetConfig                        0x08004d45   Thumb Code   108  stm32f7xx_hal_tim.o(i.TIM_OC3_SetConfig)
    i.TIM_OC4_SetConfig                      0x08004dbc   Section        0  stm32f7xx_hal_tim.o(i.TIM_OC4_SetConfig)
    TIM_OC4_SetConfig                        0x08004dbd   Thumb Code    76  stm32f7xx_hal_tim.o(i.TIM_OC4_SetConfig)
    i.TIM_OC5_SetConfig                      0x08004e14   Section        0  stm32f7xx_hal_tim.o(i.TIM_OC5_SetConfig)
    TIM_OC5_SetConfig                        0x08004e15   Thumb Code    74  stm32f7xx_hal_tim.o(i.TIM_OC5_SetConfig)
    i.TIM_OC6_SetConfig                      0x08004e6c   Section        0  stm32f7xx_hal_tim.o(i.TIM_OC6_SetConfig)
    TIM_OC6_SetConfig                        0x08004e6d   Thumb Code    74  stm32f7xx_hal_tim.o(i.TIM_OC6_SetConfig)
    i.TIM_TI1_ConfigInputStage               0x08004ec4   Section        0  stm32f7xx_hal_tim.o(i.TIM_TI1_ConfigInputStage)
    TIM_TI1_ConfigInputStage                 0x08004ec5   Thumb Code    34  stm32f7xx_hal_tim.o(i.TIM_TI1_ConfigInputStage)
    i.TIM_TI2_ConfigInputStage               0x08004ee6   Section        0  stm32f7xx_hal_tim.o(i.TIM_TI2_ConfigInputStage)
    TIM_TI2_ConfigInputStage                 0x08004ee7   Thumb Code    36  stm32f7xx_hal_tim.o(i.TIM_TI2_ConfigInputStage)
    i.TP_Adj_Info_Show                       0x08004f0c   Section        0  touch.o(i.TP_Adj_Info_Show)
    i.TP_Adjust                              0x08005084   Section        0  touch.o(i.TP_Adjust)
    i.TP_Drow_Touch_Point                    0x08005658   Section        0  touch.o(i.TP_Drow_Touch_Point)
    i.TP_Get_Adjdata                         0x080056cc   Section        0  touch.o(i.TP_Get_Adjdata)
    i.TP_Init                                0x08005760   Section        0  touch.o(i.TP_Init)
    i.TP_Read_AD                             0x080057a4   Section        0  touch.o(i.TP_Read_AD)
    i.TP_Read_XOY                            0x0800586c   Section        0  touch.o(i.TP_Read_XOY)
    i.TP_Read_XY                             0x080058d0   Section        0  touch.o(i.TP_Read_XY)
    i.TP_Read_XY2                            0x080058f8   Section        0  touch.o(i.TP_Read_XY2)
    i.TP_Save_Adjdata                        0x08005974   Section        0  touch.o(i.TP_Save_Adjdata)
    i.TP_Scan                                0x080059ec   Section        0  touch.o(i.TP_Scan)
    i.TP_Write_Byte                          0x08005aa8   Section        0  touch.o(i.TP_Write_Byte)
    i.UART_DMAAbortOnError                   0x08005af8   Section        0  stm32f7xx_hal_uart.o(i.UART_DMAAbortOnError)
    UART_DMAAbortOnError                     0x08005af9   Thumb Code    20  stm32f7xx_hal_uart.o(i.UART_DMAAbortOnError)
    i.UART_EndRxTransfer                     0x08005b0c   Section        0  stm32f7xx_hal_uart.o(i.UART_EndRxTransfer)
    UART_EndRxTransfer                       0x08005b0d   Thumb Code    48  stm32f7xx_hal_uart.o(i.UART_EndRxTransfer)
    i.UART_WaitOnFlagUntilTimeout            0x08005b3c   Section        0  stm32f7xx_hal_uart.o(i.UART_WaitOnFlagUntilTimeout)
    i.USART1_IRQHandler                      0x08005be0   Section        0  usart.o(i.USART1_IRQHandler)
    i.UsageFault_Handler                     0x08005c4c   Section        0  stm32f7xx_it.o(i.UsageFault_Handler)
    i.Variable_Init                          0x08005c50   Section        0  variable.o(i.Variable_Init)
    i.__0printf$5                            0x08005cdc   Section        0  printf5.o(i.__0printf$5)
    i.__NVIC_SetPriority                     0x08005cfc   Section        0  stm32f7xx_hal_cortex.o(i.__NVIC_SetPriority)
    __NVIC_SetPriority                       0x08005cfd   Thumb Code    34  stm32f7xx_hal_cortex.o(i.__NVIC_SetPriority)
    i.__hardfp_sqrt                          0x08005d1e   Section        0  sqrt.o(i.__hardfp_sqrt)
    i.__scatterload_copy                     0x08005d84   Section       14  handlers.o(i.__scatterload_copy)
    i.__scatterload_null                     0x08005d92   Section        2  handlers.o(i.__scatterload_null)
    i.__scatterload_zeroinit                 0x08005d94   Section       14  handlers.o(i.__scatterload_zeroinit)
    i.__set_errno                            0x08005da4   Section        0  errno.o(i.__set_errno)
    i._printf_core                           0x08005db0   Section        0  printf5.o(i._printf_core)
    _printf_core                             0x08005db1   Thumb Code   658  printf5.o(i._printf_core)
    i.delay_init                             0x08006070   Section        0  delay.o(i.delay_init)
    i.delay_ms                               0x08006084   Section        0  delay.o(i.delay_ms)
    i.delay_us                               0x080060a0   Section        0  delay.o(i.delay_us)
    i.fputc                                  0x080060d4   Section        0  usart.o(i.fputc)
    i.main                                   0x080060e8   Section        0  main.o(i.main)
    i.malloc                                 0x08006148   Section        0  malloc.o(i.malloc)
    .constdata                               0x080061b4   Section        8  stm32f7xx_hal_dma.o(.constdata)
    flagBitshiftOffset                       0x080061b4   Data           8  stm32f7xx_hal_dma.o(.constdata)
    .constdata                               0x080061bc   Section       16  system_stm32f7xx.o(.constdata)
    .constdata                               0x080061cc   Section    18240  lcd.o(.constdata)
    .constdata                               0x0800a90c   Section      194  gt9147.o(.constdata)
    .constdata                               0x0800a9ce   Section       10  ott2001a.o(.constdata)
    .constdata                               0x0800a9d8   Section        4  touch.o(.constdata)
    .conststring                             0x0800a9dc   Section      121  touch.o(.conststring)
    .data                                    0x20000000   Section        8  fmc.o(.data)
    FMC_Initialized                          0x20000000   Data           4  fmc.o(.data)
    FMC_DeInitialized                        0x20000004   Data           4  fmc.o(.data)
    .data                                    0x20000008   Section        8  ltdc.o(.data)
    .data                                    0x20000010   Section       12  stm32f7xx_hal.o(.data)
    .data                                    0x2000001c   Section        4  system_stm32f7xx.o(.data)
    .data                                    0x20000020   Section       84  variable.o(.data)
    .data                                    0x20000074   Section        4  delay.o(.data)
    fac_us                                   0x20000074   Data           4  delay.o(.data)
    .data                                    0x20000078   Section        2  usart.o(.data)
    .data                                    0x2000007c   Section        4  usart.o(.data)
    .data                                    0x20000080   Section        8  lcd.o(.data)
    .data                                    0x20000088   Section        1  gt9147.o(.data)
    t                                        0x20000088   Data           1  gt9147.o(.data)
    .data                                    0x20000089   Section        1  ott2001a.o(.data)
    t                                        0x20000089   Data           1  ott2001a.o(.data)
    .data                                    0x2000008c   Section       76  touch.o(.data)
    .data                                    0x200000d8   Section        4  mvars.o(.data)
    .data                                    0x200000dc   Section        4  mvars.o(.data)
    .data                                    0x200000e0   Section        4  errno.o(.data)
    _errno                                   0x200000e0   Data           4  errno.o(.data)
    .bss                                     0x200000e4   Section      168  adc.o(.bss)
    .bss                                     0x2000018c   Section       88  dma2d.o(.bss)
    .bss                                     0x200001e4   Section       52  fmc.o(.bss)
    .bss                                     0x20000218   Section      368  ltdc.o(.bss)
    .bss                                     0x20000388   Section       76  tim.o(.bss)
    .bss                                     0x200003d4   Section       96  variable.o(.bss)
    .bss                                     0x20000434   Section      332  usart.o(.bss)
    .bss                                     0x20000580   Section       14  lcd.o(.bss)
    HEAP                                     0x20000590   Section      512  startup_stm32f767xx.o(HEAP)
    STACK                                    0x20000790   Section     1024  startup_stm32f767xx.o(STACK)
    .ARM.__AT_0xC0000000                     0xc0000000   Section    2048000  lcd.o(.ARM.__AT_0xC0000000)

    Global Symbols

    Symbol Name                              Value     Ov Type        Size  Object(Section)

    BuildAttributes$$THM_ISAv4$E$P$D$K$B$S$7EM$VFPv5_D16$PE$PLD8$A:L22UL41UL21$X:L11$S22US41US21$IEEE1$IW$USESV6$~STKCKD$USESV7$~SHL$OTIME$ROPI$IEEEJ$EBA8$MICROLIB$REQ8$PRES8$EABIv2 0x00000000   Number         0  anon$$obj.o ABSOLUTE
    __ARM_use_no_argv                        0x00000000   Number         0  main.o ABSOLUTE
    __use_no_errno                           0x00000000   Number         0  useno.o ABSOLUTE
    __use_no_exception_handling              0x00000000   Number         0  useno.o ABSOLUTE
    __use_no_fp                              0x00000000   Number         0  useno.o ABSOLUTE
    __use_no_heap                            0x00000000   Number         0  useno.o ABSOLUTE
    __use_no_heap_region                     0x00000000   Number         0  useno.o ABSOLUTE
    __use_no_semihosting                     0x00000000   Number         0  useno.o ABSOLUTE
    __use_no_semihosting_swi                 0x00000000   Number         0  useno.o ABSOLUTE
    __use_no_signal_handling                 0x00000000   Number         0  useno.o ABSOLUTE
    _printf_a                                0x00000000   Number         0  stubs.o ABSOLUTE
    _printf_c                                0x00000000   Number         0  stubs.o ABSOLUTE
    _printf_charcount                        0x00000000   Number         0  stubs.o ABSOLUTE
    _printf_d                                0x00000000   Number         0  stubs.o ABSOLUTE
    _printf_e                                0x00000000   Number         0  stubs.o ABSOLUTE
    _printf_f                                0x00000000   Number         0  stubs.o ABSOLUTE
    _printf_flags                            0x00000000   Number         0  stubs.o ABSOLUTE
    _printf_fp_dec                           0x00000000   Number         0  stubs.o ABSOLUTE
    _printf_fp_hex                           0x00000000   Number         0  stubs.o ABSOLUTE
    _printf_g                                0x00000000   Number         0  stubs.o ABSOLUTE
    _printf_i                                0x00000000   Number         0  stubs.o ABSOLUTE
    _printf_int_dec                          0x00000000   Number         0  stubs.o ABSOLUTE
    _printf_l                                0x00000000   Number         0  stubs.o ABSOLUTE
    _printf_lc                               0x00000000   Number         0  stubs.o ABSOLUTE
    _printf_ll                               0x00000000   Number         0  stubs.o ABSOLUTE
    _printf_lld                              0x00000000   Number         0  stubs.o ABSOLUTE
    _printf_lli                              0x00000000   Number         0  stubs.o ABSOLUTE
    _printf_llo                              0x00000000   Number         0  stubs.o ABSOLUTE
    _printf_llu                              0x00000000   Number         0  stubs.o ABSOLUTE
    _printf_llx                              0x00000000   Number         0  stubs.o ABSOLUTE
    _printf_longlong_dec                     0x00000000   Number         0  stubs.o ABSOLUTE
    _printf_longlong_hex                     0x00000000   Number         0  stubs.o ABSOLUTE
    _printf_longlong_oct                     0x00000000   Number         0  stubs.o ABSOLUTE
    _printf_ls                               0x00000000   Number         0  stubs.o ABSOLUTE
    _printf_mbtowc                           0x00000000   Number         0  stubs.o ABSOLUTE
    _printf_n                                0x00000000   Number         0  stubs.o ABSOLUTE
    _printf_o                                0x00000000   Number         0  stubs.o ABSOLUTE
    _printf_p                                0x00000000   Number         0  stubs.o ABSOLUTE
    _printf_percent                          0x00000000   Number         0  stubs.o ABSOLUTE
    _printf_pre_padding                      0x00000000   Number         0  stubs.o ABSOLUTE
    _printf_return_value                     0x00000000   Number         0  stubs.o ABSOLUTE
    _printf_s                                0x00000000   Number         0  stubs.o ABSOLUTE
    _printf_sizespec                         0x00000000   Number         0  stubs.o ABSOLUTE
    _printf_str                              0x00000000   Number         0  stubs.o ABSOLUTE
    _printf_truncate_signed                  0x00000000   Number         0  stubs.o ABSOLUTE
    _printf_truncate_unsigned                0x00000000   Number         0  stubs.o ABSOLUTE
    _printf_u                                0x00000000   Number         0  stubs.o ABSOLUTE
    _printf_wc                               0x00000000   Number         0  stubs.o ABSOLUTE
    _printf_wctomb                           0x00000000   Number         0  stubs.o ABSOLUTE
    _printf_widthprec                        0x00000000   Number         0  stubs.o ABSOLUTE
    _printf_x                                0x00000000   Number         0  stubs.o ABSOLUTE
    __cpp_initialize__aeabi_                  - Undefined Weak Reference
    __cxa_finalize                            - Undefined Weak Reference
    __decompress                              - Undefined Weak Reference
    _clock_init                               - Undefined Weak Reference
    _microlib_exit                            - Undefined Weak Reference
    __Vectors_Size                           0x000001f8   Number         0  startup_stm32f767xx.o ABSOLUTE
    __Vectors                                0x08000000   Data           4  startup_stm32f767xx.o(RESET)
    __Vectors_End                            0x080001f8   Data           0  startup_stm32f767xx.o(RESET)
    __main                                   0x080001f9   Thumb Code     0  entry.o(.ARM.Collect$$$$00000000)
    _main_stk                                0x080001f9   Thumb Code     0  entry2.o(.ARM.Collect$$$$00000001)
    _main_scatterload                        0x080001fd   Thumb Code     0  entry5.o(.ARM.Collect$$$$00000004)
    __main_after_scatterload                 0x08000201   Thumb Code     0  entry5.o(.ARM.Collect$$$$00000004)
    _main_clock                              0x08000201   Thumb Code     0  entry7b.o(.ARM.Collect$$$$00000008)
    _main_cpp_init                           0x08000201   Thumb Code     0  entry8b.o(.ARM.Collect$$$$0000000A)
    _main_init                               0x08000201   Thumb Code     0  entry9a.o(.ARM.Collect$$$$0000000B)
    __rt_final_cpp                           0x08000209   Thumb Code     0  entry10a.o(.ARM.Collect$$$$0000000D)
    __rt_final_exit                          0x08000209   Thumb Code     0  entry11a.o(.ARM.Collect$$$$0000000F)
    Reset_Handler                            0x0800020d   Thumb Code     8  startup_stm32f767xx.o(.text)
    ADC_IRQHandler                           0x08000227   Thumb Code     0  startup_stm32f767xx.o(.text)
    CAN1_RX0_IRQHandler                      0x08000227   Thumb Code     0  startup_stm32f767xx.o(.text)
    CAN1_RX1_IRQHandler                      0x08000227   Thumb Code     0  startup_stm32f767xx.o(.text)
    CAN1_SCE_IRQHandler                      0x08000227   Thumb Code     0  startup_stm32f767xx.o(.text)
    CAN1_TX_IRQHandler                       0x08000227   Thumb Code     0  startup_stm32f767xx.o(.text)
    CAN2_RX0_IRQHandler                      0x08000227   Thumb Code     0  startup_stm32f767xx.o(.text)
    CAN2_RX1_IRQHandler                      0x08000227   Thumb Code     0  startup_stm32f767xx.o(.text)
    CAN2_SCE_IRQHandler                      0x08000227   Thumb Code     0  startup_stm32f767xx.o(.text)
    CAN2_TX_IRQHandler                       0x08000227   Thumb Code     0  startup_stm32f767xx.o(.text)
    CAN3_RX0_IRQHandler                      0x08000227   Thumb Code     0  startup_stm32f767xx.o(.text)
    CAN3_RX1_IRQHandler                      0x08000227   Thumb Code     0  startup_stm32f767xx.o(.text)
    CAN3_SCE_IRQHandler                      0x08000227   Thumb Code     0  startup_stm32f767xx.o(.text)
    CAN3_TX_IRQHandler                       0x08000227   Thumb Code     0  startup_stm32f767xx.o(.text)
    CEC_IRQHandler                           0x08000227   Thumb Code     0  startup_stm32f767xx.o(.text)
    DCMI_IRQHandler                          0x08000227   Thumb Code     0  startup_stm32f767xx.o(.text)
    DFSDM1_FLT0_IRQHandler                   0x08000227   Thumb Code     0  startup_stm32f767xx.o(.text)
    DFSDM1_FLT1_IRQHandler                   0x08000227   Thumb Code     0  startup_stm32f767xx.o(.text)
    DFSDM1_FLT2_IRQHandler                   0x08000227   Thumb Code     0  startup_stm32f767xx.o(.text)
    DFSDM1_FLT3_IRQHandler                   0x08000227   Thumb Code     0  startup_stm32f767xx.o(.text)
    DMA1_Stream0_IRQHandler                  0x08000227   Thumb Code     0  startup_stm32f767xx.o(.text)
    DMA1_Stream1_IRQHandler                  0x08000227   Thumb Code     0  startup_stm32f767xx.o(.text)
    DMA1_Stream2_IRQHandler                  0x08000227   Thumb Code     0  startup_stm32f767xx.o(.text)
    DMA1_Stream3_IRQHandler                  0x08000227   Thumb Code     0  startup_stm32f767xx.o(.text)
    DMA1_Stream4_IRQHandler                  0x08000227   Thumb Code     0  startup_stm32f767xx.o(.text)
    DMA1_Stream5_IRQHandler                  0x08000227   Thumb Code     0  startup_stm32f767xx.o(.text)
    DMA1_Stream6_IRQHandler                  0x08000227   Thumb Code     0  startup_stm32f767xx.o(.text)
    DMA1_Stream7_IRQHandler                  0x08000227   Thumb Code     0  startup_stm32f767xx.o(.text)
    DMA2D_IRQHandler                         0x08000227   Thumb Code     0  startup_stm32f767xx.o(.text)
    DMA2_Stream1_IRQHandler                  0x08000227   Thumb Code     0  startup_stm32f767xx.o(.text)
    DMA2_Stream2_IRQHandler                  0x08000227   Thumb Code     0  startup_stm32f767xx.o(.text)
    DMA2_Stream3_IRQHandler                  0x08000227   Thumb Code     0  startup_stm32f767xx.o(.text)
    DMA2_Stream4_IRQHandler                  0x08000227   Thumb Code     0  startup_stm32f767xx.o(.text)
    DMA2_Stream5_IRQHandler                  0x08000227   Thumb Code     0  startup_stm32f767xx.o(.text)
    DMA2_Stream6_IRQHandler                  0x08000227   Thumb Code     0  startup_stm32f767xx.o(.text)
    DMA2_Stream7_IRQHandler                  0x08000227   Thumb Code     0  startup_stm32f767xx.o(.text)
    ETH_IRQHandler                           0x08000227   Thumb Code     0  startup_stm32f767xx.o(.text)
    ETH_WKUP_IRQHandler                      0x08000227   Thumb Code     0  startup_stm32f767xx.o(.text)
    EXTI0_IRQHandler                         0x08000227   Thumb Code     0  startup_stm32f767xx.o(.text)
    EXTI15_10_IRQHandler                     0x08000227   Thumb Code     0  startup_stm32f767xx.o(.text)
    EXTI1_IRQHandler                         0x08000227   Thumb Code     0  startup_stm32f767xx.o(.text)
    EXTI2_IRQHandler                         0x08000227   Thumb Code     0  startup_stm32f767xx.o(.text)
    EXTI3_IRQHandler                         0x08000227   Thumb Code     0  startup_stm32f767xx.o(.text)
    EXTI4_IRQHandler                         0x08000227   Thumb Code     0  startup_stm32f767xx.o(.text)
    EXTI9_5_IRQHandler                       0x08000227   Thumb Code     0  startup_stm32f767xx.o(.text)
    FLASH_IRQHandler                         0x08000227   Thumb Code     0  startup_stm32f767xx.o(.text)
    FMC_IRQHandler                           0x08000227   Thumb Code     0  startup_stm32f767xx.o(.text)
    FPU_IRQHandler                           0x08000227   Thumb Code     0  startup_stm32f767xx.o(.text)
    I2C1_ER_IRQHandler                       0x08000227   Thumb Code     0  startup_stm32f767xx.o(.text)
    I2C1_EV_IRQHandler                       0x08000227   Thumb Code     0  startup_stm32f767xx.o(.text)
    I2C2_ER_IRQHandler                       0x08000227   Thumb Code     0  startup_stm32f767xx.o(.text)
    I2C2_EV_IRQHandler                       0x08000227   Thumb Code     0  startup_stm32f767xx.o(.text)
    I2C3_ER_IRQHandler                       0x08000227   Thumb Code     0  startup_stm32f767xx.o(.text)
    I2C3_EV_IRQHandler                       0x08000227   Thumb Code     0  startup_stm32f767xx.o(.text)
    I2C4_ER_IRQHandler                       0x08000227   Thumb Code     0  startup_stm32f767xx.o(.text)
    I2C4_EV_IRQHandler                       0x08000227   Thumb Code     0  startup_stm32f767xx.o(.text)
    JPEG_IRQHandler                          0x08000227   Thumb Code     0  startup_stm32f767xx.o(.text)
    LPTIM1_IRQHandler                        0x08000227   Thumb Code     0  startup_stm32f767xx.o(.text)
    LTDC_ER_IRQHandler                       0x08000227   Thumb Code     0  startup_stm32f767xx.o(.text)
    LTDC_IRQHandler                          0x08000227   Thumb Code     0  startup_stm32f767xx.o(.text)
    MDIOS_IRQHandler                         0x08000227   Thumb Code     0  startup_stm32f767xx.o(.text)
    OTG_FS_IRQHandler                        0x08000227   Thumb Code     0  startup_stm32f767xx.o(.text)
    OTG_FS_WKUP_IRQHandler                   0x08000227   Thumb Code     0  startup_stm32f767xx.o(.text)
    OTG_HS_EP1_IN_IRQHandler                 0x08000227   Thumb Code     0  startup_stm32f767xx.o(.text)
    OTG_HS_EP1_OUT_IRQHandler                0x08000227   Thumb Code     0  startup_stm32f767xx.o(.text)
    OTG_HS_IRQHandler                        0x08000227   Thumb Code     0  startup_stm32f767xx.o(.text)
    OTG_HS_WKUP_IRQHandler                   0x08000227   Thumb Code     0  startup_stm32f767xx.o(.text)
    PVD_IRQHandler                           0x08000227   Thumb Code     0  startup_stm32f767xx.o(.text)
    QUADSPI_IRQHandler                       0x08000227   Thumb Code     0  startup_stm32f767xx.o(.text)
    RCC_IRQHandler                           0x08000227   Thumb Code     0  startup_stm32f767xx.o(.text)
    RNG_IRQHandler                           0x08000227   Thumb Code     0  startup_stm32f767xx.o(.text)
    RTC_Alarm_IRQHandler                     0x08000227   Thumb Code     0  startup_stm32f767xx.o(.text)
    RTC_WKUP_IRQHandler                      0x08000227   Thumb Code     0  startup_stm32f767xx.o(.text)
    SAI1_IRQHandler                          0x08000227   Thumb Code     0  startup_stm32f767xx.o(.text)
    SAI2_IRQHandler                          0x08000227   Thumb Code     0  startup_stm32f767xx.o(.text)
    SDMMC1_IRQHandler                        0x08000227   Thumb Code     0  startup_stm32f767xx.o(.text)
    SDMMC2_IRQHandler                        0x08000227   Thumb Code     0  startup_stm32f767xx.o(.text)
    SPDIF_RX_IRQHandler                      0x08000227   Thumb Code     0  startup_stm32f767xx.o(.text)
    SPI1_IRQHandler                          0x08000227   Thumb Code     0  startup_stm32f767xx.o(.text)
    SPI2_IRQHandler                          0x08000227   Thumb Code     0  startup_stm32f767xx.o(.text)
    SPI3_IRQHandler                          0x08000227   Thumb Code     0  startup_stm32f767xx.o(.text)
    SPI4_IRQHandler                          0x08000227   Thumb Code     0  startup_stm32f767xx.o(.text)
    SPI5_IRQHandler                          0x08000227   Thumb Code     0  startup_stm32f767xx.o(.text)
    SPI6_IRQHandler                          0x08000227   Thumb Code     0  startup_stm32f767xx.o(.text)
    TAMP_STAMP_IRQHandler                    0x08000227   Thumb Code     0  startup_stm32f767xx.o(.text)
    TIM1_BRK_TIM9_IRQHandler                 0x08000227   Thumb Code     0  startup_stm32f767xx.o(.text)
    TIM1_CC_IRQHandler                       0x08000227   Thumb Code     0  startup_stm32f767xx.o(.text)
    TIM1_TRG_COM_TIM11_IRQHandler            0x08000227   Thumb Code     0  startup_stm32f767xx.o(.text)
    TIM1_UP_TIM10_IRQHandler                 0x08000227   Thumb Code     0  startup_stm32f767xx.o(.text)
    TIM2_IRQHandler                          0x08000227   Thumb Code     0  startup_stm32f767xx.o(.text)
    TIM3_IRQHandler                          0x08000227   Thumb Code     0  startup_stm32f767xx.o(.text)
    TIM4_IRQHandler                          0x08000227   Thumb Code     0  startup_stm32f767xx.o(.text)
    TIM5_IRQHandler                          0x08000227   Thumb Code     0  startup_stm32f767xx.o(.text)
    TIM6_DAC_IRQHandler                      0x08000227   Thumb Code     0  startup_stm32f767xx.o(.text)
    TIM7_IRQHandler                          0x08000227   Thumb Code     0  startup_stm32f767xx.o(.text)
    TIM8_BRK_TIM12_IRQHandler                0x08000227   Thumb Code     0  startup_stm32f767xx.o(.text)
    TIM8_CC_IRQHandler                       0x08000227   Thumb Code     0  startup_stm32f767xx.o(.text)
    TIM8_TRG_COM_TIM14_IRQHandler            0x08000227   Thumb Code     0  startup_stm32f767xx.o(.text)
    TIM8_UP_TIM13_IRQHandler                 0x08000227   Thumb Code     0  startup_stm32f767xx.o(.text)
    UART4_IRQHandler                         0x08000227   Thumb Code     0  startup_stm32f767xx.o(.text)
    UART5_IRQHandler                         0x08000227   Thumb Code     0  startup_stm32f767xx.o(.text)
    UART7_IRQHandler                         0x08000227   Thumb Code     0  startup_stm32f767xx.o(.text)
    UART8_IRQHandler                         0x08000227   Thumb Code     0  startup_stm32f767xx.o(.text)
    USART2_IRQHandler                        0x08000227   Thumb Code     0  startup_stm32f767xx.o(.text)
    USART3_IRQHandler                        0x08000227   Thumb Code     0  startup_stm32f767xx.o(.text)
    USART6_IRQHandler                        0x08000227   Thumb Code     0  startup_stm32f767xx.o(.text)
    WWDG_IRQHandler                          0x08000227   Thumb Code     0  startup_stm32f767xx.o(.text)
    __aeabi_uldivmod                         0x08000231   Thumb Code    98  uldiv.o(.text)
    __aeabi_memcpy                           0x08000293   Thumb Code    36  memcpya.o(.text)
    __aeabi_memcpy4                          0x08000293   Thumb Code     0  memcpya.o(.text)
    __aeabi_memcpy8                          0x08000293   Thumb Code     0  memcpya.o(.text)
    __aeabi_memset                           0x080002b7   Thumb Code    14  memseta.o(.text)
    __aeabi_memset4                          0x080002b7   Thumb Code     0  memseta.o(.text)
    __aeabi_memset8                          0x080002b7   Thumb Code     0  memseta.o(.text)
    __aeabi_memclr                           0x080002c5   Thumb Code     4  memseta.o(.text)
    __aeabi_memclr4                          0x080002c5   Thumb Code     0  memseta.o(.text)
    __aeabi_memclr8                          0x080002c5   Thumb Code     0  memseta.o(.text)
    _memset$wrapper                          0x080002c9   Thumb Code    18  memseta.o(.text)
    strcmp                                   0x080002db   Thumb Code    28  strcmp.o(.text)
    __aeabi_llsl                             0x080002f7   Thumb Code    30  llshl.o(.text)
    _ll_shift_l                              0x080002f7   Thumb Code     0  llshl.o(.text)
    __aeabi_llsr                             0x08000315   Thumb Code    32  llushr.o(.text)
    _ll_ushift_r                             0x08000315   Thumb Code     0  llushr.o(.text)
    __I$use$fp                               0x08000335   Thumb Code     0  iusefp.o(.text)
    __scatterload                            0x08000335   Thumb Code    28  init.o(.text)
    __scatterload_rt2                        0x08000335   Thumb Code     0  init.o(.text)
    AT24CXX_ReadLenByte                      0x08000491   Thumb Code    40  24cxx.o(i.AT24CXX_ReadLenByte)
    AT24CXX_ReadOneByte                      0x080004b9   Thumb Code    66  24cxx.o(i.AT24CXX_ReadOneByte)
    AT24CXX_WriteLenByte                     0x080004fb   Thumb Code    42  24cxx.o(i.AT24CXX_WriteLenByte)
    AT24CXX_WriteOneByte                     0x08000525   Thumb Code    62  24cxx.o(i.AT24CXX_WriteOneByte)
    BusFault_Handler                         0x08000563   Thumb Code     2  stm32f7xx_it.o(i.BusFault_Handler)
    Button1_Function                         0x08000565   Thumb Code     6  variable.o(i.Button1_Function)
    Button2_Function                         0x08000581   Thumb Code     6  variable.o(i.Button2_Function)
    Button3_Function                         0x0800059d   Thumb Code     6  variable.o(i.Button3_Function)
    CT_IIC_Ack                               0x080005b9   Thumb Code    84  ctiic.o(i.CT_IIC_Ack)
    CT_IIC_Init                              0x08000615   Thumb Code    76  ctiic.o(i.CT_IIC_Init)
    CT_IIC_NAck                              0x0800066d   Thumb Code    84  ctiic.o(i.CT_IIC_NAck)
    CT_IIC_Read_Byte                         0x080006c9   Thumb Code   104  ctiic.o(i.CT_IIC_Read_Byte)
    CT_IIC_Send_Byte                         0x08000739   Thumb Code   110  ctiic.o(i.CT_IIC_Send_Byte)
    CT_IIC_Start                             0x080007b1   Thumb Code    78  ctiic.o(i.CT_IIC_Start)
    CT_IIC_Stop                              0x08000809   Thumb Code    66  ctiic.o(i.CT_IIC_Stop)
    CT_IIC_Wait_Ack                          0x08000855   Thumb Code    90  ctiic.o(i.CT_IIC_Wait_Ack)
    DMA2_Stream0_IRQHandler                  0x080008b9   Thumb Code     6  stm32f7xx_it.o(i.DMA2_Stream0_IRQHandler)
    DebugMon_Handler                         0x08000941   Thumb Code     2  stm32f7xx_it.o(i.DebugMon_Handler)
    Error_Handler                            0x08000943   Thumb Code     2  main.o(i.Error_Handler)
    FMC_SDRAM_Init                           0x08000945   Thumb Code    94  stm32f7xx_ll_fmc.o(i.FMC_SDRAM_Init)
    FMC_SDRAM_ProgramRefreshRate             0x080009a3   Thumb Code    12  stm32f7xx_ll_fmc.o(i.FMC_SDRAM_ProgramRefreshRate)
    FMC_SDRAM_SendCommand                    0x080009af   Thumb Code    38  stm32f7xx_ll_fmc.o(i.FMC_SDRAM_SendCommand)
    FMC_SDRAM_Timing_Init                    0x080009d5   Thumb Code   134  stm32f7xx_ll_fmc.o(i.FMC_SDRAM_Timing_Init)
    GT9147_Init                              0x08000a61   Thumb Code   268  gt9147.o(i.GT9147_Init)
    GT9147_RD_Reg                            0x08000ba5   Thumb Code    96  gt9147.o(i.GT9147_RD_Reg)
    GT9147_Scan                              0x08000c05   Thumb Code   506  gt9147.o(i.GT9147_Scan)
    GT9147_Send_Cfg                          0x08000e11   Thumb Code    74  gt9147.o(i.GT9147_Send_Cfg)
    GT9147_WR_Reg                            0x08000e61   Thumb Code    82  gt9147.o(i.GT9147_WR_Reg)
    HAL_ADC_ConfigChannel                    0x08000eb5   Thumb Code   408  stm32f7xx_hal_adc.o(i.HAL_ADC_ConfigChannel)
    HAL_ADC_Init                             0x0800105d   Thumb Code    84  stm32f7xx_hal_adc.o(i.HAL_ADC_Init)
    HAL_ADC_MspInit                          0x080010b1   Thumb Code   130  adc.o(i.HAL_ADC_MspInit)
    HAL_DMA2D_ConfigLayer                    0x08001149   Thumb Code   178  stm32f7xx_hal_dma2d.o(i.HAL_DMA2D_ConfigLayer)
    HAL_DMA2D_Init                           0x08001201   Thumb Code   112  stm32f7xx_hal_dma2d.o(i.HAL_DMA2D_Init)
    HAL_DMA2D_MspInit                        0x08001271   Thumb Code    30  dma2d.o(i.HAL_DMA2D_MspInit)
    HAL_DMA_Abort                            0x08001299   Thumb Code   146  stm32f7xx_hal_dma.o(i.HAL_DMA_Abort)
    HAL_DMA_Abort_IT                         0x0800132b   Thumb Code    36  stm32f7xx_hal_dma.o(i.HAL_DMA_Abort_IT)
    HAL_DMA_IRQHandler                       0x08001351   Thumb Code   412  stm32f7xx_hal_dma.o(i.HAL_DMA_IRQHandler)
    HAL_DMA_Init                             0x080014f1   Thumb Code   222  stm32f7xx_hal_dma.o(i.HAL_DMA_Init)
    HAL_Delay                                0x080015d5   Thumb Code    32  stm32f7xx_hal.o(i.HAL_Delay)
    HAL_GPIO_Init                            0x08001699   Thumb Code   420  stm32f7xx_hal_gpio.o(i.HAL_GPIO_Init)
    HAL_GPIO_ReadPin                         0x08001871   Thumb Code    10  stm32f7xx_hal_gpio.o(i.HAL_GPIO_ReadPin)
    HAL_GPIO_WritePin                        0x0800187b   Thumb Code    10  stm32f7xx_hal_gpio.o(i.HAL_GPIO_WritePin)
    HAL_GetTick                              0x08001885   Thumb Code     6  stm32f7xx_hal.o(i.HAL_GetTick)
    HAL_IncTick                              0x08001891   Thumb Code    12  stm32f7xx_hal.o(i.HAL_IncTick)
    HAL_Init                                 0x080018a1   Thumb Code    22  stm32f7xx_hal.o(i.HAL_Init)
    HAL_InitTick                             0x080018b9   Thumb Code    54  stm32f7xx_hal.o(i.HAL_InitTick)
    HAL_LTDC_ConfigLayer                     0x080018f9   Thumb Code    82  stm32f7xx_hal_ltdc.o(i.HAL_LTDC_ConfigLayer)
    HAL_LTDC_Init                            0x0800194d   Thumb Code   242  stm32f7xx_hal_ltdc.o(i.HAL_LTDC_Init)
    HAL_LTDC_MspInit                         0x08001a45   Thumb Code   204  ltdc.o(i.HAL_LTDC_MspInit)
    HAL_LTDC_SetWindowPosition               0x08001b29   Thumb Code    84  stm32f7xx_hal_ltdc.o(i.HAL_LTDC_SetWindowPosition)
    HAL_LTDC_SetWindowSize                   0x08001b7d   Thumb Code    84  stm32f7xx_hal_ltdc.o(i.HAL_LTDC_SetWindowSize)
    HAL_MspInit                              0x08001bd1   Thumb Code    42  stm32f7xx_hal_msp.o(i.HAL_MspInit)
    HAL_NVIC_EnableIRQ                       0x08001c01   Thumb Code    26  stm32f7xx_hal_cortex.o(i.HAL_NVIC_EnableIRQ)
    HAL_NVIC_SetPriority                     0x08001c1d   Thumb Code    60  stm32f7xx_hal_cortex.o(i.HAL_NVIC_SetPriority)
    HAL_NVIC_SetPriorityGrouping             0x08001c5d   Thumb Code    28  stm32f7xx_hal_cortex.o(i.HAL_NVIC_SetPriorityGrouping)
    HAL_PWREx_EnableOverDrive                0x08001c81   Thumb Code   100  stm32f7xx_hal_pwr_ex.o(i.HAL_PWREx_EnableOverDrive)
    HAL_PWR_EnableBkUpAccess                 0x08001ced   Thumb Code    12  stm32f7xx_hal_pwr.o(i.HAL_PWR_EnableBkUpAccess)
    HAL_RCCEx_PeriphCLKConfig                0x08001cfd   Thumb Code  1336  stm32f7xx_hal_rcc_ex.o(i.HAL_RCCEx_PeriphCLKConfig)
    HAL_RCC_ClockConfig                      0x08002239   Thumb Code   284  stm32f7xx_hal_rcc.o(i.HAL_RCC_ClockConfig)
    HAL_RCC_GetSysClockFreq                  0x08002369   Thumb Code    88  stm32f7xx_hal_rcc.o(i.HAL_RCC_GetSysClockFreq)
    HAL_RCC_OscConfig                        0x080023cd   Thumb Code   906  stm32f7xx_hal_rcc.o(i.HAL_RCC_OscConfig)
    HAL_SDRAM_Init                           0x08002765   Thumb Code    66  stm32f7xx_hal_sdram.o(i.HAL_SDRAM_Init)
    HAL_SDRAM_MspInit                        0x080027a7   Thumb Code     4  fmc.o(i.HAL_SDRAM_MspInit)
    HAL_SDRAM_ProgramRefreshRate             0x080027ab   Thumb Code    34  stm32f7xx_hal_sdram.o(i.HAL_SDRAM_ProgramRefreshRate)
    HAL_SDRAM_SendCommand                    0x080027cd   Thumb Code    48  stm32f7xx_hal_sdram.o(i.HAL_SDRAM_SendCommand)
    HAL_SYSTICK_CLKSourceConfig              0x080027fd   Thumb Code    24  stm32f7xx_hal_cortex.o(i.HAL_SYSTICK_CLKSourceConfig)
    HAL_SYSTICK_Config                       0x08002815   Thumb Code    38  stm32f7xx_hal_cortex.o(i.HAL_SYSTICK_Config)
    HAL_TIMEx_MasterConfigSynchronization    0x0800283d   Thumb Code   134  stm32f7xx_hal_tim_ex.o(i.HAL_TIMEx_MasterConfigSynchronization)
    HAL_TIM_Base_Init                        0x080028e1   Thumb Code    98  stm32f7xx_hal_tim.o(i.HAL_TIM_Base_Init)
    HAL_TIM_Base_MspInit                     0x08002945   Thumb Code    30  tim.o(i.HAL_TIM_Base_MspInit)
    HAL_TIM_ConfigClockSource                0x08002969   Thumb Code   214  stm32f7xx_hal_tim.o(i.HAL_TIM_ConfigClockSource)
    HAL_TIM_PWM_ConfigChannel                0x08002a45   Thumb Code   286  stm32f7xx_hal_tim.o(i.HAL_TIM_PWM_ConfigChannel)
    HAL_TIM_PWM_Init                         0x08002b63   Thumb Code    98  stm32f7xx_hal_tim.o(i.HAL_TIM_PWM_Init)
    HAL_TIM_PWM_MspInit                      0x08002bc5   Thumb Code     2  stm32f7xx_hal_tim.o(i.HAL_TIM_PWM_MspInit)
    HAL_UARTEx_RxEventCallback               0x08002bc7   Thumb Code     2  stm32f7xx_hal_uart.o(i.HAL_UARTEx_RxEventCallback)
    HAL_UARTEx_WakeupCallback                0x08002bc9   Thumb Code     2  stm32f7xx_hal_uart.o(i.HAL_UARTEx_WakeupCallback)
    HAL_UART_ErrorCallback                   0x08002bcb   Thumb Code     2  stm32f7xx_hal_uart.o(i.HAL_UART_ErrorCallback)
    HAL_UART_IRQHandler                      0x08002bcd   Thumb Code   556  stm32f7xx_hal_uart.o(i.HAL_UART_IRQHandler)
    HAL_UART_Receive                         0x08002e01   Thumb Code   248  stm32f7xx_hal_uart.o(i.HAL_UART_Receive)
    HAL_UART_TxCpltCallback                  0x08002ef9   Thumb Code     2  stm32f7xx_hal_uart.o(i.HAL_UART_TxCpltCallback)
    HardFault_Handler                        0x08002efb   Thumb Code     2  stm32f7xx_it.o(i.HardFault_Handler)
    IIC_Ack                                  0x08002efd   Thumb Code    76  myiic.o(i.IIC_Ack)
    IIC_NAck                                 0x08002f4d   Thumb Code    76  myiic.o(i.IIC_NAck)
    IIC_Read_Byte                            0x08002f9d   Thumb Code   100  myiic.o(i.IIC_Read_Byte)
    IIC_Send_Byte                            0x08003005   Thumb Code   104  myiic.o(i.IIC_Send_Byte)
    IIC_Start                                0x08003071   Thumb Code    76  myiic.o(i.IIC_Start)
    IIC_Stop                                 0x080030c1   Thumb Code    76  myiic.o(i.IIC_Stop)
    IIC_Wait_Ack                             0x08003111   Thumb Code    94  myiic.o(i.IIC_Wait_Ack)
    LCD_Clear                                0x08003175   Thumb Code    58  lcd.o(i.LCD_Clear)
    LCD_Display_Dir                          0x080031bd   Thumb Code   234  lcd.o(i.LCD_Display_Dir)
    LCD_DrawLine                             0x080032b1   Thumb Code   152  lcd.o(i.LCD_DrawLine)
    LCD_DrawPoint                            0x08003349   Thumb Code    36  lcd.o(i.LCD_DrawPoint)
    LCD_DrawRectangle                        0x08003379   Thumb Code    58  lcd.o(i.LCD_DrawRectangle)
    LCD_Draw_Circle                          0x080033b3   Thumb Code   176  lcd.o(i.LCD_Draw_Circle)
    LCD_Fast_DrawPoint                       0x08003465   Thumb Code   230  lcd.o(i.LCD_Fast_DrawPoint)
    LCD_Fill                                 0x08003559   Thumb Code    86  lcd.o(i.LCD_Fill)
    LCD_Init                                 0x080035b9   Thumb Code   214  lcd.o(i.LCD_Init)
    LCD_Page_Prepare                         0x080036ad   Thumb Code    90  lcd_page.o(i.LCD_Page_Prepare)
    LCD_Pow                                  0x08003739   Thumb Code    16  lcd.o(i.LCD_Pow)
    LCD_Prepare                              0x08003749   Thumb Code    50  mlcd.o(i.LCD_Prepare)
    LCD_Scan_Dir                             0x080037a5   Thumb Code   434  lcd.o(i.LCD_Scan_Dir)
    LCD_SetCursor                            0x0800395d   Thumb Code   254  lcd.o(i.LCD_SetCursor)
    LCD_ShowChar                             0x08003a61   Thumb Code   204  lcd.o(i.LCD_ShowChar)
    LCD_ShowNum                              0x08003b45   Thumb Code   120  lcd.o(i.LCD_ShowNum)
    LCD_ShowString                           0x08003bbd   Thumb Code    84  lcd.o(i.LCD_ShowString)
    LCD_WR_DATA                              0x08003c11   Thumb Code    20  lcd.o(i.LCD_WR_DATA)
    LCD_WR_REG                               0x08003c29   Thumb Code    20  lcd.o(i.LCD_WR_REG)
    LCD_WriteRAM_Prepare                     0x08003c41   Thumb Code    10  lcd.o(i.LCD_WriteRAM_Prepare)
    LCD_WriteReg                             0x08003c55   Thumb Code    10  lcd.o(i.LCD_WriteReg)
    LTDC_Clear                               0x08003c65   Thumb Code    28  ltdc.o(i.LTDC_Clear)
    LTDC_Display_Dir                         0x08003c85   Thumb Code    32  ltdc.o(i.LTDC_Display_Dir)
    LTDC_Draw_Point                          0x08003ca9   Thumb Code    52  ltdc.o(i.LTDC_Draw_Point)
    LTDC_Fill                                0x08003ce5   Thumb Code   162  ltdc.o(i.LTDC_Fill)
    LTDC_Layer_Parameter_Config              0x08003d99   Thumb Code    86  lcd.o(i.LTDC_Layer_Parameter_Config)
    LTDC_Select_Layer                        0x08003df9   Thumb Code     6  ltdc.o(i.LTDC_Select_Layer)
    MX_ADC1_Init                             0x08003fd5   Thumb Code    88  adc.o(i.MX_ADC1_Init)
    MX_DMA2D_Init                            0x08004035   Thumb Code    62  dma2d.o(i.MX_DMA2D_Init)
    MX_DMA_Init                              0x0800407d   Thumb Code    40  dma.o(i.MX_DMA_Init)
    MX_FMC_Init                              0x080040a9   Thumb Code    98  fmc.o(i.MX_FMC_Init)
    MX_GPIO_Init                             0x08004115   Thumb Code   258  gpio.o(i.MX_GPIO_Init)
    MX_LTDC_Init                             0x0800422d   Thumb Code   214  ltdc.o(i.MX_LTDC_Init)
    MX_TIM2_Init                             0x0800430d   Thumb Code   148  tim.o(i.MX_TIM2_Init)
    MemManage_Handler                        0x080043a5   Thumb Code     2  stm32f7xx_it.o(i.MemManage_Handler)
    Method_LCD_Add_Page                      0x080043a9   Thumb Code    68  mlcd.o(i.Method_LCD_Add_Page)
    Method_LCD_Init                          0x08004405   Thumb Code    14  mlcd.o(i.Method_LCD_Init)
    Method_LCD_Page_Add_Button               0x08004415   Thumb Code    66  lcd_page.o(i.Method_LCD_Page_Add_Button)
    Method_LCD_Page_Add_Line                 0x08004475   Thumb Code    20  lcd_page.o(i.Method_LCD_Page_Add_Line)
    Method_LCD_Page_Button_Show_Init         0x08004489   Thumb Code    90  lcd_page.o(i.Method_LCD_Page_Button_Show_Init)
    Method_LCD_Page_Button_Touch_Scan        0x080044e5   Thumb Code   110  lcd_page.o(i.Method_LCD_Page_Button_Touch_Scan)
    Method_LCD_Page_Change_Display_direction 0x08004559   Thumb Code    34  lcd_page.o(i.Method_LCD_Page_Change_Display_direction)
    Method_LCD_Page_Refresh_Button           0x08004585   Thumb Code   138  lcd_page.o(i.Method_LCD_Page_Refresh_Button)
    Method_LCD_Page_Touch_Function           0x08004615   Thumb Code    34  lcd_page.o(i.Method_LCD_Page_Touch_Function)
    Method_LCD_Refresh_Button                0x08004637   Thumb Code     6  mlcd.o(i.Method_LCD_Refresh_Button)
    Method_LCD_Run                           0x0800463d   Thumb Code    76  mlcd.o(i.Method_LCD_Run)
    Method_LCD_Show_Init                     0x08004689   Thumb Code     6  mlcd.o(i.Method_LCD_Show_Init)
    NMI_Handler                              0x0800468f   Thumb Code     2  stm32f7xx_it.o(i.NMI_Handler)
    OTT2001A_Init                            0x08004691   Thumb Code   164  ott2001a.o(i.OTT2001A_Init)
    OTT2001A_RD_Reg                          0x0800474d   Thumb Code    96  ott2001a.o(i.OTT2001A_RD_Reg)
    OTT2001A_Scan                            0x080047ad   Thumb Code   352  ott2001a.o(i.OTT2001A_Scan)
    OTT2001A_SensorControl                   0x08004931   Thumb Code    30  ott2001a.o(i.OTT2001A_SensorControl)
    OTT2001A_WR_Reg                          0x0800494f   Thumb Code    82  ott2001a.o(i.OTT2001A_WR_Reg)
    Page1_Init_Show                          0x080049a1   Thumb Code    42  variable.o(i.Page1_Init_Show)
    Page1_Refresh                            0x080049d5   Thumb Code     2  variable.o(i.Page1_Refresh)
    PendSV_Handler                           0x080049d7   Thumb Code     2  stm32f7xx_it.o(i.PendSV_Handler)
    SDRAM_Initialization_Sequence            0x080049d9   Thumb Code    72  fmc.o(i.SDRAM_Initialization_Sequence)
    SDRAM_Send_Cmd                           0x08004a25   Thumb Code    50  fmc.o(i.SDRAM_Send_Cmd)
    SVC_Handler                              0x08004a5d   Thumb Code     2  stm32f7xx_it.o(i.SVC_Handler)
    SysTick_Handler                          0x08004a5f   Thumb Code     4  stm32f7xx_it.o(i.SysTick_Handler)
    SystemClock_Config                       0x08004a65   Thumb Code   166  main.o(i.SystemClock_Config)
    SystemInit                               0x08004b15   Thumb Code    68  system_stm32f7xx.o(i.SystemInit)
    TIM_Base_SetConfig                       0x08004b69   Thumb Code   158  stm32f7xx_hal_tim.o(i.TIM_Base_SetConfig)
    TIM_ETR_SetConfig                        0x08004c35   Thumb Code    18  stm32f7xx_hal_tim.o(i.TIM_ETR_SetConfig)
    TIM_OC2_SetConfig                        0x08004ccd   Thumb Code   108  stm32f7xx_hal_tim.o(i.TIM_OC2_SetConfig)
    TP_Adj_Info_Show                         0x08004f0d   Thumb Code   326  touch.o(i.TP_Adj_Info_Show)
    TP_Adjust                                0x08005085   Thumb Code  1442  touch.o(i.TP_Adjust)
    TP_Drow_Touch_Point                      0x08005659   Thumb Code   112  touch.o(i.TP_Drow_Touch_Point)
    TP_Get_Adjdata                           0x080056cd   Thumb Code   138  touch.o(i.TP_Get_Adjdata)
    TP_Init                                  0x08005761   Thumb Code    52  touch.o(i.TP_Init)
    TP_Read_AD                               0x080057a5   Thumb Code   186  touch.o(i.TP_Read_AD)
    TP_Read_XOY                              0x0800586d   Thumb Code   100  touch.o(i.TP_Read_XOY)
    TP_Read_XY                               0x080058d1   Thumb Code    34  touch.o(i.TP_Read_XY)
    TP_Read_XY2                              0x080058f9   Thumb Code   122  touch.o(i.TP_Read_XY2)
    TP_Save_Adjdata                          0x08005975   Thumb Code   110  touch.o(i.TP_Save_Adjdata)
    TP_Scan                                  0x080059ed   Thumb Code   180  touch.o(i.TP_Scan)
    TP_Write_Byte                            0x08005aa9   Thumb Code    72  touch.o(i.TP_Write_Byte)
    UART_WaitOnFlagUntilTimeout              0x08005b3d   Thumb Code   164  stm32f7xx_hal_uart.o(i.UART_WaitOnFlagUntilTimeout)
    USART1_IRQHandler                        0x08005be1   Thumb Code   100  usart.o(i.USART1_IRQHandler)
    UsageFault_Handler                       0x08005c4d   Thumb Code     2  stm32f7xx_it.o(i.UsageFault_Handler)
    Variable_Init                            0x08005c51   Thumb Code    92  variable.o(i.Variable_Init)
    __0printf$5                              0x08005cdd   Thumb Code    22  printf5.o(i.__0printf$5)
    __1printf$5                              0x08005cdd   Thumb Code     0  printf5.o(i.__0printf$5)
    __2printf                                0x08005cdd   Thumb Code     0  printf5.o(i.__0printf$5)
    __hardfp_sqrt                            0x08005d1f   Thumb Code   102  sqrt.o(i.__hardfp_sqrt)
    __scatterload_copy                       0x08005d85   Thumb Code    14  handlers.o(i.__scatterload_copy)
    __scatterload_null                       0x08005d93   Thumb Code     2  handlers.o(i.__scatterload_null)
    __scatterload_zeroinit                   0x08005d95   Thumb Code    14  handlers.o(i.__scatterload_zeroinit)
    __set_errno                              0x08005da5   Thumb Code     6  errno.o(i.__set_errno)
    delay_init                               0x08006071   Thumb Code    16  delay.o(i.delay_init)
    delay_ms                                 0x08006085   Thumb Code    26  delay.o(i.delay_ms)
    delay_us                                 0x080060a1   Thumb Code    48  delay.o(i.delay_us)
    fputc                                    0x080060d5   Thumb Code    14  usart.o(i.fputc)
    main                                     0x080060e9   Thumb Code    82  main.o(i.main)
    malloc                                   0x08006149   Thumb Code    92  malloc.o(i.malloc)
    AHBPrescTable                            0x080061bc   Data          16  system_stm32f7xx.o(.constdata)
    asc2_1206                                0x080061cc   Data        1140  lcd.o(.constdata)
    asc2_1608                                0x08006640   Data        1520  lcd.o(.constdata)
    asc2_2412                                0x08006c30   Data        3420  lcd.o(.constdata)
    asc2_3216                                0x0800798c   Data       12160  lcd.o(.constdata)
    GT9147_CFG_TBL                           0x0800a90c   Data         184  gt9147.o(.constdata)
    GT9147_TPX_TBL                           0x0800a9c4   Data          10  gt9147.o(.constdata)
    OTT_TPX_TBL                              0x0800a9ce   Data          10  ott2001a.o(.constdata)
    TP_REMIND_MSG_TBL                        0x0800a9d8   Data           4  touch.o(.constdata)
    Region$$Table$$Base                      0x0800aa58   Number         0  anon$$obj.o(Region$$Table)
    Region$$Table$$Limit                     0x0800aa78   Number         0  anon$$obj.o(Region$$Table)
    ltdc_framebuf                            0x20000008   Data           8  ltdc.o(.data)
    uwTickFreq                               0x20000010   Data           1  stm32f7xx_hal.o(.data)
    uwTickPrio                               0x20000014   Data           4  stm32f7xx_hal.o(.data)
    uwTick                                   0x20000018   Data           4  stm32f7xx_hal.o(.data)
    SystemCoreClock                          0x2000001c   Data           4  system_stm32f7xx.o(.data)
    button1                                  0x20000020   Data          28  variable.o(.data)
    button2                                  0x2000003c   Data          28  variable.o(.data)
    button3                                  0x20000058   Data          28  variable.o(.data)
    USART_RX_STA                             0x20000078   Data           2  usart.o(.data)
    __stdout                                 0x2000007c   Data           4  usart.o(.data)
    POINT_COLOR                              0x20000080   Data           4  lcd.o(.data)
    BACK_COLOR                               0x20000084   Data           4  lcd.o(.data)
    CMD_RDX                                  0x2000008c   Data           1  touch.o(.data)
    CMD_RDY                                  0x2000008d   Data           1  touch.o(.data)
    tp_dev                                   0x20000090   Data          72  touch.o(.data)
    __microlib_freelist                      0x200000d8   Data           4  mvars.o(.data)
    __microlib_freelist_initialised          0x200000dc   Data           4  mvars.o(.data)
    hadc1                                    0x200000e4   Data          72  adc.o(.bss)
    hdma_adc1                                0x2000012c   Data          96  adc.o(.bss)
    hdma2d                                   0x2000018c   Data          88  dma2d.o(.bss)
    hsdram1                                  0x200001e4   Data          52  fmc.o(.bss)
    LTDC_Handler                             0x20000218   Data         168  ltdc.o(.bss)
    lcdltdc                                  0x200002c0   Data          32  ltdc.o(.bss)
    hltdc                                    0x200002e0   Data         168  ltdc.o(.bss)
    htim2                                    0x20000388   Data          76  tim.o(.bss)
    base_lcd                                 0x200003d4   Data          28  variable.o(.bss)
    page1                                    0x200003f0   Data          68  variable.o(.bss)
    USART_RX_BUF                             0x20000434   Data         200  usart.o(.bss)
    UART1_Handler                            0x200004fc   Data         132  usart.o(.bss)
    lcddev                                   0x20000580   Data          14  lcd.o(.bss)
    __heap_base                              0x20000590   Data           0  startup_stm32f767xx.o(HEAP)
    __heap_limit                             0x20000790   Data           0  startup_stm32f767xx.o(HEAP)
    __initial_sp                             0x20000b90   Data           0  startup_stm32f767xx.o(STACK)
    ltdc_lcd_framebuf                        0xc0000000   Data       2048000  lcd.o(.ARM.__AT_0xC0000000)



==============================================================================

Memory Map of the image

  Image Entry point : 0x080001f9

  Load Region LR_IROM1 (Base: 0x08000000, Size: 0x0000ab5c, Max: 0x00100000, ABSOLUTE)

    Execution Region ER_IROM1 (Base: 0x08000000, Size: 0x0000aa78, Max: 0x00100000, ABSOLUTE)

    Base Addr    Size         Type   Attr      Idx    E Section Name        Object

    0x08000000   0x000001f8   Data   RO            3    RESET               startup_stm32f767xx.o
    0x080001f8   0x00000000   Code   RO         6946  * .ARM.Collect$$$$00000000  mc_w.l(entry.o)
    0x080001f8   0x00000004   Code   RO         7248    .ARM.Collect$$$$00000001  mc_w.l(entry2.o)
    0x080001fc   0x00000004   Code   RO         7251    .ARM.Collect$$$$00000004  mc_w.l(entry5.o)
    0x08000200   0x00000000   Code   RO         7253    .ARM.Collect$$$$00000008  mc_w.l(entry7b.o)
    0x08000200   0x00000000   Code   RO         7255    .ARM.Collect$$$$0000000A  mc_w.l(entry8b.o)
    0x08000200   0x00000008   Code   RO         7256    .ARM.Collect$$$$0000000B  mc_w.l(entry9a.o)
    0x08000208   0x00000000   Code   RO         7258    .ARM.Collect$$$$0000000D  mc_w.l(entry10a.o)
    0x08000208   0x00000000   Code   RO         7260    .ARM.Collect$$$$0000000F  mc_w.l(entry11a.o)
    0x08000208   0x00000004   Code   RO         7249    .ARM.Collect$$$$00002712  mc_w.l(entry2.o)
    0x0800020c   0x00000024   Code   RO            4    .text               startup_stm32f767xx.o
    0x08000230   0x00000062   Code   RO         6949    .text               mc_w.l(uldiv.o)
    0x08000292   0x00000024   Code   RO         6951    .text               mc_w.l(memcpya.o)
    0x080002b6   0x00000024   Code   RO         6953    .text               mc_w.l(memseta.o)
    0x080002da   0x0000001c   Code   RO         6955    .text               mc_w.l(strcmp.o)
    0x080002f6   0x0000001e   Code   RO         7264    .text               mc_w.l(llshl.o)
    0x08000314   0x00000020   Code   RO         7266    .text               mc_w.l(llushr.o)
    0x08000334   0x00000000   Code   RO         7277    .text               mc_w.l(iusefp.o)
    0x08000334   0x00000024   Code   RO         7288    .text               mc_w.l(init.o)
    0x08000358   0x00000138   Code   RO          713    i.ADC_Init          stm32f7xx_hal_adc.o
    0x08000490   0x00000028   Code   RO         6874    i.AT24CXX_ReadLenByte  24cxx.o
    0x080004b8   0x00000042   Code   RO         6875    i.AT24CXX_ReadOneByte  24cxx.o
    0x080004fa   0x0000002a   Code   RO         6877    i.AT24CXX_WriteLenByte  24cxx.o
    0x08000524   0x0000003e   Code   RO         6878    i.AT24CXX_WriteOneByte  24cxx.o
    0x08000562   0x00000002   Code   RO          604    i.BusFault_Handler  stm32f7xx_it.o
    0x08000564   0x0000001c   Code   RO         5749    i.Button1_Function  variable.o
    0x08000580   0x0000001c   Code   RO         5750    i.Button2_Function  variable.o
    0x0800059c   0x0000001c   Code   RO         5751    i.Button3_Function  variable.o
    0x080005b8   0x0000005c   Code   RO         6377    i.CT_IIC_Ack        ctiic.o
    0x08000614   0x00000058   Code   RO         6378    i.CT_IIC_Init       ctiic.o
    0x0800066c   0x0000005c   Code   RO         6379    i.CT_IIC_NAck       ctiic.o
    0x080006c8   0x00000070   Code   RO         6380    i.CT_IIC_Read_Byte  ctiic.o
    0x08000738   0x00000078   Code   RO         6381    i.CT_IIC_Send_Byte  ctiic.o
    0x080007b0   0x00000058   Code   RO         6382    i.CT_IIC_Start      ctiic.o
    0x08000808   0x0000004c   Code   RO         6383    i.CT_IIC_Stop       ctiic.o
    0x08000854   0x00000064   Code   RO         6384    i.CT_IIC_Wait_Ack   ctiic.o
    0x080008b8   0x0000000c   Code   RO          605    i.DMA2_Stream0_IRQHandler  stm32f7xx_it.o
    0x080008c4   0x00000028   Code   RO         1395    i.DMA_CalcBaseAndBitshift  stm32f7xx_hal_dma.o
    0x080008ec   0x00000054   Code   RO         1396    i.DMA_CheckFifoParam  stm32f7xx_hal_dma.o
    0x08000940   0x00000002   Code   RO          606    i.DebugMon_Handler  stm32f7xx_it.o
    0x08000942   0x00000002   Code   RO           13    i.Error_Handler     main.o
    0x08000944   0x0000005e   Code   RO         2903    i.FMC_SDRAM_Init    stm32f7xx_ll_fmc.o
    0x080009a2   0x0000000c   Code   RO         2904    i.FMC_SDRAM_ProgramRefreshRate  stm32f7xx_ll_fmc.o
    0x080009ae   0x00000026   Code   RO         2905    i.FMC_SDRAM_SendCommand  stm32f7xx_ll_fmc.o
    0x080009d4   0x0000008c   Code   RO         2907    i.FMC_SDRAM_Timing_Init  stm32f7xx_ll_fmc.o
    0x08000a60   0x00000144   Code   RO         6500    i.GT9147_Init       gt9147.o
    0x08000ba4   0x00000060   Code   RO         6501    i.GT9147_RD_Reg     gt9147.o
    0x08000c04   0x0000020c   Code   RO         6502    i.GT9147_Scan       gt9147.o
    0x08000e10   0x00000050   Code   RO         6503    i.GT9147_Send_Cfg   gt9147.o
    0x08000e60   0x00000052   Code   RO         6504    i.GT9147_WR_Reg     gt9147.o
    0x08000eb2   0x00000002   PAD
    0x08000eb4   0x000001a8   Code   RO          715    i.HAL_ADC_ConfigChannel  stm32f7xx_hal_adc.o
    0x0800105c   0x00000054   Code   RO          724    i.HAL_ADC_Init      stm32f7xx_hal_adc.o
    0x080010b0   0x00000098   Code   RO          281    i.HAL_ADC_MspInit   adc.o
    0x08001148   0x000000b8   Code   RO         2693    i.HAL_DMA2D_ConfigLayer  stm32f7xx_hal_dma2d.o
    0x08001200   0x00000070   Code   RO         2701    i.HAL_DMA2D_Init    stm32f7xx_hal_dma2d.o
    0x08001270   0x00000028   Code   RO          347    i.HAL_DMA2D_MspInit  dma2d.o
    0x08001298   0x00000092   Code   RO         1398    i.HAL_DMA_Abort     stm32f7xx_hal_dma.o
    0x0800132a   0x00000024   Code   RO         1399    i.HAL_DMA_Abort_IT  stm32f7xx_hal_dma.o
    0x0800134e   0x00000002   PAD
    0x08001350   0x000001a0   Code   RO         1403    i.HAL_DMA_IRQHandler  stm32f7xx_hal_dma.o
    0x080014f0   0x000000e4   Code   RO         1404    i.HAL_DMA_Init      stm32f7xx_hal_dma.o
    0x080015d4   0x00000024   Code   RO         1900    i.HAL_Delay         stm32f7xx_hal.o
    0x080015f8   0x000000a0   Code   RO          390    i.HAL_FMC_MspInit   fmc.o
    0x08001698   0x000001d8   Code   RO         1332    i.HAL_GPIO_Init     stm32f7xx_hal_gpio.o
    0x08001870   0x0000000a   Code   RO         1334    i.HAL_GPIO_ReadPin  stm32f7xx_hal_gpio.o
    0x0800187a   0x0000000a   Code   RO         1336    i.HAL_GPIO_WritePin  stm32f7xx_hal_gpio.o
    0x08001884   0x0000000c   Code   RO         1910    i.HAL_GetTick       stm32f7xx_hal.o
    0x08001890   0x00000010   Code   RO         1916    i.HAL_IncTick       stm32f7xx_hal.o
    0x080018a0   0x00000016   Code   RO         1917    i.HAL_Init          stm32f7xx_hal.o
    0x080018b6   0x00000002   PAD
    0x080018b8   0x00000040   Code   RO         1918    i.HAL_InitTick      stm32f7xx_hal.o
    0x080018f8   0x00000052   Code   RO         3197    i.HAL_LTDC_ConfigLayer  stm32f7xx_hal_ltdc.o
    0x0800194a   0x00000002   PAD
    0x0800194c   0x000000f8   Code   RO         3214    i.HAL_LTDC_Init     stm32f7xx_hal_ltdc.o
    0x08001a44   0x000000e4   Code   RO          462    i.HAL_LTDC_MspInit  ltdc.o
    0x08001b28   0x00000054   Code   RO         3229    i.HAL_LTDC_SetWindowPosition  stm32f7xx_hal_ltdc.o
    0x08001b7c   0x00000054   Code   RO         3231    i.HAL_LTDC_SetWindowSize  stm32f7xx_hal_ltdc.o
    0x08001bd0   0x00000030   Code   RO          686    i.HAL_MspInit       stm32f7xx_hal_msp.o
    0x08001c00   0x0000001a   Code   RO         1763    i.HAL_NVIC_EnableIRQ  stm32f7xx_hal_cortex.o
    0x08001c1a   0x00000002   PAD
    0x08001c1c   0x00000040   Code   RO         1769    i.HAL_NVIC_SetPriority  stm32f7xx_hal_cortex.o
    0x08001c5c   0x00000024   Code   RO         1770    i.HAL_NVIC_SetPriorityGrouping  stm32f7xx_hal_cortex.o
    0x08001c80   0x0000006c   Code   RO         1672    i.HAL_PWREx_EnableOverDrive  stm32f7xx_hal_pwr_ex.o
    0x08001cec   0x00000010   Code   RO         1549    i.HAL_PWR_EnableBkUpAccess  stm32f7xx_hal_pwr.o
    0x08001cfc   0x0000053c   Code   RO         1093    i.HAL_RCCEx_PeriphCLKConfig  stm32f7xx_hal_rcc_ex.o
    0x08002238   0x00000130   Code   RO          986    i.HAL_RCC_ClockConfig  stm32f7xx_hal_rcc.o
    0x08002368   0x00000064   Code   RO          995    i.HAL_RCC_GetSysClockFreq  stm32f7xx_hal_rcc.o
    0x080023cc   0x00000398   Code   RO          998    i.HAL_RCC_OscConfig  stm32f7xx_hal_rcc.o
    0x08002764   0x00000042   Code   RO         3044    i.HAL_SDRAM_Init    stm32f7xx_hal_sdram.o
    0x080027a6   0x00000004   Code   RO          392    i.HAL_SDRAM_MspInit  fmc.o
    0x080027aa   0x00000022   Code   RO         3047    i.HAL_SDRAM_ProgramRefreshRate  stm32f7xx_hal_sdram.o
    0x080027cc   0x00000030   Code   RO         3053    i.HAL_SDRAM_SendCommand  stm32f7xx_hal_sdram.o
    0x080027fc   0x00000018   Code   RO         1772    i.HAL_SYSTICK_CLKSourceConfig  stm32f7xx_hal_cortex.o
    0x08002814   0x00000026   Code   RO         1774    i.HAL_SYSTICK_Config  stm32f7xx_hal_cortex.o
    0x0800283a   0x00000002   PAD
    0x0800283c   0x000000a4   Code   RO         4225    i.HAL_TIMEx_MasterConfigSynchronization  stm32f7xx_hal_tim_ex.o
    0x080028e0   0x00000062   Code   RO         3489    i.HAL_TIM_Base_Init  stm32f7xx_hal_tim.o
    0x08002942   0x00000002   PAD
    0x08002944   0x00000024   Code   RO          563    i.HAL_TIM_Base_MspInit  tim.o
    0x08002968   0x000000dc   Code   RO         3498    i.HAL_TIM_ConfigClockSource  stm32f7xx_hal_tim.o
    0x08002a44   0x0000011e   Code   RO         3561    i.HAL_TIM_PWM_ConfigChannel  stm32f7xx_hal_tim.o
    0x08002b62   0x00000062   Code   RO         3564    i.HAL_TIM_PWM_Init  stm32f7xx_hal_tim.o
    0x08002bc4   0x00000002   Code   RO         3566    i.HAL_TIM_PWM_MspInit  stm32f7xx_hal_tim.o
    0x08002bc6   0x00000002   Code   RO         4759    i.HAL_UARTEx_RxEventCallback  stm32f7xx_hal_uart.o
    0x08002bc8   0x00000002   Code   RO         4760    i.HAL_UARTEx_WakeupCallback  stm32f7xx_hal_uart.o
    0x08002bca   0x00000002   Code   RO         4776    i.HAL_UART_ErrorCallback  stm32f7xx_hal_uart.o
    0x08002bcc   0x00000234   Code   RO         4779    i.HAL_UART_IRQHandler  stm32f7xx_hal_uart.o
    0x08002e00   0x000000f8   Code   RO         4783    i.HAL_UART_Receive  stm32f7xx_hal_uart.o
    0x08002ef8   0x00000002   Code   RO         4792    i.HAL_UART_TxCpltCallback  stm32f7xx_hal_uart.o
    0x08002efa   0x00000002   Code   RO          607    i.HardFault_Handler  stm32f7xx_it.o
    0x08002efc   0x00000050   Code   RO         6805    i.IIC_Ack           myiic.o
    0x08002f4c   0x00000050   Code   RO         6807    i.IIC_NAck          myiic.o
    0x08002f9c   0x00000068   Code   RO         6808    i.IIC_Read_Byte     myiic.o
    0x08003004   0x0000006c   Code   RO         6809    i.IIC_Send_Byte     myiic.o
    0x08003070   0x00000050   Code   RO         6810    i.IIC_Start         myiic.o
    0x080030c0   0x00000050   Code   RO         6811    i.IIC_Stop          myiic.o
    0x08003110   0x00000064   Code   RO         6812    i.IIC_Wait_Ack      myiic.o
    0x08003174   0x00000048   Code   RO         6155    i.LCD_Clear         lcd.o
    0x080031bc   0x000000f4   Code   RO         6159    i.LCD_Display_Dir   lcd.o
    0x080032b0   0x00000098   Code   RO         6160    i.LCD_DrawLine      lcd.o
    0x08003348   0x00000030   Code   RO         6161    i.LCD_DrawPoint     lcd.o
    0x08003378   0x0000003a   Code   RO         6162    i.LCD_DrawRectangle  lcd.o
    0x080033b2   0x000000b0   Code   RO         6163    i.LCD_Draw_Circle   lcd.o
    0x08003462   0x00000002   PAD
    0x08003464   0x000000f4   Code   RO         6164    i.LCD_Fast_DrawPoint  lcd.o
    0x08003558   0x00000060   Code   RO         6165    i.LCD_Fill          lcd.o
    0x080035b8   0x000000f4   Code   RO         6166    i.LCD_Init          lcd.o
    0x080036ac   0x0000008c   Code   RO         5588    i.LCD_Page_Prepare  lcd_page.o
    0x08003738   0x00000010   Code   RO         6168    i.LCD_Pow           lcd.o
    0x08003748   0x0000005c   Code   RO         5695    i.LCD_Prepare       mlcd.o
    0x080037a4   0x000001b8   Code   RO         6173    i.LCD_Scan_Dir      lcd.o
    0x0800395c   0x00000104   Code   RO         6174    i.LCD_SetCursor     lcd.o
    0x08003a60   0x000000e4   Code   RO         6176    i.LCD_ShowChar      lcd.o
    0x08003b44   0x00000078   Code   RO         6177    i.LCD_ShowNum       lcd.o
    0x08003bbc   0x00000054   Code   RO         6178    i.LCD_ShowString    lcd.o
    0x08003c10   0x00000018   Code   RO         6180    i.LCD_WR_DATA       lcd.o
    0x08003c28   0x00000018   Code   RO         6181    i.LCD_WR_REG        lcd.o
    0x08003c40   0x00000014   Code   RO         6183    i.LCD_WriteRAM_Prepare  lcd.o
    0x08003c54   0x00000010   Code   RO         6184    i.LCD_WriteReg      lcd.o
    0x08003c64   0x00000020   Code   RO          463    i.LTDC_Clear        ltdc.o
    0x08003c84   0x00000024   Code   RO          465    i.LTDC_Display_Dir  ltdc.o
    0x08003ca8   0x0000003c   Code   RO          466    i.LTDC_Draw_Point   ltdc.o
    0x08003ce4   0x000000b4   Code   RO          467    i.LTDC_Fill         ltdc.o
    0x08003d98   0x00000060   Code   RO         6185    i.LTDC_Layer_Parameter_Config  lcd.o
    0x08003df8   0x0000000c   Code   RO          470    i.LTDC_Select_Layer  ltdc.o
    0x08003e04   0x000001d0   Code   RO         3233    i.LTDC_SetConfig    stm32f7xx_hal_ltdc.o
    0x08003fd4   0x00000060   Code   RO          282    i.MX_ADC1_Init      adc.o
    0x08004034   0x00000048   Code   RO          348    i.MX_DMA2D_Init     dma2d.o
    0x0800407c   0x0000002c   Code   RO          322    i.MX_DMA_Init       dma.o
    0x080040a8   0x0000006c   Code   RO          393    i.MX_FMC_Init       fmc.o
    0x08004114   0x00000118   Code   RO          256    i.MX_GPIO_Init      gpio.o
    0x0800422c   0x000000e0   Code   RO          472    i.MX_LTDC_Init      ltdc.o
    0x0800430c   0x00000098   Code   RO          564    i.MX_TIM2_Init      tim.o
    0x080043a4   0x00000002   Code   RO          608    i.MemManage_Handler  stm32f7xx_it.o
    0x080043a6   0x00000002   PAD
    0x080043a8   0x0000005c   Code   RO         5696    i.Method_LCD_Add_Page  mlcd.o
    0x08004404   0x0000000e   Code   RO         5697    i.Method_LCD_Init   mlcd.o
    0x08004412   0x00000002   PAD
    0x08004414   0x00000060   Code   RO         5589    i.Method_LCD_Page_Add_Button  lcd_page.o
    0x08004474   0x00000014   Code   RO         5590    i.Method_LCD_Page_Add_Line  lcd_page.o
    0x08004488   0x0000005a   Code   RO         5592    i.Method_LCD_Page_Button_Show_Init  lcd_page.o
    0x080044e2   0x00000002   PAD
    0x080044e4   0x00000074   Code   RO         5593    i.Method_LCD_Page_Button_Touch_Scan  lcd_page.o
    0x08004558   0x0000002c   Code   RO         5594    i.Method_LCD_Page_Change_Display_direction  lcd_page.o
    0x08004584   0x00000090   Code   RO         5597    i.Method_LCD_Page_Refresh_Button  lcd_page.o
    0x08004614   0x00000022   Code   RO         5598    i.Method_LCD_Page_Touch_Function  lcd_page.o
    0x08004636   0x00000006   Code   RO         5698    i.Method_LCD_Refresh_Button  mlcd.o
    0x0800463c   0x0000004c   Code   RO         5699    i.Method_LCD_Run    mlcd.o
    0x08004688   0x00000006   Code   RO         5700    i.Method_LCD_Show_Init  mlcd.o
    0x0800468e   0x00000002   Code   RO          609    i.NMI_Handler       stm32f7xx_it.o
    0x08004690   0x000000bc   Code   RO         6604    i.OTT2001A_Init     ott2001a.o
    0x0800474c   0x00000060   Code   RO         6605    i.OTT2001A_RD_Reg   ott2001a.o
    0x080047ac   0x00000184   Code   RO         6606    i.OTT2001A_Scan     ott2001a.o
    0x08004930   0x0000001e   Code   RO         6607    i.OTT2001A_SensorControl  ott2001a.o
    0x0800494e   0x00000052   Code   RO         6608    i.OTT2001A_WR_Reg   ott2001a.o
    0x080049a0   0x00000034   Code   RO         5752    i.Page1_Init_Show   variable.o
    0x080049d4   0x00000002   Code   RO         5753    i.Page1_Refresh     variable.o
    0x080049d6   0x00000002   Code   RO          610    i.PendSV_Handler    stm32f7xx_it.o
    0x080049d8   0x0000004c   Code   RO          394    i.SDRAM_Initialization_Sequence  fmc.o
    0x08004a24   0x00000038   Code   RO          395    i.SDRAM_Send_Cmd    fmc.o
    0x08004a5c   0x00000002   Code   RO          611    i.SVC_Handler       stm32f7xx_it.o
    0x08004a5e   0x00000004   Code   RO          612    i.SysTick_Handler   stm32f7xx_it.o
    0x08004a62   0x00000002   PAD
    0x08004a64   0x000000b0   Code   RO           14    i.SystemClock_Config  main.o
    0x08004b14   0x00000054   Code   RO         5488    i.SystemInit        system_stm32f7xx.o
    0x08004b68   0x000000cc   Code   RO         3582    i.TIM_Base_SetConfig  stm32f7xx_hal_tim.o
    0x08004c34   0x00000012   Code   RO         3593    i.TIM_ETR_SetConfig  stm32f7xx_hal_tim.o
    0x08004c46   0x00000010   Code   RO         3594    i.TIM_ITRx_SetConfig  stm32f7xx_hal_tim.o
    0x08004c56   0x00000002   PAD
    0x08004c58   0x00000074   Code   RO         3595    i.TIM_OC1_SetConfig  stm32f7xx_hal_tim.o
    0x08004ccc   0x00000078   Code   RO         3596    i.TIM_OC2_SetConfig  stm32f7xx_hal_tim.o
    0x08004d44   0x00000078   Code   RO         3597    i.TIM_OC3_SetConfig  stm32f7xx_hal_tim.o
    0x08004dbc   0x00000058   Code   RO         3598    i.TIM_OC4_SetConfig  stm32f7xx_hal_tim.o
    0x08004e14   0x00000058   Code   RO         3599    i.TIM_OC5_SetConfig  stm32f7xx_hal_tim.o
    0x08004e6c   0x00000058   Code   RO         3600    i.TIM_OC6_SetConfig  stm32f7xx_hal_tim.o
    0x08004ec4   0x00000022   Code   RO         3602    i.TIM_TI1_ConfigInputStage  stm32f7xx_hal_tim.o
    0x08004ee6   0x00000024   Code   RO         3604    i.TIM_TI2_ConfigInputStage  stm32f7xx_hal_tim.o
    0x08004f0a   0x00000002   PAD
    0x08004f0c   0x00000178   Code   RO         6660    i.TP_Adj_Info_Show  touch.o
    0x08005084   0x000005d4   Code   RO         6661    i.TP_Adjust         touch.o
    0x08005658   0x00000074   Code   RO         6663    i.TP_Drow_Touch_Point  touch.o
    0x080056cc   0x00000094   Code   RO         6664    i.TP_Get_Adjdata    touch.o
    0x08005760   0x00000044   Code   RO         6665    i.TP_Init           touch.o
    0x080057a4   0x000000c8   Code   RO         6666    i.TP_Read_AD        touch.o
    0x0800586c   0x00000064   Code   RO         6667    i.TP_Read_XOY       touch.o
    0x080058d0   0x00000028   Code   RO         6668    i.TP_Read_XY        touch.o
    0x080058f8   0x0000007a   Code   RO         6669    i.TP_Read_XY2       touch.o
    0x08005972   0x00000002   PAD
    0x08005974   0x00000078   Code   RO         6670    i.TP_Save_Adjdata   touch.o
    0x080059ec   0x000000bc   Code   RO         6671    i.TP_Scan           touch.o
    0x08005aa8   0x00000050   Code   RO         6672    i.TP_Write_Byte     touch.o
    0x08005af8   0x00000014   Code   RO         4796    i.UART_DMAAbortOnError  stm32f7xx_hal_uart.o
    0x08005b0c   0x00000030   Code   RO         4806    i.UART_EndRxTransfer  stm32f7xx_hal_uart.o
    0x08005b3c   0x000000a4   Code   RO         4815    i.UART_WaitOnFlagUntilTimeout  stm32f7xx_hal_uart.o
    0x08005be0   0x0000006c   Code   RO         5899    i.USART1_IRQHandler  usart.o
    0x08005c4c   0x00000002   Code   RO          613    i.UsageFault_Handler  stm32f7xx_it.o
    0x08005c4e   0x00000002   PAD
    0x08005c50   0x0000008c   Code   RO         5754    i.Variable_Init     variable.o
    0x08005cdc   0x00000020   Code   RO         7092    i.__0printf$5       mc_w.l(printf5.o)
    0x08005cfc   0x00000022   Code   RO         1776    i.__NVIC_SetPriority  stm32f7xx_hal_cortex.o
    0x08005d1e   0x00000066   Code   RO         6934    i.__hardfp_sqrt     m_wv.l(sqrt.o)
    0x08005d84   0x0000000e   Code   RO         7296    i.__scatterload_copy  mc_w.l(handlers.o)
    0x08005d92   0x00000002   Code   RO         7297    i.__scatterload_null  mc_w.l(handlers.o)
    0x08005d94   0x0000000e   Code   RO         7298    i.__scatterload_zeroinit  mc_w.l(handlers.o)
    0x08005da2   0x00000002   PAD
    0x08005da4   0x0000000c   Code   RO         7272    i.__set_errno       mc_w.l(errno.o)
    0x08005db0   0x000002c0   Code   RO         7099    i._printf_core      mc_w.l(printf5.o)
    0x08006070   0x00000014   Code   RO         5810    i.delay_init        delay.o
    0x08006084   0x0000001a   Code   RO         5811    i.delay_ms          delay.o
    0x0800609e   0x00000002   PAD
    0x080060a0   0x00000034   Code   RO         5812    i.delay_us          delay.o
    0x080060d4   0x00000014   Code   RO         5901    i.fputc             usart.o
    0x080060e8   0x00000060   Code   RO           15    i.main              main.o
    0x08006148   0x0000006c   Code   RO         7221    i.malloc            mc_w.l(malloc.o)
    0x080061b4   0x00000008   Data   RO         1410    .constdata          stm32f7xx_hal_dma.o
    0x080061bc   0x00000010   Data   RO         5489    .constdata          system_stm32f7xx.o
    0x080061cc   0x00004740   Data   RO         6189    .constdata          lcd.o
    0x0800a90c   0x000000c2   Data   RO         6505    .constdata          gt9147.o
    0x0800a9ce   0x0000000a   Data   RO         6609    .constdata          ott2001a.o
    0x0800a9d8   0x00000004   Data   RO         6673    .constdata          touch.o
    0x0800a9dc   0x00000079   Data   RO         6674    .conststring        touch.o
    0x0800aa55   0x00000003   PAD
    0x0800aa58   0x00000020   Data   RO         7294    Region$$Table       anon$$obj.o


    Execution Region RW_IRAM1 (Base: 0x20000000, Size: 0x00000b90, Max: 0x00080000, ABSOLUTE)

    Base Addr    Size         Type   Attr      Idx    E Section Name        Object

    0x20000000   0x00000008   Data   RW          397    .data               fmc.o
    0x20000008   0x00000008   Data   RW          474    .data               ltdc.o
    0x20000010   0x0000000c   Data   RW         1924    .data               stm32f7xx_hal.o
    0x2000001c   0x00000004   Data   RW         5491    .data               system_stm32f7xx.o
    0x20000020   0x00000054   Data   RW         5756    .data               variable.o
    0x20000074   0x00000004   Data   RW         5813    .data               delay.o
    0x20000078   0x00000002   Data   RW         5904    .data               usart.o
    0x2000007a   0x00000002   PAD
    0x2000007c   0x00000004   Data   RW         5905    .data               usart.o
    0x20000080   0x00000008   Data   RW         6190    .data               lcd.o
    0x20000088   0x00000001   Data   RW         6506    .data               gt9147.o
    0x20000089   0x00000001   Data   RW         6610    .data               ott2001a.o
    0x2000008a   0x00000002   PAD
    0x2000008c   0x0000004c   Data   RW         6675    .data               touch.o
    0x200000d8   0x00000004   Data   RW         7268    .data               mc_w.l(mvars.o)
    0x200000dc   0x00000004   Data   RW         7269    .data               mc_w.l(mvars.o)
    0x200000e0   0x00000004   Data   RW         7273    .data               mc_w.l(errno.o)
    0x200000e4   0x000000a8   Zero   RW          283    .bss                adc.o
    0x2000018c   0x00000058   Zero   RW          349    .bss                dma2d.o
    0x200001e4   0x00000034   Zero   RW          396    .bss                fmc.o
    0x20000218   0x00000170   Zero   RW          473    .bss                ltdc.o
    0x20000388   0x0000004c   Zero   RW          565    .bss                tim.o
    0x200003d4   0x00000060   Zero   RW         5755    .bss                variable.o
    0x20000434   0x0000014c   Zero   RW         5903    .bss                usart.o
    0x20000580   0x0000000e   Zero   RW         6188    .bss                lcd.o
    0x2000058e   0x00000002   PAD
    0x20000590   0x00000200   Zero   RW            2    HEAP                startup_stm32f767xx.o
    0x20000790   0x00000400   Zero   RW            1    STACK               startup_stm32f767xx.o



  Load Region LR$$.ARM.__AT_0xC0000000 (Base: 0xc0000000, Size: 0x00000000, Max: 0x001f4000, ABSOLUTE)

    Execution Region ER$$.ARM.__AT_0xC0000000 (Base: 0xc0000000, Size: 0x001f4000, Max: 0x001f4000, ABSOLUTE, UNINIT)

    Base Addr    Size         Type   Attr      Idx    E Section Name        Object

    0xc0000000   0x001f4000   Zero   RW         6187    .ARM.__AT_0xC0000000  lcd.o


==============================================================================

Image component sizes


      Code (inc. data)   RO Data    RW Data    ZI Data      Debug   Object Name

       210          0          0          0          0       2470   24cxx.o
       248         30          0          0        168       1731   adc.o
       768         76          0          0          0       5617   ctiic.o
        98          8          0          4          0       1879   delay.o
        44          4          0          0          0        758   dma.o
       112         20          0          0         88       1525   dma2d.o
       404         48          0          8         52       3409   fmc.o
       280         22          0          0          0       1107   gpio.o
      1106         80        194          1          0       4706   gt9147.o
      2662        176      18240          8    2048014      16692   lcd.o
       684        102          0          0          0       6539   lcd_page.o
       772         74          0          8        368       6557   ltdc.o
       274         24          0          0          0     925809   main.o
       286         66          0          0          0       3654   mlcd.o
       632         30          0          0          0       4035   myiic.o
       784         60         10          1          0       4419   ott2001a.o
        36          8        504          0       1536        836   startup_stm32f767xx.o
       150         24          0         12          0       9121   stm32f7xx_hal.o
       820         30          0          0          0       2691   stm32f7xx_hal_adc.o
       222         12          0          0          0      39217   stm32f7xx_hal_cortex.o
       950         16          8          0          0       5231   stm32f7xx_hal_dma.o
       296          6          0          0          0       2025   stm32f7xx_hal_dma2d.o
       492         52          0          0          0       2959   stm32f7xx_hal_gpio.o
       962          6          0          0          0       4377   stm32f7xx_hal_ltdc.o
        48          6          0          0          0        826   stm32f7xx_hal_msp.o
        16          4          0          0          0        547   stm32f7xx_hal_pwr.o
       108          8          0          0          0       1272   stm32f7xx_hal_pwr_ex.o
      1324         46          0          0          0       3786   stm32f7xx_hal_rcc.o
      1340         22          0          0          0       2212   stm32f7xx_hal_rcc_ex.o
       148          0          0          0          0       2500   stm32f7xx_hal_sdram.o
      1632        130          0          0          0      12024   stm32f7xx_hal_tim.o
       164         30          0          0          0       1344   stm32f7xx_hal_tim_ex.o
      1052          8          0          0          0       7287   stm32f7xx_hal_uart.o
        32          6          0          0          0       4580   stm32f7xx_it.o
       284          6          0          0          0       3160   stm32f7xx_ll_fmc.o
        84         16         16          4          0       1227   system_stm32f7xx.o
       188         10          0          0         76       1678   tim.o
      3050        224        125         76          0      11013   touch.o
       128         14          0          6        332       3080   usart.o
       278        124          0         84         96       3264   variable.o

    ----------------------------------------------------------------------
     23202       1628      19132        216    2050732    1117164   Object Totals
         0          0         32          0          0          0   (incl. Generated)
        34          0          3          4          2          0   (incl. Padding)

    ----------------------------------------------------------------------

      Code (inc. data)   RO Data    RW Data    ZI Data      Debug   Library Member Name

       102          0          0          0          0        140   sqrt.o
         0          0          0          0          0          0   entry.o
         0          0          0          0          0          0   entry10a.o
         0          0          0          0          0          0   entry11a.o
         8          4          0          0          0          0   entry2.o
         4          0          0          0          0          0   entry5.o
         0          0          0          0          0          0   entry7b.o
         0          0          0          0          0          0   entry8b.o
         8          4          0          0          0          0   entry9a.o
        12          6          0          4          0         68   errno.o
        30          0          0          0          0          0   handlers.o
        36          8          0          0          0         68   init.o
         0          0          0          0          0          0   iusefp.o
        30          0          0          0          0         68   llshl.o
        32          0          0          0          0         68   llushr.o
       108         16          0          0          0         84   malloc.o
        36          0          0          0          0         68   memcpya.o
        36          0          0          0          0        108   memseta.o
         0          0          0          8          0          0   mvars.o
       736         56          0          0          0        184   printf5.o
        28          0          0          0          0         76   strcmp.o
        98          0          0          0          0         92   uldiv.o

    ----------------------------------------------------------------------
      1306         94          0         12          0       1024   Library Totals
         2          0          0          0          0          0   (incl. Padding)

    ----------------------------------------------------------------------

      Code (inc. data)   RO Data    RW Data    ZI Data      Debug   Library Name

       102          0          0          0          0        140   m_wv.l
      1202         94          0         12          0        884   mc_w.l

    ----------------------------------------------------------------------
      1306         94          0         12          0       1024   Library Totals

    ----------------------------------------------------------------------

==============================================================================


      Code (inc. data)   RO Data    RW Data    ZI Data      Debug   

     24508       1722      19132        228    2050732    1099728   Grand Totals
     24508       1722      19132        228    2050732    1099728   ELF Image Totals
     24508       1722      19132        228          0          0   ROM Totals

==============================================================================

    Total RO  Size (Code + RO Data)                43640 (  42.62kB)
    Total RW  Size (RW Data + ZI Data)           2050960 (2002.89kB)
    Total ROM Size (Code + RO Data + RW Data)      43868 (  42.84kB)

==============================================================================

